:020000040000FA
:100000000C9438010C9469010C9469010C946901F9
:100010000C9469010C9469010C9469010C946901B8
:100020000C9469010C9469010C9469010C946901A8
:100030000C9469010C9469010C9469010C94690198
:100040000C9469010C9465080C9469010C94690185
:100050000C9469010C9469010C9469010C9491074A
:100060000C9469010C945B070C9431070C946901A2
:100070000C9469010C9469010C9469010C94690158
:100080000C9437080C9469010C9469010C94690173
:100090000C94FB060C94D1060C9469010C94690134
:1000A0000C9469010C9469010C9409080C94690181
:1000B0000C9469010C9469010C9469010C94DB07A0
:1000C0000C9469010C9469010C9469010C94690108
:1000D0000C9469010C9469010C9469010C946901F8
:1000E0000C9469010C9425020C9448020C948E0324
:1000F0000C9493080C9480030C9472030C943402B7
:100100000C947C030C9456020C9486030C945303B9
:100110000C9494030C9493030C9498030C9459033B
:100120000C94E8020C9468030C94BF0E0C94980293
:100130000C945D030C948A030C9461030C94650386
:100140000C94F8010C946E030C94780300002100C9
:10015000240027002A002D00300033000101000098
:10016000040107010A0100002200250028002B00DD
:100170002E003100340002010000050108010B01CE
:10018000000020002300260029002C002F00320050
:100190000001000003010601090105050505070529
:1001A00008080808020202020A0A080804040404F3
:1001B000010101010101010103030303030303031F
:1001C000040707070C0C0C0C0C0C0C0C02020202AE
:1001D00006060606060606060B0B0B0B0B0B0B0B97
:1001E0000102102020080810204010204080020149
:1001F000020108040201010204081020408080402E
:10020000201008040201800402018040201008042C
:1002100002010804020101020408102040800102CA
:1002200004081020408000000A0B02090C0D0E0883
:1002300007030401000000000000000000000000AF
:1002400000000000000000000000000000000000AE
:10025000000012111000000000000000000000006B
:100260000000000000000000000000009308BF0E26
:1002700011241FBECFEFD1E2DEBFCDBF00E00CBF27
:1002800012E0A0E0B2E0E0EEF2E200E00BBF02C05C
:1002900007900D92AA3DB107D9F724E0AAEDB2E08C
:1002A00001C01D92A13EB207E1F711E0C7E3D1E022
:1002B00000E006C021970109802FFE010E94370F40
:1002C000C633D10780E00807A9F70E945F090C94A4
:1002D0005E110C940000FC01A089B18982E08C932E
:1002E000A485B5851C92A685B7858FEC8C93108E5E
:1002F000A489B58986E08C93A289B3898C918061A9
:100300008C93A289B3898C9188608C93A289B389DC
:100310008C9180688C930288F389E02D80818F7D99
:10032000808308958F929F92AF92BF92FF920F9316
:100330001F93CF93DF93F090DA042FE22F1508F488
:100340004CC02091DC0408E512E0021B110927FDD6
:100350001395000F111F000F111F2091DB04C8E837
:10036000D0E0C21BD10927FDD395CC0FDD1FCC0FE8
:10037000DD1F4E010D2E000CAA08BB089801012EAE
:10038000000C440B550B281939094A095B09DC019B
:100390000E94F20E24EB30E040E050E00E94C80ED4
:1003A000820E931EA41EB51E8C169D062CF0E8012D
:1003B000801691060CF4E4012297CC0FDD1F2FB7B5
:1003C000F8948F2D90E0FC01EE0FFF1FE80FF91F4E
:1003D000ED5BFB4FD283C1832FBFDF91CF911F9184
:1003E0000F91FF90BF90AF909F908F9008950895C8
:1003F000AF92BF92CF92DF92EF92FF920F931F9333
:10040000CF93DF936C017B018B01040F151FEB0170
:100410005E01AE18BF08C017D10759F06991D60127
:10042000ED91FC910190F081E02DC6011995892B89
:1004300079F7C501DF91CF911F910F91FF90EF9058
:10044000DF90CF90BF90AF900895FC01538D448D05
:10045000252F30E0842F90E0821B930B541710F06F
:10046000CF96089501970895FC01918D828D98177C
:1004700061F0A28DAE0FBF2FB11D5D968C91928D54
:100480009F5F9F73928F90E008958FEF9FEF089585
:10049000FC01918D828D981731F0828DE80FF11D4E
:1004A000858D90E008958FEF9FEF0895FC01918D69
:1004B000228D892F90E0805C9F4F821B91098F7362
:1004C0009927089589E093E00E94560221E0892B44
:1004D00009F420E0822F089586EA93E00E945602F4
:1004E00021E0892B09F420E0822F0895FC01A48DDE
:1004F000A80FB92FB11DA35ABF4F2C91848D90E046
:1005000001968F739927848FA689B7892C93A08928
:10051000B1898C91837080648C93938D848D9813B2
:1005200006C00288F389E02D80818F7D8083089545
:10053000EF92FF920F931F93CF93DF93EC0181E033
:10054000888F9B8D8C8D98131AC0E889F9898081DA
:1005500085FF15C09FB7F894EE89FF896083E8890D
:10056000F98980818370806480839FBF81E090E0FF
:10057000DF91CF911F910F91FF90EF900895F62E8C
:100580000B8D10E00F5F1F4F0F731127E02E8C8D26
:100590008E110CC00FB607FCFACFE889F98980816B
:1005A00085FFF5CFCE010E947602F1CFEB8DEC0FE7
:1005B000FD2FF11DE35AFF4FF0829FB7F8940B8F88
:1005C000EA89FB8980818062CFCF6AE00C9498022F
:1005D000CF93DF93EC01888D8823B9F0AA89BB897A
:1005E000E889F9898C9185FD03C0808186FD0DC065
:1005F0000FB607FCF7CF8C9185FFF2CF808185FF86
:10060000EDCFCE010E947602E9CFDF91CF91089520
:1006100080E090E0892B29F00E946C0281110E94F9
:10062000000080E090E0892B29F00E946202811195
:100630000E94000080E090E0892B49F080E090E08B
:10064000892B29F00E94000081110E94000080E0A7
:1006500090E0892B49F080E090E0892B29F00E94FE
:10066000000081110C94000008958150823108F03F
:100670005AC0E82FF0E08827EF5BFC4F8F4F0C94B7
:10068000370F61036503530359035D039303680345
:100690006E03720378037C03800386038A0393034B
:1006A0008E0394039803809180008F77809380005D
:1006B0000895809180008F7DF9CF80918000877FA1
:1006C000F5CF84B58F7784BD089584B58F7DFBCF3A
:1006D0008091B0008F778093B00008958091B00032
:1006E0008F7DF9CF809190008F778093900008954F
:1006F000809190008F7DF9CF80919000877FF5CF1A
:100700008091A0008F778093A00008958091A00031
:100710008F7DF9CF8091A000877FF5CF8091200158
:100720008F77809320010895809120018F7DF9CFEC
:1007300080912001877FF5CFCF93DF93282F30E082
:10074000F901EA5DFD4F8491F901E052FE4FD49129
:10075000F901E656FE4FC491CC23A1F081110E940D
:100760003503EC2FF0E0EE0FFF1FE058FE4FA59190
:10077000B491EC91ED2381E090E009F480E0DF9109
:10078000CF91089580E090E0FACF1F93CF93DF934D
:10079000282F30E0F901EA5DFD4F8491F901E05224
:1007A000FE4FD491F901E656FE4FC491CC23A9F037
:1007B000162F81110E943503EC2FF0E0EE0FFF1F82
:1007C000EA59FE4FA591B4918FB7F894EC911111AD
:1007D00008C0D095DE23DC938FBFDF91CF911F91AE
:1007E0000895DE2BF8CFCF93DF9390E0FC01E05229
:1007F000FE4F249186569E4FFC0184918823D1F0B0
:1008000090E0880F991FFC01E45BFE4FA591B49125
:10081000FC01EA59FE4FC591D49161110EC09FB7FA
:10082000F8948C91E22FE0958E238C932881E2231B
:10083000E8839FBFDF91CF9108958FB7F894EC9133
:10084000E22BEC938FBFF6CF3FB7F8948091E30291
:100850009091E402A091E502B091E60226B5A89B32
:1008600005C02F3F19F00196A11DB11D3FBFBA2F42
:10087000A92F982F8827BC01CD01620F711D811D02
:10088000911D42E0660F771F881F991F4A95D1F787
:1008900008952FB7F8946091DF027091E002809183
:1008A000E1029091E2022FBF08950F931F930E94DF
:1008B00049046093AE037093AF038093B0039093A9
:1008C000B10386EA93E00E94340297FF1DC00E94A4
:1008D00049040091AE031091AF032091B003309111
:1008E000B103601B710B820B930B0091AA03109153
:1008F000AB032091AC033091AD0360177107820701
:100900009307F8F28FEF9FEF1F910F910895AF9229
:10091000BF92CF92DF92EF92FF920F931F93CF93EC
:10092000DF936B017A01EC01C652DD4F28813CE078
:10093000389F8001399F100D1124A090D304B12C51
:1009400027FF1FC0FB011182108288818F5F88837F
:1009500088819801280F311D87FD3A95F6012A15E7
:100960003B051CF488818C30C4F180819181049610
:1009700080349C4908F473C0F6018081918104960B
:1009800070C088819801280F311D87FD3A952A157E
:100990003B05DCF68881A801480F511D87FD5A955B
:1009A000FA01EE0FFF1FE40FF51FED5BFB4F808197
:1009B00086FFCBCF8881F801E80FF11D87FDFA95FE
:1009C000CF01EE0FFF1FE80FF91FED5BFB4F80819A
:1009D00060E08F730E94C503B8CF80819181288128
:1009E000A801420F511D27FD5A959A01FA01EE0FF9
:1009F000FF1FE20FF31FED5BFB4F21813281820F5E
:100A0000931FF7019183808388819801280F311DFE
:100A100087FD3A95F901EE0FFF1FE20FF31FED5B23
:100A2000FB4F808186FF22C08881080F111D87FD42
:100A30001A95F801EE0FFF1FE00FF11FED5BFB4F62
:100A4000808161E08F73DF91CF911F910F91FF90B3
:100A5000EF90DF90CF90BF90AF900C94C50380E4EF
:100A60009CE9F701918380838FEF8883DF91CF9199
:100A70001F910F91FF90EF90DF90CF90BF90AF90BC
:100A800008951F93CF93DF93182FEB0183E0CC0FD2
:100A9000DD1F8A95E1F7CA5FDD4F6881812F0E94D3
:100AA000C5036A818FEF810F0E94C5036C818EEFB1
:100AB000810F0E94C5036E818DEF810FDF91CF9171
:100AC0001F910C94C5031F93CF93DF93182FEB0155
:100AD00083E0CC0FDD1F8A95E1F7CA5FDD4F6881A7
:100AE00083E0810F0E94C5036A8182E0810F0E942A
:100AF000C5036C8181E0810F0E94C5036E81812F47
:100B0000DF91CF911F910C94C5034F925F926F922A
:100B10007F928F929F92AF92BF92CF92DF92EF928D
:100B2000FF92CF93DF935C01EB01C42ED22E60E0E5
:100B3000842F0E94C50361E08D2D0E94C503E090C3
:100B4000E902F090EA02B701C5010E9463050E9424
:100B500049042B013C012AEF420E511C611C711CFF
:100B60000E9449046415750586059705C8F361E080
:100B70008C2D0E94C50360E08D2D0E94C503B70136
:100B8000CE010E9441050E9449042B013C012AEF3D
:100B9000420E511C611C711C0E94490464157505AC
:100BA00086059705C8F360E08C2D0E94C50361E0BF
:100BB0008D2D0E94C503B701C5010E9463050E94E7
:100BC00049044B015C012AEF820E911CA11CB11C4F
:100BD0000E944904681579058A059B05C8F361E000
:100BE0008C2D0E94C50360E08D2D0E94C503B701C6
:100BF000CE010E9441050E9449046093F302709364
:100C0000F4028093F5029093F6026B017C012AEFC7
:100C1000C20ED11CE11CF11C0E9449046C157D051B
:100C20008E059F05C8F3DF91CF91FF90EF90DF9085
:100C3000CF90BF90AF909F908F907F906F905F907C
:100C40004F900895CF92DF92EF92FF927C01862F12
:100C5000D42E61E00E94C50360E08D2D0E94C50383
:100C60006091ED027091EE02C7010E9441050E9461
:100C700049046093F3027093F4028093F502909319
:100C8000F6026B017C012AEFC20ED11CE11CF11CA3
:100C90000E9449046C157D058E059F05C8F3FF90E1
:100CA000EF90DF90CF900895CF92DF92EF92FF9276
:100CB0007C01862FD42E60E00E94C50361E08D2D5B
:100CC0000E94C5036091F1027091F202C7010E9477
:100CD00063050E9449046093F3027093F4028093C9
:100CE000F5029093F6026B017C012AEFC20ED11C33
:100CF000E11CF11C0E9449046C157D058E059F05C1
:100D0000C8F3FF90EF90DF90CF900895FB01019022
:100D10000020E9F73197AF01461B570B0C94F801FF
:100D20002091D8043091D904232B39F421E0FC011F
:100D30008081882361F020E00AC0BC018091D40446
:100D40009091D5040E944E1121E0892BA1F7822FAA
:100D500008950F931F93CF93DF93EC0188819981BE
:100D6000009759F02A813B812617370730F081E040
:100D7000DF91CF911F910F9108958B016F5F7F4F8E
:100D80000E946410009759F0998388831B830A831B
:100D90002C813D81232B59F7FC011082E8CF80E0A4
:100DA000E7CF1F920F920FB60F9211240BB60F923E
:100DB0002F933F934F935F936F937F938F939F9363
:100DC000AF93BF93EF93FF9389E093E00E94760285
:100DD000FF91EF91BF91AF919F918F917F916F9113
:100DE0005F914F913F912F910F900BBE0F900FBECF
:100DF0000F901F9018951F920F920FB60F9211240B
:100E00000BB60F922F938F939F93EF93FF93E091E5
:100E10001903F0911A038081E0911F03F0912003E0
:100E200082FD1DC09081809122038F5F8F7320917E
:100E30002303821741F0E0912203F0E0E75FFC4FCB
:100E4000958F80932203FF91EF919F918F912F9126
:100E50000F900BBE0F900FBE0F901F9018958081C2
:100E6000F2CF1F920F920FB60F9211240BB60F9272
:100E70002F933F934F935F936F937F938F939F93A2
:100E8000AF93BF93EF93FF9386EA93E00E947602BD
:100E9000FF91EF91BF91AF919F918F917F916F9152
:100EA0005F914F913F912F910F900BBE0F900FBE0E
:100EB0000F901F9018951F920F920FB60F9211244A
:100EC0000BB60F922F938F939F93EF93FF93E09125
:100ED000B603F091B7038081E091BC03F091BD03AC
:100EE00082FD1DC090818091BF038F5F8F73209121
:100EF000C003821741F0E091BF03F0E0EA55FC4FD8
:100F0000958F8093BF03FF91EF919F918F912F91C8
:100F10000F900BBE0F900FBE0F901F901895808101
:100F2000F2CF1F920F920FB60F9211242F933F937F
:100F30008F939F93AF93BF938091DF029091E002D4
:100F4000A091E102B091E2023091DE0223E0230F92
:100F50002D3758F50196A11DB11D2093DE02809317
:100F6000DF029093E002A093E102B093E20280914D
:100F7000E3029091E402A091E502B091E6020196AD
:100F8000A11DB11D8093E3029093E402A093E502BA
:100F9000B093E602BF91AF919F918F913F912F91B6
:100FA0000F900FBE0F901F90189526E8230F029602
:100FB000A11DB11DD2CF1F920F920FB60F92112417
:100FC0000BB60F922F933F934F935F936F937F9343
:100FD0008F939F93AF93BF93EF93FF9348E251E0BA
:100FE00064E271E090E080E00E948704FF91EF915D
:100FF000BF91AF919F918F917F916F915F914F9131
:101000003F912F910F900BBE0F900FBE0F901F902E
:1010100018951F920F920FB60F9211240BB60F92D4
:101020002F933F934F935F936F937F938F939F93F0
:10103000AF93BF93EF93FF9348EA50E064EA70E008
:1010400083E090E00E948704FF91EF91BF91AF9100
:101050009F918F917F916F915F914F913F912F91D0
:101060000F900BBE0F900FBE0F901F9018951F9200
:101070000F920FB60F9211240BB60F922F933F933E
:101080004F935F936F937F938F939F93AF93BF9390
:10109000EF93FF9348E950E064E970E082E090E06C
:1010A0000E948704FF91EF91BF91AF919F918F9123
:1010B0007F916F915F914F913F912F910F900BBE58
:1010C0000F900FBE0F901F9018951F920F920FB6A2
:1010D0000F9211240BB60F922F933F934F935F9370
:1010E0006F937F938F939F93AF93BF93EF93FF93F0
:1010F00048E850E064E870E081E090E00E948704F6
:10110000FF91EF91BF91AF919F918F917F916F91DF
:101110005F914F913F912F910F900BBE0F900FBE9B
:101120000F901F90189510920C0310920B0348EE2D
:1011300053E060E070E040930D0350930E03609322
:101140000F037093100382E692E090930A0380935A
:1011500009032DEC30E030931603209315032CEC9B
:1011600030E0309318032093170328EC30E03093DD
:101170001A032093190329EC30E030931C032093C9
:101180001B032AEC30E030931E0320931D032EEC4A
:1011900030E03093200320931F031092220310921B
:1011A000230310922403109225031092A903109296
:1011B000A8034093AA035093AB036093AC037093CE
:1011C000AD039093A7038093A60385EC90E09093E2
:1011D000B3038093B20384EC90E09093B5038093C3
:1011E000B40380EC90E09093B7038093B60381EC56
:1011F00090E09093B9038093B80382EC90E09093D1
:10120000BB038093BA0386EC90E09093BD03809378
:10121000BC031092BF031092C0031092C10310923E
:10122000C2038091D3048033E8F591E0980F909346
:10123000D3048093DA0490E0FC01EE0FFF1FE80F67
:10124000F91FED5BFB4F88EB9BE09283818310924B
:10125000D5041092D4041092D7041092D6041092A0
:10126000D9041092D80470E060E084ED94E00E940C
:10127000A9062091D4043091D504811117C02115FD
:10128000310519F0C9010E94DB0F1092D5041092AC
:10129000D4041092D9041092D8041092D70410925A
:1012A000D60408958FEF8093DA04D1CF1092D90439
:1012B0001092D80462E772E0C9010C945711CF93E1
:1012C000DF9300D000D01F921F92CDB7DEB7789485
:1012D00084B5826084BD84B5816084BD85B582603B
:1012E00085BD85B5816085BD80916E0081608093EC
:1012F0006E00109281008091810082608093810055
:101300008091810081608093810080918000816064
:10131000809380008091B10084608093B1008091BF
:10132000B00081608093B0008091910082608093D2
:101330009100809191008160809391008091900054
:101340008160809390008091A10082608093A100D1
:101350008091A10081608093A1008091A0008160B4
:101360008093A0008091210182608093210180916F
:10137000210181608093210180912001816080930F
:10138000200180917A00846080937A0080917A00B5
:10139000826080937A0080917A00816080937A00E5
:1013A00080917A00806880937A001092C10086EA6A
:1013B00093E00E946B0189E093E00E946B0116E1CB
:1013C00061E0812F0E94F3031F5F1633C9F712E01B
:1013D00061E0812F0E94F3031F5F1C30C9F760E0BA
:1013E0008DE00E94F30360E084E30E94F30360E079
:1013F00085E30E94F3038091DA04803308F051C042
:1014000061E08CE00E94F3038091DA04282F30E041
:10141000F901EE0FFF1FE20FF31FED5BFB4F908111
:10142000907C9C6090831092DB041092DC04612F0E
:101430000E942B0F819FB001112430E020E0AB010E
:10144000420F531FFA01EE0FFF1FE40FF51FED5B74
:10145000FB4F908196FD17C02F5F3F4F2C30310519
:1014600071F7813009F0A8C01092800082E080936B
:1014700081001092850010928400B19A80916F00D3
:10148000826080936F00E091DA048E2F90E0FC017F
:10149000EE0FFF1FE80FF91FED5BFB4F80818064AB
:1014A000808390E080E00E9492010E9424044B011E
:1014B0005C0198EEC92E93E0D92EE12CF12C0E940C
:1014C0002404681979098A099B09683E73408105DB
:1014D0009105A8F321E0C21AD108E108F10888EECD
:1014E000880E83E0981EA11CB11CC114D104E10434
:1014F000F10429F701E010E083E0C82ED12C8DE043
:101500000E949C03909308038093070384E30E9446
:101510009C03909306038093050385E30E949C033C
:10152000909304038093030386EA93E00E9456029B
:10153000181619060CF085C11A8219821C821B82AA
:101540001E821D8270E060E0CE0101960E94A90615
:1015500029813A8181115CC02115310519F0C90139
:101560000E94DB0F1A8219821E821D821C821B823E
:101570000E94550497FD54C08A30910509F450C06B
:101580008F831886ED80FE808FEFE81AF80AB70186
:10159000CE0101960E94A906882351F329813A8140
:1015A0008D819E81BE01695F7F4F820F931F0E94D4
:1015B0005711FE82ED82DCCF823061F410929000F0
:1015C00080939100109295001092940088BB8093B4
:1015D000710059CF833069F41092A00082E08093AB
:1015E000A1001092A5001092A40089BB8093720004
:1015F0004ACF811148CF1092200182E080932101CF
:1016000010922501109224018ABB809373003BCF76
:101610001E821D8262E772E0C9010E945711A8CFA5
:101620008091D4049091D504009709F4E1C16981B7
:101630007A816115710509F4D9C14091D6045091A0
:10164000D7042D813E814217530708F4CFC10E9471
:1016500057118D819E819093D9048093D8041E8266
:101660001D8289819A81009711F00E94DB0F4091C1
:10167000D8045091D9046091D4047091D50486EABD
:1016800093E00E94F80142E050E060E772E086EAF1
:1016900093E00E94F80183E792E00E94900688237D
:1016A00061F18091010390910203823091052CF544
:1016B0002091FF0230910003232BF9F410930003D3
:1016C0000093FF020196909302038093010310930D
:1016D000FE020093FD026BE772E089E093E00E9456
:1016E000860689E093E00E94E5024FE150E06AE15E
:1016F00070E086E190E00E94540680E892E00E944B
:101700009006882371F18091010390910203823049
:1017100091053CF52091FF0230910003232B09F540
:10172000109300030093FF020196909302038093AD
:10173000010382E090E09093FE028093FD026BE74C
:1017400072E089E093E00E94860689E093E00E94BF
:10175000E5024FE150E06AE170E08EE190E00E9426
:10176000220688E892E00E949006882371F1809119
:10177000010390910203823091053CF52091FF0214
:1017800030910003232B09F5109300030093FF020F
:1017900001969093020380930103D092FE02C092BF
:1017A000FD026BE772E089E093E00E94860689E023
:1017B00093E00E94E5022FE130E04AE150E06EE163
:1017C00070E086E190E00E9485058FE892E00E943B
:1017D0009006882371F062E972E089E093E00E944C
:1017E000860689E093E00E94E5021092FC021092C6
:1017F000FB0288E992E00E949006882371F06BE971
:1018000072E089E093E00E94860689E093E00E94FE
:10181000E5021092FA021092F90281EA92E00E9427
:101820009006882371F064EA72E089E093E00E94F8
:10183000860689E093E00E94E5021092F802109279
:10184000F70290E080E00E9492010E9449046093B8
:10185000F3027093F4028093F5029093F6024B0129
:101860005C012AEF820E911CA11CB11C0E9449044C
:10187000681579058A059B05C8F38091FD02909152
:10188000FE028130910509F01AC12091F1023091D8
:10189000F2022A3031050CF0C2C02F5F3F4F309367
:1018A000F2022093F1024FE150E06AE170E086E13C
:1018B00090E00E9454068091EF029091F00201970F
:1018C000C1F4E090F102F090F2028AE0E816F1042F
:1018D0000CF0B8C149E250E064E270E080E290E0D0
:1018E0000E9454062FEFE21AF20AF092F202E092FE
:1018F000F1028091EB029091EC020197C1F4E0902B
:10190000ED02F090EE028AE0E816F1040CF0CDC191
:1019100043E350E06EE270E082E390E00E94220632
:101920002FEFE21AF20AF092EE02E092ED028091BD
:10193000E7029091E8020197D1F4E090E902F0907B
:10194000EA028AE0E816F1040CF0E2C12BE030E094
:1019500046E050E06AE070E082E090E00E94850599
:101960002FEFE21AF20AF092EA02E092E902809185
:10197000070390910803019771F462E972E089E02E
:1019800093E00E94860689E093E00E94E5021092AF
:10199000FC021092FB0280910503909106030197CF
:1019A00071F46BE972E089E093E00E94860689E0B9
:1019B00093E00E94E5021092FA021092F9028091DF
:1019C000030390910403019771F464EA72E089E0E3
:1019D00093E00E94860689E093E00E94E50210925F
:1019E000F8021092F7020E94080389CD0E94DB0FD3
:1019F00089819A819093D5048093D4048B819C81B2
:101A00009093D7048093D6048D819E819093D904BE
:101A10008093D8041A8219821C821B8220CE1092D5
:101A2000F2021092F1021092FE021092FD02109248
:101A300000031092FF029093F0028093EF026AEA93
:101A400072E089E093E00E94860689E093E00E94BC
:101A5000E50261E08AE10E94C5038FE390E00E9405
:101A600092016FEA72E086EA93E00E94860686EAB7
:101A700093E00E94E5020E9449046093F302709390
:101A8000F4028093F5029093F6024B015C0128EE7C
:101A9000820E23E0921EA11CB11C0E94490468150D
:101AA00079058A059B05C8F362EB72E089E093E053
:101AB0000E94860689E093E00E94E502FCCE823017
:101AC000910509F05DC08091ED029091EE028A309F
:101AD000910574F401969093EE028093ED024FE12C
:101AE00050E06AE170E08EE190E00E942206E3CED1
:101AF0001092EE021092ED021092FE021092FD0280
:101B0000109200031092FF021093EC020093EB027C
:101B10006AEA72E089E093E00E94860689E093E039
:101B20000E94E50261E08FE10E94C5038AE590E032
:101B30000E9492016FEA72E086EA93E00E948606B4
:101B400086EA93E00E94E5020E9449046093F30252
:101B50007093F4028093F5029093F6024B015C01BE
:101B600028EE820E23E0921EA11CB11C0E944904A3
:101B7000681579058A059B05C8F367EB72E096CF77
:101B8000039709F098CE8091E9029091EA028A3099
:101B9000910584F401969093EA028093E9022FE183
:101BA00030E04AE150E06EE170E086E190E00E94B2
:101BB000850581CE1092EA021092E9021092FE028F
:101BC0001092FD02109200031092FF021093E8029F
:101BD0000093E7026AEA72E089E093E00E948606D9
:101BE00089E093E00E94E50261E08FE10E94C50375
:101BF00087E890E00E9492016FEA72E086EA93E043
:101C00000E94860686EA93E00E94E5020E9449044B
:101C10006093F3027093F4028093F5029093F602BE
:101C20004B015C0128EE820E23E0921EA11CB11C28
:101C30000E944904681579058A059B05C8F36CEB79
:101C400072E034CF1092F2021092F1021092F00280
:101C50001092EF02809101039091020301979093FB
:101C60000203809301038091FB029091FC02019694
:101C70009093FC028093FB0261E084E20E94C50322
:101C800061EC72E089E093E00E94860689E093E0CF
:101C90000E94E50266EC72E086EA93E00E94860606
:101CA00086EA93E00E94E50224CE1092EE021092A2
:101CB000ED021092EC021092EB02809101039091E0
:101CC0000203019790930203809301038091F9022C
:101CD0009091FA0201969093FA028093F90261E0E2
:101CE00083E30E94C50369EC72E089E093E00E94FF
:101CF000860689E093E00E94E5026EEC72E086EAD7
:101D000093E00E94860686EA93E00E94E5020FCEE9
:101D10001092EA021092E9021092E8021092E70291
:101D200080910103909102030197909302038093A5
:101D300001038091F7029091F80201969093F802C6
:101D40008093F70261E08BE00E94C50361E086E0CA
:101D50000E94C50361ED72E089E093E00E9486066F
:101D600089E093E00E94E50266ED72E086EA93E086
:101D70000E94860686EA93E00E94E502F8CD8091F3
:101D8000D4049091D504009711F00C94DB0F0895C2
:101D9000052E97FB1EF400940E94DF0E57FD07D01E
:101DA0000E94FA0E07FC03D04EF40C94DF0E5095FF
:101DB0004095309521953F4F4F4F5F4F0895909537
:101DC0008095709561957F4F8F4F9F4F08950E942A
:101DD0001C0FA59F900DB49F900DA49F800D911D89
:101DE00011240895B7FF0C94E70E0E94E70E821BA2
:101DF000930B0895A1E21A2EAA1BBB1BFD010DC077
:101E0000AA1FBB1FEE1FFF1FA217B307E407F507AA
:101E100020F0A21BB30BE40BF50B661F771F881F86
:101E2000991F1A9469F760957095809590959B011C
:101E3000AC01BD01CF010895A29FB001B39FC001C5
:101E4000A39F700D811D1124911DB29F700D811DE6
:101E50001124911D0895991B79E004C0991F9617CC
:101E600008F0961B881F7A95C9F780950895EE0FA4
:101E7000FF1F881F8BBF0790F691E02D19940F93D9
:101E80001F93CF93DF938230910510F482E090E0AE
:101E9000E091DF04F091E00430E020E0B0E0A0E069
:101EA000309799F42115310509F44AC0281B390BE4
:101EB00024303105D8F58A819B816115710589F13E
:101EC000FB0193838283FE0111C040815181028115
:101ED000138148175907E0F04817590799F41097EC
:101EE00061F012960C93129713961C933296CF01C1
:101EF000DF91CF911F910F9108950093DF0410930C
:101F0000E004F4CF2115310551F04217530738F0A2
:101F1000A901DB019A01BD01DF01F801C1CFEF0189
:101F2000F9CF9093E0048093DF04CDCFFE01E20F60
:101F3000F31F819391932250310939832883D7CF9E
:101F40002091DD043091DE04232B41F42091020224
:101F5000309103023093DE042093DD0420910002CF
:101F6000309101022115310541F42DB73EB7409162
:101F7000040250910502241B350BE091DD04F09121
:101F8000DE04E217F307A0F42E1B3F0B28173907D6
:101F900078F0AC014E5F5F4F2417350748F04E0FC5
:101FA0005F1F5093DE044093DD04819391939FCF94
:101FB000F0E0E0E09CCFCF93DF930097E9F0FC01E5
:101FC000329713821282A091DF04B091E004ED01F8
:101FD00030E020E01097A1F420813181820F931F1F
:101FE0002091DD043091DE042817390709F061C023
:101FF000F093DE04E093DD04DF91CF910895EA01D0
:10200000CE17DF07E8F54A815B819E014115510536
:10201000B1F7E901FB83EA8349915991C40FD51FB8
:10202000EC17FD0761F4808191810296840F951F62
:10203000E90199838883828193819B838A83F0E07D
:10204000E0E012968D919C9113970097B9F52D9130
:102050003C911197CD010296820F931F2091DD04D0
:102060003091DE042817390739F6309751F5109270
:10207000E0041092DF04B093DE04A093DD04BCCF33
:10208000D383C28340815181840F951FC817D9071C
:1020900061F44E5F5F4F88819981480F591F5183CA
:1020A00040838A819B81938382832115310509F0C6
:1020B000B0CFF093E004E093DF049ECFFD01DC019C
:1020C000C0CF13821282D7CF4F925F926F927F92CE
:1020D0008F929F92AF92BF92CF92DF92EF92FF9238
:1020E0000F931F93CF93DF938C01009799F4CB014B
:1020F000DF91CF911F910F91FF90EF90DF90CF90E4
:10210000BF90AF909F908F907F906F905F904F9017
:102110000C943F0FFC01E60FF71F9C012250310980
:10212000E217F30708F4AEC0D901CD91DC91119705
:10213000C617D70720F1C530D10578F0CE01049736
:102140008617970750F0C61BD70B2297C193D193E0
:102150006D937C93CF010E94DB0FC801DF91CF917B
:102160001F910F91FF90EF90DF90CF90BF90AF90B5
:102170009F908F907F906F905F904F9008955B013C
:10218000AC1ABD0A4C018C0E9D1EA091DF04B091CB
:10219000E004512C412CF12CE12C109731F5809169
:1021A000DD049091DE048815990509F05CC046169F
:1021B000570608F058C080910002909101020097E4
:1021C00041F48DB79EB74091040250910502841BE3
:1021D000950BE817F90708F055C0F093DE04E0937B
:1021E000DD04F90171836083B8CF8D919C911197C3
:1021F00012966C90129713967C901397A815B905B8
:1022000059F56C0142E0C40ED11CCA14DB0420F164
:10221000AC014A195B09DA011296159780F06282C7
:10222000738251834083D9016D937C93E114F1044F
:1022300071F0D7011396FC93EE9312978ECF2296EE
:102240008C0F9D1FF90191838083F301EFCFF093F1
:10225000E004E093DF0481CF4816590608F42C010E
:102260007D01D3019ACFCB010E943F0F7C010097E3
:1022700049F0AE01B8010E944511C8010E94DB0F70
:1022800087016BCF10E000E068CFFB01DC0102C0EA
:1022900001900D9241505040D8F70895FB01DC01A8
:1022A0008D91019080190110D9F3990B0895FB01CC
:1022B000DC0101900D920020E1F7089511E0C7E3E1
:1022C000D1E000E006C0802FFE010E94370F21966A
:1022D000011DC833D10780E00807A9F7F894FFCFA4
:1022E0000000E10480000000000000000000000089
:1022F00000000000010000000000010000000000DC
:1023000000000100010000000100000000000000CA
:1023100001000000010000000100010000000000B9
:1023200001000100010001000000000000000100A8
:10233000000000000100010000000100000000009A
:1023400000009802F8012502E80256023402480211
:102350000D0A0070657175656E6F00656E63310002
:102360006D656469616E6F006772616E64650062BD
:10237000310062757A7A310062320062757A7A329F
:102380000062330062757A7A330061706131006FE8
:102390006B00656E633200656E633300656E633497
:1023A0000061706132007070006170613300706DA7
:0A23B00000617061340070670000E6
:020000040003F7
:10E000000D9489F10D94B2F10D94B2F10D94B2F129
:10E010000D94B2F10D94B2F10D94B2F10D94B2F1F0
:10E020000D94B2F10D94B2F10D94B2F10D94B2F1E0
:10E030000D94B2F10D94B2F10D94B2F10D94B2F1D0
:10E040000D94B2F10D94B2F10D94B2F10D94B2F1C0
:10E050000D94B2F10D94B2F10D94B2F10D94B2F1B0
:10E060000D94B2F10D94B2F10D94B2F10D94B2F1A0
:10E070000D94B2F10D94B2F10D94B2F10D94B2F190
:10E080000D94B2F10D94B2F10D94B2F10D94B2F180
:10E090000D94B2F10D94B2F10D94B2F10D94B2F170
:10E0A0000D94B2F10D94B2F10D94B2F10D94B2F160
:10E0B0000D94B2F10D94B2F10D94B2F10D94B2F150
:10E0C0000D94B2F10D94B2F10D94B2F10D94B2F140
:10E0D0000D94B2F10D94B2F10D94B2F10D94B2F130
:10E0E0000D94B2F141546D656761323536300041AF
:10E0F000726475696E6F206578706C6F72657220DE
:10E1000073746B3530305632206279204D4C530099
:10E11000426F6F746C6F616465723E004875683F52
:10E1200000436F6D70696C6564206F6E203D200048
:10E130004350552054797065202020203D20005FF9
:10E140005F4156525F415243485F5F3D2000415658
:10E1500052204C696243205665723D20004743437C
:10E160002056657273696F6E203D20004350552024
:10E1700049442020202020203D20004C6F7720663D
:10E18000757365202020203D20004869676820665F
:10E190007573652020203D200045787420667573D6
:10E1A00065202020203D20004C6F636B2066757336
:10E1B000652020203D20004D617220203720323024
:10E1C000313300312E362E3800342E332E350056A2
:10E1D00023202020414444522020206F7020636F70
:10E1E00064652020202020696E73747275637469E1
:10E1F0006F6E2061646472202020496E74657272B3
:10E20000757074006E6F20766563746F7200726A49
:10E210006D702020006A6D70200057686174207056
:10E220006F72743A00506F7274206E6F7420737541
:10E2300070706F72746564004D7573742062652030
:10E2400061206C6574746572002000577269747483
:10E25000696E672045450052656164696E672045B7
:10E26000450045452065727220636E743D00504F35
:10E27000525400303D5A65726F2061646472003FF1
:10E280003D43505520737461747300403D454550C3
:10E29000524F4D207465737400423D426C696E6B41
:10E2A000204C454400453D44756D70204545505215
:10E2B0004F4D00463D44756D7020464C415348001B
:10E2C000483D48656C70004C3D4C69737420492F83
:10E2D0004F20506F72747300513D51756974005234
:10E2E0003D44756D702052414D00563D73686F7707
:10E2F00020696E7465727275707420566563746FF0
:10E30000727300593D506F727420626C696E6B00BD
:10E310002A0011241FBECFEFD1E2DEBFCDBF01E046
:10E320000CBF12E0A0E0B2E0EEE1FDEF03E00BBFB6
:10E3300002C007900D92A030B107D9F712E0A0E01B
:10E34000B2E001C01D92AE30B107E1F70F9460F367
:10E350000D948DFE01E20EBF0FEF0DBF11241FBE05
:10E360000D9460F30D9400F020E030E040ED57E0B4
:10E3700005C0FA013197F1F72F5F3F4F2817390792
:10E38000C0F308959C01260F311DC901A0E0B0E043
:10E390002F5F3F4FABBFFC018791882361F08093D3
:10E3A000C6008091C00086FFFCCF8091C0008064D1
:10E3B0008093C000EACF08958DE08093C6008091DD
:10E3C000C00086FFFCCF8091C00080648093C000B5
:10E3D0008AE08093C6008091C00086FFFCCF8091C8
:10E3E000C00080648093C00008950F94C2F10F9420
:10E3F000DCF10895FC019081992359F09093C600B7
:10E400008091C00086FFFCCF8091C0008064809323
:10E41000C0003196992379F70895282F982F929567
:10E420009F70892F805D8A3308F0895F8093C600D2
:10E430008091C00086FFFCCF8091C00080648093F3
:10E44000C000822F8F70982F905D9A3308F0995FEB
:10E450009093C6008091C00086FFFCCF8091C000E1
:10E4600080648093C00008959C01FB01853691056E
:10E470001CF46330710594F0C90164E670E00F94F8
:10E480002EFE605D7F4F6093C6008091C00086FFC6
:10E49000FCCF8091C00080648093C0002B30310598
:10E4A00014F43297B4F0C90164E670E00F942EFEC4
:10E4B0006AE070E00F942EFE605D7F4F6093C600AF
:10E4C0008091C00086FFFCCF8091C0008064809363
:10E4D000C000C9016AE070E00F942EFEC0968093E0
:10E4E000C6008091C00086FFFCCF8091C000806490
:10E4F0008093C00008951F93182F8EE692EE60E07F
:10E500000F94C2F11093C6008091C00086FFFCCF2B
:10E510008091C00080648093C0000F94DCF11F9153
:10E5200008952F923F924F925F926F927F928F92B7
:10E530009F92AF92BF92CF92DF92EF92FF920F9392
:10E540001F93DF93CF93CDB7DEB762970FB6F894E2
:10E55000DEBF0FBECDBF382E622ECA01DB015C01CB
:10E560006D01772420E2222E2E010894411C511CBB
:10E570008BC081E0A81680E0B80681E0C80680E084
:10E58000D80628F0C601AA27BB270F940DF2BB2797
:10E59000AD2D9C2D8B2D0F940DF28A2D0F940DF225
:10E5A0002092C6008091C00086FFFCCF8091C00001
:10E5B00080648093C0009DE29093C6008091C0006B
:10E5C00086FFFCCF8091C00080648093C0002092C1
:10E5D000C6008091C00086FFFCCF8091C00080649F
:10E5E0008093C00019828601750188249924A1E0D6
:10E5F0003A1651F03A1620F0B2E03B1661F409C029
:10E600000BBFF701779007C0C7010F9477FE782EF4
:10E6100002C0F7017080872D0F940DF22092C60082
:10E620008091C00086FFFCCF8091C0008064809301
:10E63000C000872D8052F401EF70F0708F3520F408
:10E64000E40DF51D708204C0E40DF51D8EE280839B
:10E650000894E11CF11C011D111D0894811C911CE2
:10E6600090E18916910409F0C2CF80E190E0A0E02A
:10E67000B0E0A80EB91ECA1EDB1E198AC2010F9493
:10E68000FAF10F94DCF16A94662009F072CF629679
:10E690000FB6F894DEBF0FBECDBFCF91DF911F91B3
:10E6A0000F91FF90EF90DF90CF90BF90AF909F9031
:10E6B0008F907F906F905F904F903F902F90089534
:10E6C0002F923F924F925F926F927F928F929F9282
:10E6D000AF92BF92CF92DF92EF92FF920F931F9370
:10E6E000DF93CF93CDB7DEB7CD53D1400FB6F894BB
:10E6F000DEBF0FBECDBF01E20EBF0FEF0DBF94B75F
:10E70000F894A89514BE80916000886180936000A1
:10E7100010926000789493FF05C0E0910002F091A0
:10E7200001021995279A2F9A8091C00082608093E8
:10E73000C00080E18093C40088E18093C1000000A4
:10E74000EE24FF24870144E0A42EB12CCC24DD2448
:10E7500024C0C5010197F1F70894E11CF11C011DCB
:10E76000111D21E2E2162EE4F20620E0020720E06D
:10E77000120718F031E0C32ED12CC801B70127ECE5
:10E780003BE140E050E00F9441FE611571058105C9
:10E79000910519F485B1805885B98091C00087FD35
:10E7A00003C0C114D104A9F2A6014F5F5F4FC25E3E
:10E7B000DE4F59834883CE51D140C25EDE4F8881FF
:10E7C0009981CE51D140019711F00D9410FEC05D9A
:10E7D000DE4F19821882C053D14060E0C15DDE4F28
:10E7E0001882CF52D14088249924C35DDE4F19820C
:10E7F0001882CD52D140C05EDE4F188219821A8233
:10E800001B82C052D140CE5CDE4F188219821A8220
:10E810001B82C253D140EE24FF2487010BBFF701B6
:10E8200007911691C45CDE4F19830883CC53D14005
:10E830000D940BFEC25EDE4F28813981CE51D1404E
:10E840002130310509F52091C600C25EDE4F1982E4
:10E850001882CE51D14022C02F5F3F4F4F4F5F4FA4
:10E86000213082E138078AE7480780E0580780F0C6
:10E87000C45CDE4FE881F981CC53D140EF5FFF4F9C
:10E8800019F0EE27FF27099420E030E040E050E047
:10E890008091C00087FFE0CF2091C600C35DDE4FAE
:10E8A00048815981CD52D1404F5F5F4FC35DDE4FEC
:10E8B00059834883CD52D140213209F063C64A3092
:10E8C000510508F05FC60894811C911C53E0851621
:10E8D000910409F059C600E010E018C081E280936D
:10E8E000C6008091C00086FFFCCF8091C00080648C
:10E8F0008093C0002F5F3F4F2931310579F70F9486
:10E90000DCF10F5F1F4F0530110519F020E030E0FA
:10E91000E5CF10920A0210920B0210920C02109294
:10E920000D02109206021092070210920802109235
:10E930000902109202021092030210920402109235
:10E9400005028FEE90EE60E00F94F5F180E191EE1C
:10E9500060E00F94C2F18091C00087FFFCCF9091DE
:10E96000C600903608F09F759032B8F09093C600BC
:10E970008091C00086FFFCCF8091C00080648093AE
:10E98000C000A0E2A093C6008091C00086FFFCCF2B
:10E990008091C00080648093C000983409F4D7C18E
:10E9A0009934B8F4923409F459C1933458F490333B
:10E9B00019F1903308F4E3C59F33A1F1903409F0C5
:10E9C000DEC5BDC0953409F470C1963409F0D7C5D1
:10E9D00098C1923509F42BC2933538F49C3409F46C
:10E9E000F5C1913509F0CBC518C2963509F445C279
:10E9F000993509F0C4C567C483E792EE62E00F94CD
:10EA0000F5F110920602109207021092080210927D
:10EA1000090210920A0210920B0210920C0210923C
:10EA20000D0213C18FE792EE62E00F94F5F18FEEC5
:10EA300090EE60E00F94F5F181E291EE60E00F94CA
:10EA4000C2F187EB91EE60E00F94F5F180E391EE77
:10EA500060E00F94C2F184EE90EE60E00F94F5F167
:10EA60008FE391EE60E00F94C2F186E090E061E008
:10EA700070E00F9434F20F94DCF18DE591EE60E0DC
:10EA80000F94C2F189EC91EE60E00F94F5F18EE401
:10EA900091EE60E00F94C2F183EC91EE60E00F9490
:10EAA000F5F18CE691EE60E00F94C2F18EE10F94E7
:10EAB0000DF288E90F940DF281E00F940DF20F949E
:10EAC000DCF18BE791EE60E00F94C2F119E0E0E039
:10EAD000F0E010935700E4918E2F0F940DF20F94F5
:10EAE000DCF18AE891EE60E00F94C2F1E3E0F0E03F
:10EAF00010935700E4918E2F0F940DF20F94DCF1D8
:10EB000089E991EE60E00F94C2F1E2E0F0E0109349
:10EB10005700E4918E2F0F940DF20F94DCF188EAE8
:10EB200091EE60E00F94C2F1E1E0F0E01093570045
:10EB30001491812F0F940DF20F94DCF107CF8BE825
:10EB400092EE62E00F94F5F18BE492EE60E00F94A8
:10EB5000F5F10F94DCF100E010E019C0C8016F2D51
:10EB60000F947FFEFF2031F489E492EE60E00F9471
:10EB7000C2F10BC0F092C6008091C00086FFFCCFAE
:10EB80008091C00080648093C0000F5F1F4FC80158
:10EB900081519F41A0E0B0E0ABBFFC01F790BAE229
:10EBA000FB1621F0E2E000301E07C1F60F94DCF105
:10EBB0000F94DCF187E592EE60E00F94F5F10F948D
:10EBC000DCF1CC24DD2400E010E01EC0C8010F946D
:10EBD00077FEF82E882331F489E492EE60E00F94FA
:10EBE000C2F10BC08093C6008091C00086FFFCCFAD
:10EBF0008091C00080648093C000FE1419F00894D6
:10EC0000C11CD11C0F5F1F4FC80181519F41A0E063
:10EC1000B0E0ABBFFC01E790FAE2EF1621F022E092
:10EC20000030120799F60F94DCF10F94DCF182E6C4
:10EC300092EE60E00F94C2F1C60161E070E00F94C3
:10EC400034F20F94DCF10F94DCF110920202109276
:10EC50000302109204021092050278CE89E992EE26
:10EC600062E00F94F5F1279A2F9A16C02F9880E052
:10EC700090E0E0EDF7E03197F1F7019684369105E9
:10EC8000C1F72F9A80E090E0E0EDF7E03197F1F7DF
:10EC9000019684369105C1F78091C00087FFE6CFC9
:10ECA0008091C00087FFFCCF64C485EA92EE62E0E9
:10ECB0000F94F5F140910202509103026091040219
:10ECC0007091050281E020E10F9491F2809102029F
:10ECD00090910302A0910402B091050280509F4FD1
:10ECE000AF4FBF4F8093020290930302A0930402A0
:10ECF000B093050280509041A040B04008F426CE69
:10ED0000A4CF83EB92EE62E00F94F5F140910602FE
:10ED100050910702609108027091090280E020E1A1
:10ED20000F9491F28091060290910702A09108023F
:10ED3000B091090280509F4FAF4FBF4F80930602A2
:10ED400090930702A0930802B0930902FFCD80ECD4
:10ED500092EE62E00F94F5F183E792EE60E00F949B
:10ED6000F5F18FE792EE60E00F94F5F18BE892EE0B
:10ED700060E00F94F5F189E992EE60E00F94F5F10F
:10ED800085EA92EE60E00F94F5F183EB92EE60E09D
:10ED90000F94F5F180EC92EE60E00F94F5F187ECC2
:10EDA00092EE60E00F94F5F188ED92EE60E00F9442
:10EDB000F5F18FED92EE60E00F94F5F18AEE92EEB0
:10EDC00060E00F94F5F183E093EEBDCD87EC92EE19
:10EDD00062E00F94F5F181E40F947BF282E40F94EA
:10EDE0007BF283E40F947BF284E40F947BF285E45E
:10EDF0000F947BF286E40F947BF287E40F947BF20E
:10EE000088E40F947BF28AE40F947BF28BE40F94F6
:10EE10007BF28CE40F947BF299CD88ED92EE62E068
:10EE20000F94F5F1772473948824992409C48FED05
:10EE300092EE62E00F94F5F140910A0250910B02BC
:10EE400060910C0270910D0282E020E10F9491F22A
:10EE500080910A0290910B02A0910C02B0910D02D8
:10EE600080509F4FAF4FBF4F80930A0290930B0289
:10EE7000A0930C02B0930D0269CD8AEE92EE62E08F
:10EE80000F94F5F184EE90EE60E00F94F5F18FECC5
:10EE900091EE60E00F94F5F1662477244301CC5D98
:10EEA000DE4F19821882C452D140D401C301B695F5
:10EEB000A79597958795CA5DDE4F88839983AA8326
:10EEC000BB83C652D140CC5DDE4FA881B981C4520C
:10EED000D1401196CC5DDE4FB983A883C452D14096
:10EEE000CD0162E070E00F9434F2B0E2B093C6005E
:10EEF0008091C00086FFFCCF8091C0008064809329
:10EF0000C000EDE2E093C6008091C00086FFFCCF18
:10EF10008091C00080648093C000F0E2F093C6004E
:10EF20008091C00086FFFCCF8091C00080648093F8
:10EF3000C000CA5DDE4FE880F9800A811B81C6529D
:10EF4000D140BB27A12F902F8F2D0F940DF2CA5DBA
:10EF5000DE4F8881C652D1400F940DF2B0E2FB2EF5
:10EF6000F092C6008091C00086FFFCCF8091C00067
:10EF700080648093C0000DE30093C6008091C000C0
:10EF800086FFFCCF8091C00080648093C00010E2B7
:10EF90001093C6008091C00086FFFCCF8091C00016
:10EFA00080648093C0008BBEF3012791C65DDE4F65
:10EFB0002883CA52D140A22EBB24CC24DD2408943D
:10EFC000611C711C811C911C8BBEF3018791282E42
:10EFD0003324442455240894611C711C811C911C09
:10EFE0008BBEF3013791C55DDE4F3883CB52D140E4
:10EFF0000894611C711C811C911C8BBEF30147910C
:10F00000C45DDE4F4883CC52D140ADEFEA2EAFEF66
:10F01000FA2EAFEF0A2FAFEF1A2F6E0C7F1C801E57
:10F02000911E142D032DF22CEE24EA0CFB1C0C1D5A
:10F030001D1D0F940DF220E22093C6008091C000A8
:10F0400086FFFCCF8091C00080648093C000C65DC5
:10F05000DE4F8881CA52D1400F940DF230E23093D6
:10F06000C6008091C00086FFFCCF8091C000806404
:10F070008093C000C45DDE4F8881CC52D1400F9494
:10F080000DF240E24093C6008091C00086FFFCCFA5
:10F090008091C00080648093C000C55DDE4F888190
:10F0A000CB52D1400F940DF250E25093C6008091A4
:10F0B000C00086FFFCCF8091C00080648093C000B8
:10F0C0008FEFE8168FEFF80680E0080780E018075A
:10F0D00031F484E092EE60E00F94C2F1DFC0D80119
:10F0E000C7018070907CA070B0708050904CA040A0
:10F0F000B040D1F52FEF3FE340E050E0E222F322B1
:10F1000004231523CA5DDE4FA880B980CA80DB8046
:10F11000C652D140AE0CBF1CC01ED11EAA0CBB1CD7
:10F12000CC1CDD1C8EE092EE60E00F94C2F1BB2798
:10F13000A12F902F8F2D0F940DF28E2D0F940DF285
:10F1400030E23093C6008091C00086FFFCCF8091F2
:10F15000C00080648093C0004EE34093C60080915D
:10F16000C00086FFFCCF87C08EE09EEFA0E0B0E03D
:10F17000E822F9220A231B239CE0E91694E9F90608
:10F1800090E0090790E0190709F088C0C45DDE4FE0
:10F19000A881CC52D140EA2EFF2400E010E0102FCD
:10F1A0000F2DFE2CEE24C55DDE4FB881CB52D14031
:10F1B000EB0EF11C011D111DD601C501817090706F
:10F1C000A070B070DC0199278827E80EF91E0A1F8D
:10F1D0001B1F20EF30E040E050E0A222B322C42207
:10F1E000D52241E1AA0CBB1CCC1CDD1C4A95D1F7F1
:10F1F000EA0CFB1C0C1D1D1D81E090E0A0E0B0E0BE
:10F20000282239224A225B2235E1220C331C441C7D
:10F21000551C3A95D1F7E20CF31C041D151D57013E
:10F220006801AA0CBB1CCC1CDD1C85E192EE60E0E1
:10F230000F94C2F1C801AA27BB270F940DF2BB2778
:10F24000A12F902F8F2D0F940DF28E2D0F940DF274
:10F2500090E29093C6008091C00086FFFCCF809121
:10F26000C00080648093C000AEE3A093C60080918C
:10F27000C00086FFFCCF8091C00080648093C000F6
:10F28000C601AA27BB270F940DF2BB27AD2D9C2DDD
:10F290008B2D0F940DF28A2D0F940DF20F94DCF14B
:10F2A000CC5DDE4FE881F981C452D140F99709F471
:10F2B0004DCBF4E0EF2EF12C012D112D6E0C7F1CA7
:10F2C000801E911EF2CD83E093EE62E00F94F5F183
:10F2D0008AE192EE60E00F94C2F18091C00087FF56
:10F2E000FCCF1091C6001F751093C6008091C0001E
:10F2F00086FFFCCF8091C00080648093C0000F9493
:10F30000DCF1812F81548A3108F036C1163409F4BA
:10F3100095C0173490F4133409F44EC0143430F40B
:10F320001134F1F0123409F01DC130C0143409F465
:10F3300059C0153409F016C16BC01A3409F4C4C0A1
:10F340001B3438F4173409F48FC0183409F00AC19B
:10F35000A1C01B3409F4D2C01C3409F003C1E8C0B9
:10F360008FEF81B90DC082B1809582B980E090E0C5
:10F37000E0EDF7E03197F1F70196883C9105C1F790
:10F380008091C00087FFEFCF12B8EFC08FEF84B934
:10F390000DC085B1809585B980E090E0E0EDF7E0A3
:10F3A0003197F1F70196883C9105C1F78091C00033
:10F3B00087FFEFCF15B8D9C08FEF87B90DC088B1DF
:10F3C000809588B980E090E0E0EDF7E03197F1F7C3
:10F3D0000196883C9105C1F78091C00087FFEFCF6F
:10F3E00018B8C3C08FEF8AB90DC08BB180958BB9A7
:10F3F00080E090E0E0EDF7E03197F1F70196883C8E
:10F400009105C1F78091C00087FFEFCF1BB8ADC059
:10F410008FEF8DB90DC08EB180958EB980E090E0F0
:10F42000E0EDF7E03197F1F70196883C9105C1F7DF
:10F430008091C00087FFEFCF1EB897C08FEF80BBD1
:10F440000DC081B3809581BB80E090E0E0EDF7E0F6
:10F450003197F1F70196883C9105C1F78091C00082
:10F4600087FFEFCF11BA81C08FEF83BB0DC084B38C
:10F47000809584BB80E090E0E0EDF7E03197F1F714
:10F480000196883C9105C1F78091C00087FFEFCFBE
:10F4900014BA6BC08FEF809301010FC080910201FD
:10F4A00080958093020180E090E0E0EDF7E03197F5
:10F4B000F1F70196883C9105C1F78091C00087FF64
:10F4C000EDCF1092020151C08FEF809304010FC065
:10F4D0008091050180958093050180E090E0E0ED4A
:10F4E000F7E03197F1F70196883C9105C1F78091DB
:10F4F000C00087FFEDCF1092050137C08FEF8093DA
:10F5000007010FC08091080180958093080180E079
:10F5100090E0E0EDF7E03197F1F70196883C910536
:10F52000C1F78091C00087FFEDCF109208011DC088
:10F530008FEF80930A010FC080910B01809580931B
:10F540000B0180E090E0E0EDF7E03197F1F70196F4
:10F55000883C9105C1F78091C00087FFEDCF1092E4
:10F560000B0103C085E292EEEEC98091C00087FFD7
:10F57000FCCF8091C600EAC988E392EEE4C98CE131
:10F5800091EEE1C988249924933011F1943028F444
:10F59000913089F09230B8F408C0953061F195301F
:10F5A000F0F0963009F048C043C02B3109F042C951
:10F5B00091E06BE13FC96227C15DDE4F2883CF52E6
:10F5C000D14092E037C9B22FA0E0622793E032C960
:10F5D000822F90E0A82BB92B622794E02BC92E3004
:10F5E00009F039C3622795E0C05DDE4F19821882A9
:10F5F000C053D1401FC9E1E0F0E0EC0FFD1FC05D3A
:10F60000DE4F08811981C053D140E00FF11F2083E4
:10F610000F5F1F4FC05DDE4F19830883C053D14079
:10F6200062270A171B0709F005C9D80196E002C92D
:10F63000261709F010C303C0973009F0FBC87724E0
:10F640009981933109F412C19431C8F4963009F4C8
:10F65000D8C0973050F4923009F406C1933009F4C1
:10F660006DC0913009F059C253C0913109F477C08F
:10F67000923108F0BBC0903109F04FC2F5C098310B
:10F6800009F487C0993150F4953109F4EFC09531F0
:10F6900008F4C6C1963109F040C2C2C19A3109F4DA
:10F6A0006CC09A3108F491C09B3109F45BC09D3164
:10F6B00009F033C29D81903359F48F81882311F46E
:10F6C0009EE11CC0813011F091E018C098E916C08D
:10F6D000892F807591F0903539F4E0E0F0E089E011
:10F6E0008093570094910AC0983539F4E3E0F0E034
:10F6F00089E080935700949101C090E01A821B82A8
:10F700008D818C831D829E831F8227E030E009C299
:10F710001A8288E08B8381E48C8386E58D8382E581
:10F720008E8389E48F8383E5888780E589878FE5E9
:10F730008A8782E38B872BE030E0F3C18A818139AD
:10F7400041F0823941F0803911F48FE005C080E04A
:10F7500003C082E001C08AE01A828B8344C0772410
:10F76000739482C08D81882311F48EE12CC0813086
:10F7700011F081E028C088E926C01A82E1E0F0E0BB
:10F7800089E08093570084918B831C8224E030E0D1
:10F79000C8C18B81803589F48C81883039F4E2E0EE
:10F7A000F0E089E08093570084910DC0E0E0F0E044
:10F7B00089E080935700849106C0E3E0F0E089E09F
:10F7C0008093570084911A82DFCF8D81836C99E0FA
:10F7D000E1E0F0E0082E90935700E89507B600FCB2
:10F7E000FDCF1A821B8223E030E09BC180EC8A832C
:10F7F000CE5CDE4F188219821A821B82C253D1401E
:10F800008EC18A8190E0A0E0B0E0582F44273327D2
:10F8100022278B8190E0A0E0B0E0DC0199278827C7
:10F82000282B392B4A2B5B2B8D8190E0A0E0B0E098
:10F83000282B392B4A2B5B2B8C8190E0A0E0B0E089
:10F84000BA2FA92F982F8827282B392B4A2B5B2BCF
:10F85000220F331F441F551FC05EDE4F288339839C
:10F860004A835B83C052D1401A8259C13A81C95C34
:10F87000DE4F3883C753D140CA5CDE4F1882C6536F
:10F88000D1408B81C82EDD24CA5CDE4F488159816E
:10F89000C653D140C42AD52A933109F082C0CE5C28
:10F8A000DE4F88819981AA81BB81C253D1408050AB
:10F8B000904CA340B04030F583E0CE5CDE4FE88052
:10F8C000F9800A811B81C253D140F70100935B008C
:10F8D00080935700E89507B600FCFDCFCE5CDE4F65
:10F8E000088119812A813B81C253D14000501F4FAA
:10F8F0002F4F3F4FCE5CDE4F088319832A833B8313
:10F90000C253D140C05EDE4F488159816A817B81FC
:10F91000C052D140DE011B9631E08C9111962C91A2
:10F9200011971296C75CDE4F2883C953D140C85C3B
:10F93000DE4F1882C853D14090E0C85CDE4FE881AA
:10F94000F981C853D1408E2B9F2B0C01FA01609393
:10F950005B0030935700E89511244E5F5F4F6F4F67
:10F960007F4F0EEFE02E0FEFF02ECE0CDF1CC114F8
:10F97000D10499F685E0C05EDE4F088119812A81A5
:10F980003B81C052D140F80120935B008093570027
:10F99000E89507B600FCFDCF81E180935700E8951C
:10F9A00035C0C05EDE4F88819981AA81BB81C0527B
:10F9B000D140B695A795979587957C018601ABE0D8
:10F9C000AA2EB12CAC0EBD1E0BC0D5016D915D01F0
:10F9D000C7010F947FFE0894E11CF11C01501040F8
:10F9E0000115110591F7A60160E070E0440F551F65
:10F9F000661F771FC05EDE4FE880F9800A811B8199
:10FA0000C052D1404E0D5F1D601F711F1A82C05E33
:10FA1000DE4F488359836A837B83C052D1407FC0C5
:10FA2000FA80C55CDE4FF882CB53D140C65CDE4F16
:10FA30001882CA53D1408B81C82EDD24C65CDE4FAC
:10FA400008811981CA53D140C02AD12A1A828981DA
:10FA5000BE016D5F7F4F843121F59601C05EDE4FA0
:10FA6000E880F9800A811B81C052D1400BBFF701A9
:10FA700087919691DB018C9311969C936E5F7F4FDB
:10FA8000D801C7010296A11DB11DC05EDE4F88835B
:10FA90009983AA83BB83C052D14022503040F1F6F3
:10FAA00036C0C05EDE4F288139814A815B81C052F9
:10FAB000D1400894C108D108760100E010E0089414
:10FAC000C11CD11C0894E11CF11C011D111DE20E8A
:10FAD000F31E041F151F21BDBB27A52F942F832FB5
:10FAE00082BD2F5F3F4F4F4F5F4FF89A80B5DB01CC
:10FAF0008D93BD012E153F054007510761F7C05E8C
:10FB0000DE4F288339834A835B83C052D1409601FC
:10FB10002D5F3F4FFB01108204C080EC8A8322E0FE
:10FB200030E08BE18093C6008091C00086FFFCCF5F
:10FB30008091C00080648093C000C15DDE4FF88179
:10FB4000CF52D140F093C6008091C00086FFFCCF19
:10FB50008091C00080648093C000432F3093C60022
:10FB60008091C00086FFFCCF8091C00080648093AC
:10FB7000C000922F2093C6008091C00086FFFCCF6A
:10FB80008091C00080648093C0008EE08093C600A6
:10FB90008091C00086FFFCCF8091C000806480937C
:10FBA000C00065E1C15DDE4FE880CF52D1406E25D7
:10FBB00069276427FE01319610C090819093C6009A
:10FBC0008091C00086FFFCCF31968091C000806498
:10FBD0008093C0006927215030402115310569F715
:10FBE0006093C6008091C00086FFFCCF8091C0006A
:10FBF00080648093C00085B1805885B9772081F4F6
:10FC0000C15DDE4F0881CF52D1400F5FC15DDE4F35
:10FC10000883CF52D14090E0A0E0B0E00D941AF4F8
:10FC200027982F9880E090E020ED37E0F901319798
:10FC3000F1F7019684369105C9F700008091C00064
:10FC40008D7F8093C00081E180935700E895EE2777
:10FC5000FF270994FFCF90E00D941AF497FB092E2B
:10FC600007260AD077FD04D02ED006D000201AF443
:10FC7000709561957F4F0895F6F7909581959F4F08
:10FC80000895A1E21A2EAA1BBB1BFD010DC0AA1FDD
:10FC9000BB1FEE1FFF1FA217B307E407F50720F0F5
:10FCA000A21BB30BE40BF50B661F771F881F991F70
:10FCB0001A9469F760957095809590959B01AC01B9
:10FCC000BD01CF010895AA1BBB1B51E107C0AA1FAC
:10FCD000BB1FA617B70710F0A61BB70B881F991FED
:10FCE0005A95A9F780959095BC01CD010895F99991
:10FCF000FECF92BD81BDF89A992780B50895262F31
:10FD0000F999FECF1FBA92BD81BD20BD0FB6F89400
:0EFD1000FA9AF99A0FBE01960895F894FFCF63
:00000001FF
