:100000000C9438010C9469010C9469010C946901F9
:100010000C9469010C9469010C9469010C946901B8
:100020000C9469010C9469010C9469010C946901A8
:100030000C9469010C9469010C9469010C94690198
:100040000C9469010C9465080C9469010C94690185
:100050000C9469010C9469010C9469010C9491074A
:100060000C9469010C945B070C9431070C946901A2
:100070000C9469010C9469010C9469010C94690158
:100080000C9437080C9469010C9469010C94690173
:100090000C94FB060C94D1060C9469010C94690134
:1000A0000C9469010C9469010C9409080C94690181
:1000B0000C9469010C9469010C9469010C94DB07A0
:1000C0000C9469010C9469010C9469010C94690108
:1000D0000C9469010C9469010C9469010C946901F8
:1000E0000C9469010C9425020C9448020C948E0324
:1000F0000C9493080C9480030C9472030C943402B7
:100100000C947C030C9456020C9486030C945303B9
:100110000C9494030C9493030C9498030C9459033B
:100120000C94E8020C9468030C94BF0E0C94980293
:100130000C945D030C948A030C9461030C94650386
:100140000C94F8010C946E030C94780300002100C9
:10015000240027002A002D00300033000101000098
:10016000040107010A0100002200250028002B00DD
:100170002E003100340002010000050108010B01CE
:10018000000020002300260029002C002F00320050
:100190000001000003010601090105050505070529
:1001A00008080808020202020A0A080804040404F3
:1001B000010101010101010103030303030303031F
:1001C000040707070C0C0C0C0C0C0C0C02020202AE
:1001D00006060606060606060B0B0B0B0B0B0B0B97
:1001E0000102102020080810204010204080020149
:1001F000020108040201010204081020408080402E
:10020000201008040201800402018040201008042C
:1002100002010804020101020408102040800102CA
:1002200004081020408000000A0B02090C0D0E0883
:1002300007030401000000000000000000000000AF
:1002400000000000000000000000000000000000AE
:10025000000012111000000000000000000000006B
:100260000000000000000000000000009308BF0E26
:1002700011241FBECFEFD1E2DEBFCDBF00E00CBF27
:1002800012E0A0E0B2E0E0EEF2E200E00BBF02C05C
:1002900007900D92AA3DB107D9F724E0AAEDB2E08C
:1002A00001C01D92A13EB207E1F711E0C7E3D1E022
:1002B00000E006C021970109802FFE010E94370F40
:1002C000C633D10780E00807A9F70E945F090C94A4
:1002D0005E110C940000FC01A089B18982E08C932E
:1002E000A485B5851C92A685B7858FEC8C93108E5E
:1002F000A489B58986E08C93A289B3898C918061A9
:100300008C93A289B3898C9188608C93A289B389DC
:100310008C9180688C930288F389E02D80818F7D99
:10032000808308958F929F92AF92BF92FF920F9316
:100330001F93CF93DF93F090DA042FE22F1508F488
:100340004CC02091DC0408E512E0021B110927FDD6
:100350001395000F111F000F111F2091DB04C8E837
:10036000D0E0C21BD10927FDD395CC0FDD1FCC0FE8
:10037000DD1F4E010D2E000CAA08BB089801012EAE
:10038000000C440B550B281939094A095B09DC019B
:100390000E94F20E24EB30E040E050E00E94C80ED4
:1003A000820E931EA41EB51E8C169D062CF0E8012D
:1003B000801691060CF4E4012297CC0FDD1F2FB7B5
:1003C000F8948F2D90E0FC01EE0FFF1FE80FF91F4E
:1003D000ED5BFB4FD283C1832FBFDF91CF911F9184
:1003E0000F91FF90BF90AF909F908F9008950895C8
:1003F000AF92BF92CF92DF92EF92FF920F931F9333
:10040000CF93DF936C017B018B01040F151FEB0170
:100410005E01AE18BF08C017D10759F06991D60127
:10042000ED91FC910190F081E02DC6011995892B89
:1004300079F7C501DF91CF911F910F91FF90EF9058
:10044000DF90CF90BF90AF900895FC01538D448D05
:10045000252F30E0842F90E0821B930B541710F06F
:10046000CF96089501970895FC01918D828D98177C
:1004700061F0A28DAE0FBF2FB11D5D968C91928D54
:100480009F5F9F73928F90E008958FEF9FEF089585
:10049000FC01918D828D981731F0828DE80FF11D4E
:1004A000858D90E008958FEF9FEF0895FC01918D69
:1004B000228D892F90E0805C9F4F821B91098F7362
:1004C0009927089589E093E00E94560221E0892B44
:1004D00009F420E0822F089586EA93E00E945602F4
:1004E00021E0892B09F420E0822F0895FC01A48DDE
:1004F000A80FB92FB11DA35ABF4F2C91848D90E046
:1005000001968F739927848FA689B7892C93A08928
:10051000B1898C91837080648C93938D848D9813B2
:1005200006C00288F389E02D80818F7D8083089545
:10053000EF92FF920F931F93CF93DF93EC0181E033
:10054000888F9B8D8C8D98131AC0E889F9898081DA
:1005500085FF15C09FB7F894EE89FF896083E8890D
:10056000F98980818370806480839FBF81E090E0FF
:10057000DF91CF911F910F91FF90EF900895F62E8C
:100580000B8D10E00F5F1F4F0F731127E02E8C8D26
:100590008E110CC00FB607FCFACFE889F98980816B
:1005A00085FFF5CFCE010E947602F1CFEB8DEC0FE7
:1005B000FD2FF11DE35AFF4FF0829FB7F8940B8F88
:1005C000EA89FB8980818062CFCF6AE00C9498022F
:1005D000CF93DF93EC01888D8823B9F0AA89BB897A
:1005E000E889F9898C9185FD03C0808186FD0DC065
:1005F0000FB607FCF7CF8C9185FFF2CF808185FF86
:10060000EDCFCE010E947602E9CFDF91CF91089520
:1006100080E090E0892B29F00E946C0281110E94F9
:10062000000080E090E0892B29F00E946202811195
:100630000E94000080E090E0892B49F080E090E08B
:10064000892B29F00E94000081110E94000080E0A7
:1006500090E0892B49F080E090E0892B29F00E94FE
:10066000000081110C94000008958150823108F03F
:100670005AC0E82FF0E08827EF5BFC4F8F4F0C94B7
:10068000370F61036503530359035D039303680345
:100690006E03720378037C03800386038A0393034B
:1006A0008E0394039803809180008F77809380005D
:1006B0000895809180008F7DF9CF80918000877FA1
:1006C000F5CF84B58F7784BD089584B58F7DFBCF3A
:1006D0008091B0008F778093B00008958091B00032
:1006E0008F7DF9CF809190008F778093900008954F
:1006F000809190008F7DF9CF80919000877FF5CF1A
:100700008091A0008F778093A00008958091A00031
:100710008F7DF9CF8091A000877FF5CF8091200158
:100720008F77809320010895809120018F7DF9CFEC
:1007300080912001877FF5CFCF93DF93282F30E082
:10074000F901EA5DFD4F8491F901E052FE4FD49129
:10075000F901E656FE4FC491CC23A1F081110E940D
:100760003503EC2FF0E0EE0FFF1FE058FE4FA59190
:10077000B491EC91ED2381E090E009F480E0DF9109
:10078000CF91089580E090E0FACF1F93CF93DF934D
:10079000282F30E0F901EA5DFD4F8491F901E05224
:1007A000FE4FD491F901E656FE4FC491CC23A9F037
:1007B000162F81110E943503EC2FF0E0EE0FFF1F82
:1007C000EA59FE4FA591B4918FB7F894EC911111AD
:1007D00008C0D095DE23DC938FBFDF91CF911F91AE
:1007E0000895DE2BF8CFCF93DF9390E0FC01E05229
:1007F000FE4F249186569E4FFC0184918823D1F0B0
:1008000090E0880F991FFC01E45BFE4FA591B49125
:10081000FC01EA59FE4FC591D49161110EC09FB7FA
:10082000F8948C91E22FE0958E238C932881E2231B
:10083000E8839FBFDF91CF9108958FB7F894EC9133
:10084000E22BEC938FBFF6CF3FB7F8948091E30291
:100850009091E402A091E502B091E60226B5A89B32
:1008600005C02F3F19F00196A11DB11D3FBFBA2F42
:10087000A92F982F8827BC01CD01620F711D811D02
:10088000911D42E0660F771F881F991F4A95D1F787
:1008900008952FB7F8946091DF027091E002809183
:1008A000E1029091E2022FBF08950F931F930E94DF
:1008B00049046093AE037093AF038093B0039093A9
:1008C000B10386EA93E00E94340297FF1DC00E94A4
:1008D00049040091AE031091AF032091B003309111
:1008E000B103601B710B820B930B0091AA03109153
:1008F000AB032091AC033091AD0360177107820701
:100900009307F8F28FEF9FEF1F910F910895AF9229
:10091000BF92CF92DF92EF92FF920F931F93CF93EC
:10092000DF936B017A01EC01C652DD4F28813CE078
:10093000389F8001399F100D1124A090D304B12C51
:1009400027FF1FC0FB011182108288818F5F88837F
:1009500088819801280F311D87FD3A95F6012A15E7
:100960003B051CF488818C30C4F180819181049610
:1009700080349C4908F473C0F6018081918104960B
:1009800070C088819801280F311D87FD3A952A157E
:100990003B05DCF68881A801480F511D87FD5A955B
:1009A000FA01EE0FFF1FE40FF51FED5BFB4F808197
:1009B00086FFCBCF8881F801E80FF11D87FDFA95FE
:1009C000CF01EE0FFF1FE80FF91FED5BFB4F80819A
:1009D00060E08F730E94C503B8CF80819181288128
:1009E000A801420F511D27FD5A959A01FA01EE0FF9
:1009F000FF1FE20FF31FED5BFB4F21813281820F5E
:100A0000931FF7019183808388819801280F311DFE
:100A100087FD3A95F901EE0FFF1FE20FF31FED5B23
:100A2000FB4F808186FF22C08881080F111D87FD42
:100A30001A95F801EE0FFF1FE00FF11FED5BFB4F62
:100A4000808161E08F73DF91CF911F910F91FF90B3
:100A5000EF90DF90CF90BF90AF900C94C50380E4EF
:100A60009CE9F701918380838FEF8883DF91CF9199
:100A70001F910F91FF90EF90DF90CF90BF90AF90BC
:100A800008951F93CF93DF93182FEB0183E0CC0FD2
:100A9000DD1F8A95E1F7CA5FDD4F6881812F0E94D3
:100AA000C5036A818FEF810F0E94C5036C818EEFB1
:100AB000810F0E94C5036E818DEF810FDF91CF9171
:100AC0001F910C94C5031F93CF93DF93182FEB0155
:100AD00083E0CC0FDD1F8A95E1F7CA5FDD4F6881A7
:100AE00083E0810F0E94C5036A8182E0810F0E942A
:100AF000C5036C8181E0810F0E94C5036E81812F47
:100B0000DF91CF911F910C94C5034F925F926F922A
:100B10007F928F929F92AF92BF92CF92DF92EF928D
:100B2000FF92CF93DF935C01EB01C42ED22E60E0E5
:100B3000842F0E94C50361E08D2D0E94C503E090C3
:100B4000E902F090EA02B701C5010E9463050E9424
:100B500049042B013C012AEF420E511C611C711CFF
:100B60000E9449046415750586059705C8F361E080
:100B70008C2D0E94C50360E08D2D0E94C503B70136
:100B8000CE010E9441050E9449042B013C012AEF3D
:100B9000420E511C611C711C0E94490464157505AC
:100BA00086059705C8F360E08C2D0E94C50361E0BF
:100BB0008D2D0E94C503B701C5010E9463050E94E7
:100BC00049044B015C012AEF820E911CA11CB11C4F
:100BD0000E944904681579058A059B05C8F361E000
:100BE0008C2D0E94C50360E08D2D0E94C503B701C6
:100BF000CE010E9441050E9449046093F302709364
:100C0000F4028093F5029093F6026B017C012AEFC7
:100C1000C20ED11CE11CF11C0E9449046C157D051B
:100C20008E059F05C8F3DF91CF91FF90EF90DF9085
:100C3000CF90BF90AF909F908F907F906F905F907C
:100C40004F900895CF92DF92EF92FF927C01862F12
:100C5000D42E61E00E94C50360E08D2D0E94C50383
:100C60006091ED027091EE02C7010E9441050E9461
:100C700049046093F3027093F4028093F502909319
:100C8000F6026B017C012AEFC20ED11CE11CF11CA3
:100C90000E9449046C157D058E059F05C8F3FF90E1
:100CA000EF90DF90CF900895CF92DF92EF92FF9276
:100CB0007C01862FD42E60E00E94C50361E08D2D5B
:100CC0000E94C5036091F1027091F202C7010E9477
:100CD00063050E9449046093F3027093F4028093C9
:100CE000F5029093F6026B017C012AEFC20ED11C33
:100CF000E11CF11C0E9449046C157D058E059F05C1
:100D0000C8F3FF90EF90DF90CF900895FB01019022
:100D10000020E9F73197AF01461B570B0C94F801FF
:100D20002091D8043091D904232B39F421E0FC011F
:100D30008081882361F020E00AC0BC018091D40446
:100D40009091D5040E944E1121E0892BA1F7822FAA
:100D500008950F931F93CF93DF93EC0188819981BE
:100D6000009759F02A813B812617370730F081E040
:100D7000DF91CF911F910F9108958B016F5F7F4F8E
:100D80000E946410009759F0998388831B830A831B
:100D90002C813D81232B59F7FC011082E8CF80E0A4
:100DA000E7CF1F920F920FB60F9211240BB60F923E
:100DB0002F933F934F935F936F937F938F939F9363
:100DC000AF93BF93EF93FF9389E093E00E94760285
:100DD000FF91EF91BF91AF919F918F917F916F9113
:100DE0005F914F913F912F910F900BBE0F900FBECF
:100DF0000F901F9018951F920F920FB60F9211240B
:100E00000BB60F922F938F939F93EF93FF93E091E5
:100E10001903F0911A038081E0911F03F0912003E0
:100E200082FD1DC09081809122038F5F8F7320917E
:100E30002303821741F0E0912203F0E0E75FFC4FCB
:100E4000958F80932203FF91EF919F918F912F9126
:100E50000F900BBE0F900FBE0F901F9018958081C2
:100E6000F2CF1F920F920FB60F9211240BB60F9272
:100E70002F933F934F935F936F937F938F939F93A2
:100E8000AF93BF93EF93FF9386EA93E00E947602BD
:100E9000FF91EF91BF91AF919F918F917F916F9152
:100EA0005F914F913F912F910F900BBE0F900FBE0E
:100EB0000F901F9018951F920F920FB60F9211244A
:100EC0000BB60F922F938F939F93EF93FF93E09125
:100ED000B603F091B7038081E091BC03F091BD03AC
:100EE00082FD1DC090818091BF038F5F8F73209121
:100EF000C003821741F0E091BF03F0E0EA55FC4FD8
:100F0000958F8093BF03FF91EF919F918F912F91C8
:100F10000F900BBE0F900FBE0F901F901895808101
:100F2000F2CF1F920F920FB60F9211242F933F937F
:100F30008F939F93AF93BF938091DF029091E002D4
:100F4000A091E102B091E2023091DE0223E0230F92
:100F50002D3758F50196A11DB11D2093DE02809317
:100F6000DF029093E002A093E102B093E20280914D
:100F7000E3029091E402A091E502B091E6020196AD
:100F8000A11DB11D8093E3029093E402A093E502BA
:100F9000B093E602BF91AF919F918F913F912F91B6
:100FA0000F900FBE0F901F90189526E8230F029602
:100FB000A11DB11DD2CF1F920F920FB60F92112417
:100FC0000BB60F922F933F934F935F936F937F9343
:100FD0008F939F93AF93BF93EF93FF9348E251E0BA
:100FE00064E271E090E080E00E948704FF91EF915D
:100FF000BF91AF919F918F917F916F915F914F9131
:101000003F912F910F900BBE0F900FBE0F901F902E
:1010100018951F920F920FB60F9211240BB60F92D4
:101020002F933F934F935F936F937F938F939F93F0
:10103000AF93BF93EF93FF9348EA50E064EA70E008
:1010400083E090E00E948704FF91EF91BF91AF9100
:101050009F918F917F916F915F914F913F912F91D0
:101060000F900BBE0F900FBE0F901F9018951F9200
:101070000F920FB60F9211240BB60F922F933F933E
:101080004F935F936F937F938F939F93AF93BF9390
:10109000EF93FF9348E950E064E970E082E090E06C
:1010A0000E948704FF91EF91BF91AF919F918F9123
:1010B0007F916F915F914F913F912F910F900BBE58
:1010C0000F900FBE0F901F9018951F920F920FB6A2
:1010D0000F9211240BB60F922F933F934F935F9370
:1010E0006F937F938F939F93AF93BF93EF93FF93F0
:1010F00048E850E064E870E081E090E00E948704F6
:10110000FF91EF91BF91AF919F918F917F916F91DF
:101110005F914F913F912F910F900BBE0F900FBE9B
:101120000F901F90189510920C0310920B0348EE2D
:1011300053E060E070E040930D0350930E03609322
:101140000F037093100382E692E090930A0380935A
:1011500009032DEC30E030931603209315032CEC9B
:1011600030E0309318032093170328EC30E03093DD
:101170001A032093190329EC30E030931C032093C9
:101180001B032AEC30E030931E0320931D032EEC4A
:1011900030E03093200320931F031092220310921B
:1011A000230310922403109225031092A903109296
:1011B000A8034093AA035093AB036093AC037093CE
:1011C000AD039093A7038093A60385EC90E09093E2
:1011D000B3038093B20384EC90E09093B5038093C3
:1011E000B40380EC90E09093B7038093B60381EC56
:1011F00090E09093B9038093B80382EC90E09093D1
:10120000BB038093BA0386EC90E09093BD03809378
:10121000BC031092BF031092C0031092C10310923E
:10122000C2038091D3048033E8F591E0980F909346
:10123000D3048093DA0490E0FC01EE0FFF1FE80F67
:10124000F91FED5BFB4F88EB9BE09283818310924B
:10125000D5041092D4041092D7041092D6041092A0
:10126000D9041092D80470E060E084ED94E00E940C
:10127000A9062091D4043091D504811117C02115FD
:10128000310519F0C9010E94DB0F1092D5041092AC
:10129000D4041092D9041092D8041092D70410925A
:1012A000D60408958FEF8093DA04D1CF1092D90439
:1012B0001092D80462E772E0C9010C945711CF93E1
:1012C000DF9300D000D01F921F92CDB7DEB7789485
:1012D00084B5826084BD84B5816084BD85B582603B
:1012E00085BD85B5816085BD80916E0081608093EC
:1012F0006E00109281008091810082608093810055
:101300008091810081608093810080918000816064
:10131000809380008091B10084608093B1008091BF
:10132000B00081608093B0008091910082608093D2
:101330009100809191008160809391008091900054
:101340008160809390008091A10082608093A100D1
:101350008091A10081608093A1008091A0008160B4
:101360008093A0008091210182608093210180916F
:10137000210181608093210180912001816080930F
:10138000200180917A00846080937A0080917A00B5
:10139000826080937A0080917A00816080937A00E5
:1013A00080917A00806880937A001092C10086EA6A
:1013B00093E00E946B0189E093E00E946B0116E1CB
:1013C00061E0812F0E94F3031F5F1633C9F712E01B
:1013D00061E0812F0E94F3031F5F1C30C9F760E0BA
:1013E0008DE00E94F30360E084E30E94F30360E079
:1013F00085E30E94F3038091DA04803308F051C042
:1014000061E08CE00E94F3038091DA04282F30E041
:10141000F901EE0FFF1FE20FF31FED5BFB4F908111
:10142000907C9C6090831092DB041092DC04612F0E
:101430000E942B0F819FB001112430E020E0AB010E
:10144000420F531FFA01EE0FFF1FE40FF51FED5B74
:10145000FB4F908196FD17C02F5F3F4F2C30310519
:1014600071F7813009F0A8C01092800082E080936B
:1014700081001092850010928400B19A80916F00D3
:10148000826080936F00E091DA048E2F90E0FC017F
:10149000EE0FFF1FE80FF91FED5BFB4F80818064AB
:1014A000808390E080E00E9492010E9424044B011E
:1014B0005C0198EEC92E93E0D92EE12CF12C0E940C
:1014C0002404681979098A099B09683E73408105DB
:1014D0009105A8F321E0C21AD108E108F10888EECD
:1014E000880E83E0981EA11CB11CC114D104E10434
:1014F000F10429F701E010E083E0C82ED12C8DE043
:101500000E949C03909308038093070384E30E9446
:101510009C03909306038093050385E30E949C033C
:10152000909304038093030386EA93E00E9456029B
:10153000181619060CF085C11A8219821C821B82AA
:101540001E821D8270E060E0CE0101960E94A90615
:1015500029813A8181115CC02115310519F0C90139
:101560000E94DB0F1A8219821E821D821C821B823E
:101570000E94550497FD54C08A30910509F450C06B
:101580008F831886ED80FE808FEFE81AF80AB70186
:10159000CE0101960E94A906882351F329813A8140
:1015A0008D819E81BE01695F7F4F820F931F0E94D4
:1015B0005711FE82ED82DCCF823061F410929000F0
:1015C00080939100109295001092940088BB8093B4
:1015D000710059CF833069F41092A00082E08093AB
:1015E000A1001092A5001092A40089BB8093720004
:1015F0004ACF811148CF1092200182E080932101CF
:1016000010922501109224018ABB809373003BCF76
:101610001E821D8262E772E0C9010E945711A8CFA5
:101620008091D4049091D504009709F4E1C16981B7
:101630007A816115710509F4D9C14091D6045091A0
:10164000D7042D813E814217530708F4CFC10E9471
:1016500057118D819E819093D9048093D8041E8266
:101660001D8289819A81009711F00E94DB0F4091C1
:10167000D8045091D9046091D4047091D50486EABD
:1016800093E00E94F80142E050E060E772E086EAF1
:1016900093E00E94F80183E792E00E94900688237D
:1016A00061F18091010390910203823091052CF544
:1016B0002091FF0230910003232BF9F410930003D3
:1016C0000093FF020196909302038093010310930D
:1016D000FE020093FD026BE772E089E093E00E9456
:1016E000860689E093E00E94E5024FE150E06AE15E
:1016F00070E086E190E00E94540680E892E00E944B
:101700009006882371F18091010390910203823049
:1017100091053CF52091FF0230910003232B09F540
:10172000109300030093FF020196909302038093AD
:10173000010382E090E09093FE028093FD026BE74C
:1017400072E089E093E00E94860689E093E00E94BF
:10175000E5024FE150E06AE170E08EE190E00E9426
:10176000220688E892E00E949006882371F1809119
:10177000010390910203823091053CF52091FF0214
:1017800030910003232B09F5109300030093FF020F
:1017900001969093020380930103D092FE02C092BF
:1017A000FD026BE772E089E093E00E94860689E023
:1017B00093E00E94E5022FE130E04AE150E06EE163
:1017C00070E086E190E00E9485058FE892E00E943B
:1017D0009006882371F062E972E089E093E00E944C
:1017E000860689E093E00E94E5021092FC021092C6
:1017F000FB0288E992E00E949006882371F06BE971
:1018000072E089E093E00E94860689E093E00E94FE
:10181000E5021092FA021092F90281EA92E00E9427
:101820009006882371F064EA72E089E093E00E94F8
:10183000860689E093E00E94E5021092F802109279
:10184000F70290E080E00E9492010E9449046093B8
:10185000F3027093F4028093F5029093F6024B0129
:101860005C012AEF820E911CA11CB11C0E9449044C
:10187000681579058A059B05C8F38091FD02909152
:10188000FE028130910509F01AC12091F1023091D8
:10189000F2022A3031050CF0C2C02F5F3F4F309367
:1018A000F2022093F1024FE150E06AE170E086E13C
:1018B00090E00E9454068091EF029091F00201970F
:1018C000C1F4E090F102F090F2028AE0E816F1042F
:1018D0000CF0B8C149E250E064E270E080E290E0D0
:1018E0000E9454062FEFE21AF20AF092F202E092FE
:1018F000F1028091EB029091EC020197C1F4E0902B
:10190000ED02F090EE028AE0E816F1040CF0CDC191
:1019100043E350E06EE270E082E390E00E94220632
:101920002FEFE21AF20AF092EE02E092ED028091BD
:10193000E7029091E8020197D1F4E090E902F0907B
:10194000EA028AE0E816F1040CF0E2C12BE030E094
:1019500046E050E06AE070E082E090E00E94850599
:101960002FEFE21AF20AF092EA02E092E902809185
:10197000070390910803019771F462E972E089E02E
:1019800093E00E94860689E093E00E94E5021092AF
:10199000FC021092FB0280910503909106030197CF
:1019A00071F46BE972E089E093E00E94860689E0B9
:1019B00093E00E94E5021092FA021092F9028091DF
:1019C000030390910403019771F464EA72E089E0E3
:1019D00093E00E94860689E093E00E94E50210925F
:1019E000F8021092F7020E94080389CD0E94DB0FD3
:1019F00089819A819093D5048093D4048B819C81B2
:101A00009093D7048093D6048D819E819093D904BE
:101A10008093D8041A8219821C821B8220CE1092D5
:101A2000F2021092F1021092FE021092FD02109248
:101A300000031092FF029093F0028093EF026AEA93
:101A400072E089E093E00E94860689E093E00E94BC
:101A5000E50261E08AE10E94C5038FE390E00E9405
:101A600092016FEA72E086EA93E00E94860686EAB7
:101A700093E00E94E5020E9449046093F302709390
:101A8000F4028093F5029093F6024B015C0128EE7C
:101A9000820E23E0921EA11CB11C0E94490468150D
:101AA00079058A059B05C8F362EB72E089E093E053
:101AB0000E94860689E093E00E94E502FCCE823017
:101AC000910509F05DC08091ED029091EE028A309F
:101AD000910574F401969093EE028093ED024FE12C
:101AE00050E06AE170E08EE190E00E942206E3CED1
:101AF0001092EE021092ED021092FE021092FD0280
:101B0000109200031092FF021093EC020093EB027C
:101B10006AEA72E089E093E00E94860689E093E039
:101B20000E94E50261E08FE10E94C5038AE590E032
:101B30000E9492016FEA72E086EA93E00E948606B4
:101B400086EA93E00E94E5020E9449046093F30252
:101B50007093F4028093F5029093F6024B015C01BE
:101B600028EE820E23E0921EA11CB11C0E944904A3
:101B7000681579058A059B05C8F367EB72E096CF77
:101B8000039709F098CE8091E9029091EA028A3099
:101B9000910584F401969093EA028093E9022FE183
:101BA00030E04AE150E06EE170E086E190E00E94B2
:101BB000850581CE1092EA021092E9021092FE028F
:101BC0001092FD02109200031092FF021093E8029F
:101BD0000093E7026AEA72E089E093E00E948606D9
:101BE00089E093E00E94E50261E08FE10E94C50375
:101BF00087E890E00E9492016FEA72E086EA93E043
:101C00000E94860686EA93E00E94E5020E9449044B
:101C10006093F3027093F4028093F5029093F602BE
:101C20004B015C0128EE820E23E0921EA11CB11C28
:101C30000E944904681579058A059B05C8F36CEB79
:101C400072E034CF1092F2021092F1021092F00280
:101C50001092EF02809101039091020301979093FB
:101C60000203809301038091FB029091FC02019694
:101C70009093FC028093FB0261E084E20E94C50322
:101C800061EC72E089E093E00E94860689E093E0CF
:101C90000E94E50266EC72E086EA93E00E94860606
:101CA00086EA93E00E94E50224CE1092EE021092A2
:101CB000ED021092EC021092EB02809101039091E0
:101CC0000203019790930203809301038091F9022C
:101CD0009091FA0201969093FA028093F90261E0E2
:101CE00083E30E94C50369EC72E089E093E00E94FF
:101CF000860689E093E00E94E5026EEC72E086EAD7
:101D000093E00E94860686EA93E00E94E5020FCEE9
:101D10001092EA021092E9021092E8021092E70291
:101D200080910103909102030197909302038093A5
:101D300001038091F7029091F80201969093F802C6
:101D40008093F70261E08BE00E94C50361E086E0CA
:101D50000E94C50361ED72E089E093E00E9486066F
:101D600089E093E00E94E50266ED72E086EA93E086
:101D70000E94860686EA93E00E94E502F8CD8091F3
:101D8000D4049091D504009711F00C94DB0F0895C2
:101D9000052E97FB1EF400940E94DF0E57FD07D01E
:101DA0000E94FA0E07FC03D04EF40C94DF0E5095FF
:101DB0004095309521953F4F4F4F5F4F0895909537
:101DC0008095709561957F4F8F4F9F4F08950E942A
:101DD0001C0FA59F900DB49F900DA49F800D911D89
:101DE00011240895B7FF0C94E70E0E94E70E821BA2
:101DF000930B0895A1E21A2EAA1BBB1BFD010DC077
:101E0000AA1FBB1FEE1FFF1FA217B307E407F507AA
:101E100020F0A21BB30BE40BF50B661F771F881F86
:101E2000991F1A9469F760957095809590959B011C
:101E3000AC01BD01CF010895A29FB001B39FC001C5
:101E4000A39F700D811D1124911DB29F700D811DE6
:101E50001124911D0895991B79E004C0991F9617CC
:101E600008F0961B881F7A95C9F780950895EE0FA4
:101E7000FF1F881F8BBF0790F691E02D19940F93D9
:101E80001F93CF93DF938230910510F482E090E0AE
:101E9000E091DF04F091E00430E020E0B0E0A0E069
:101EA000309799F42115310509F44AC0281B390BE4
:101EB00024303105D8F58A819B816115710589F13E
:101EC000FB0193838283FE0111C040815181028115
:101ED000138148175907E0F04817590799F41097EC
:101EE00061F012960C93129713961C933296CF01C1
:101EF000DF91CF911F910F9108950093DF0410930C
:101F0000E004F4CF2115310551F04217530738F0A2
:101F1000A901DB019A01BD01DF01F801C1CFEF0189
:101F2000F9CF9093E0048093DF04CDCFFE01E20F60
:101F3000F31F819391932250310939832883D7CF9E
:101F40002091DD043091DE04232B41F42091020224
:101F5000309103023093DE042093DD0420910002CF
:101F6000309101022115310541F42DB73EB7409162
:101F7000040250910502241B350BE091DD04F09121
:101F8000DE04E217F307A0F42E1B3F0B28173907D6
:101F900078F0AC014E5F5F4F2417350748F04E0FC5
:101FA0005F1F5093DE044093DD04819391939FCF94
:101FB000F0E0E0E09CCFCF93DF930097E9F0FC01E5
:101FC000329713821282A091DF04B091E004ED01F8
:101FD00030E020E01097A1F420813181820F931F1F
:101FE0002091DD043091DE042817390709F061C023
:101FF000F093DE04E093DD04DF91CF910895EA01D0
:10200000CE17DF07E8F54A815B819E014115510536
:10201000B1F7E901FB83EA8349915991C40FD51FB8
:10202000EC17FD0761F4808191810296840F951F62
:10203000E90199838883828193819B838A83F0E07D
:10204000E0E012968D919C9113970097B9F52D9130
:102050003C911197CD010296820F931F2091DD04D0
:102060003091DE042817390739F6309751F5109270
:10207000E0041092DF04B093DE04A093DD04BCCF33
:10208000D383C28340815181840F951FC817D9071C
:1020900061F44E5F5F4F88819981480F591F5183CA
:1020A00040838A819B81938382832115310509F0C6
:1020B000B0CFF093E004E093DF049ECFFD01DC019C
:1020C000C0CF13821282D7CF4F925F926F927F92CE
:1020D0008F929F92AF92BF92CF92DF92EF92FF9238
:1020E0000F931F93CF93DF938C01009799F4CB014B
:1020F000DF91CF911F910F91FF90EF90DF90CF90E4
:10210000BF90AF909F908F907F906F905F904F9017
:102110000C943F0FFC01E60FF71F9C012250310980
:10212000E217F30708F4AEC0D901CD91DC91119705
:10213000C617D70720F1C530D10578F0CE01049736
:102140008617970750F0C61BD70B2297C193D193E0
:102150006D937C93CF010E94DB0FC801DF91CF917B
:102160001F910F91FF90EF90DF90CF90BF90AF90B5
:102170009F908F907F906F905F904F9008955B013C
:10218000AC1ABD0A4C018C0E9D1EA091DF04B091CB
:10219000E004512C412CF12CE12C109731F5809169
:1021A000DD049091DE048815990509F05CC046169F
:1021B000570608F058C080910002909101020097E4
:1021C00041F48DB79EB74091040250910502841BE3
:1021D000950BE817F90708F055C0F093DE04E0937B
:1021E000DD04F90171836083B8CF8D919C911197C3
:1021F00012966C90129713967C901397A815B905B8
:1022000059F56C0142E0C40ED11CCA14DB0420F164
:10221000AC014A195B09DA011296159780F06282C7
:10222000738251834083D9016D937C93E114F1044F
:1022300071F0D7011396FC93EE9312978ECF2296EE
:102240008C0F9D1FF90191838083F301EFCFF093F1
:10225000E004E093DF0481CF4816590608F42C010E
:102260007D01D3019ACFCB010E943F0F7C010097E3
:1022700049F0AE01B8010E944511C8010E94DB0F70
:1022800087016BCF10E000E068CFFB01DC0102C0EA
:1022900001900D9241505040D8F70895FB01DC01A8
:1022A0008D91019080190110D9F3990B0895FB01CC
:1022B000DC0101900D920020E1F7089511E0C7E3E1
:1022C000D1E000E006C0802FFE010E94370F21966A
:1022D000011DC833D10780E00807A9F7F894FFCFA4
:1022E0000000E10480000000000000000000000089
:1022F00000000000010000000000010000000000DC
:1023000000000100010000000100000000000000CA
:1023100001000000010000000100010000000000B9
:1023200001000100010001000000000000000100A8
:10233000000000000100010000000100000000009A
:1023400000009802F8012502E80256023402480211
:102350000D0A0070657175656E6F00656E63310002
:102360006D656469616E6F006772616E64650062BD
:10237000310062757A7A310062320062757A7A329F
:102380000062330062757A7A330061706131006FE8
:102390006B00656E633200656E633300656E633497
:1023A0000061706132007070006170613300706DA7
:0A23B00000617061340070670000E6
:00000001FF
