:020000040000FA
:100000000C945C010C948D010C948D010C948D0169
:100010000C948D010C948D010C948D010C948D0128
:100020000C948D010C948D010C948D010C948D0118
:100030000C948D010C948D010C948D010C948D0108
:100040000C948D010C948D010C948D010C948D01F8
:100050000C948D010C948D010C948D010C94DA0A92
:100060000C948D010C94B00A0C94860A0C948D01AA
:100070000C948D010C948D010C948D010C948D01C8
:100080000C948D010C948D010C948D010C948D01B8
:100090000C945C0A0C94320A0C948D010C948D0122
:1000A0000C948D010C948D010C948D010C948D0198
:1000B0000C948D010C948D010C948D010C948D0188
:1000C0000C948D010C948D010C948D010C94080AF4
:1000D0000C94DE090C948D010C948D010C948D010F
:1000E0000C948D010C9484030C94DB130C94AD03DD
:1000F0000C94A9030C944E020C94F9010C947912FF
:100100000C9487030C9455040C9491030C94800375
:100110000C94B3030C94A5030C9462020C947C031E
:100120000C943F020C94BC020C9437120C949F0365
:100130000C941B110C94ED120C94B2030C94940DBE
:100140000C940E150C94B7030C949B030C9497031A
:100150000C9478030C948D030C94B8120C94240B1B
:100160000C9472030C94FE110C944A160C94EF1527
:100170000C9415040C94F5070C949E060C940B0338
:100180000C9470020C94EA010C9481150C94AA1141
:100190000C94E40300002100240027002A002D0015
:1001A0003000330001010000040107010A010000D2
:1001B0002200250028002B002E003100340002010F
:1001C0000000050108010B010000200023002600AB
:1001D00029002C002F00320000010000030106015D
:1001E00009010505050507050808080802020202BD
:1001F0000A0A0808040404040101010101010101C3
:100200000303030303030303040707070C0C0C0C8D
:100210000C0C0C0C02020202060606060606060676
:100220000B0B0B0B0B0B0B0B010210202008081003
:100230002040102040800201020108040201010256
:10024000040810204080804020100804020180042F
:10025000020180402010080402010804020101028A
:100260000408102040800102040810204080000093
:100270000A0B02090C0D0E08070304010000000020
:10028000000000000000000000000000000000006E
:10029000000000000000000000001211100000002B
:1002A000000000000000000000000000000000004E
:1002B00000000000240B4A1611241FBECFEFD1E22C
:1002C000DEBFCDBF00E00CBF27E0AAEFB4E001C065
:1002D0001D92A33AB207E1F714E0A0E0B2E0EAEE23
:1002E000F1E300E00BBF02C007900D92AA3FB107F7
:1002F000D9F711E0CBE5D1E000E006C02197010974
:10030000802FFE010E94BC16CA35D10780E0080785
:10031000A9F70E94740C0C94E3180C940000FC01E3
:10032000A089B18982E08C93A485B5851C92A685AD
:10033000B7858FEC8C93108EA489B58986E08C9359
:10034000A289B3898C9180618C93A289B3898C91A5
:1003500088608C93A289B3898C9180688C93028881
:10036000F389E02D80818F7D8083089596E0899FB9
:10037000D0011124A85EB84F90967C936E935F973E
:1003800091E091969C939197E0918507F091860773
:1003900090918407992339F0309751F0811108C06A
:1003A000809134071994309719F05C968C91FACFAC
:1003B0000895FC01248135816217730748F4808118
:1003C0009181009729F0860F971FFC018081089585
:1003D00080E008950895DB0114964D915C91159786
:1003E0006D917C91DC01ED91FC910280F381E02D17
:1003F0001994AF92BF92CF92DF92EF92FF920F9338
:100400001F93CF93DF936C017B018B01040F151FAA
:10041000EB015E01AE18BF08C017D10759F0699112
:10042000D601ED91FC910190F081E02DC601199566
:10043000892B79F7C501DF91CF911F910F91FF9023
:10044000EF90DF90CF90BF90AF900895FC01A0890E
:10045000B1898C91A689B78982FD0FC09C91818D4D
:100460008F5F8F73228D821749F0A18DAE0FBF2F42
:10047000B11D5D969C93818F08958C910895FC0128
:10048000538D448D252F30E0842F90E0821B930BF9
:10049000541710F0CF96089501970895FC01918D9F
:1004A000828D981761F0A28DAE0FBF2FB11D5D96A2
:1004B0008C91928D9F5F9F73928F90E008958FEF44
:1004C0009FEF0895FC01918D828D981731F0828DF8
:1004D000E80FF11D858D90E008958FEF9FEF08954F
:1004E000FC01918D228D892F90E0805C9F4F821BB3
:1004F00091098F739927089581E195E00E94700218
:1005000021E0892B09F420E0822F08958EEA95E0FE
:100510000E94700221E0892B09F420E0822F0895C7
:100520008BE496E00E94700221E0892B09F420E020
:10053000822F0895FC01A48DA80FB92FB11DA35AD5
:10054000BF4F2C91848D90E001968F739927848FF3
:10055000A689B7892C93A089B1898C918370806416
:100560008C93938D848D981306C00288F389E02DB7
:1005700080818F7D80830895EF92FF920F931F9368
:10058000CF93DF93EC0181E0888F9B8D8C8D981346
:100590001AC0E889F989808185FF15C09FB7F89452
:1005A000EE89FF896083E889F9898081837080649E
:1005B00080839FBF81E090E0DF91CF911F910F91E9
:1005C000FF90EF900895F62E0B8D10E00F5F1F4FF8
:1005D0000F731127E02E8C8D8E110CC00FB607FC07
:1005E000FACFE889F989808185FFF5CFCE010E9495
:1005F0009A02F1CFEB8DEC0FFD2FF11DE35AFF4F67
:10060000F0829FB7F8940B8FEA89FB898081806222
:10061000CFCF0C94BC02CF93DF93EC01888D88235D
:10062000B9F0AA89BB89E889F9898C9185FD03C055
:10063000808186FD0DC00FB607FCF7CF8C9185FF3A
:10064000F2CF808185FFEDCFCE010E949A02E9CFE3
:10065000DF91CF91089580E090E0892B29F00E94EE
:10066000900281110E94000080E090E0892B29F027
:100670000E94860281110E94000080E090E0892B98
:1006800029F00E947C0281110E94000080E090E02D
:10069000892B49F080E090E0892B29F00E9400002E
:1006A00081110C94000008958150823108F05AC0E5
:1006B000E82FF0E08827E05AFC4F8F4F0C94BC16CF
:1006C00080038403720378037C03B20387038D03E2
:1006D000910397039B039F03A503A903B203AD03F3
:1006E000B303B703809180008F77809380000895D3
:1006F000809180008F7DF9CF80918000877FF5CF3A
:1007000084B58F7784BD089584B58F7DFBCF8091AC
:10071000B0008F778093B00008958091B0008F7DF6
:10072000F9CF809190008F77809390000895809109
:1007300090008F7DF9CF80919000877FF5CF8091D9
:10074000A0008F778093A00008958091A0008F7DF6
:10075000F9CF8091A000877FF5CF809120018F771E
:10076000809320010895809120018F7DF9CF8091A1
:100770002001877FF5CFCF93DF93282F30E0F90159
:10078000E259FD4F8491F901E85DFD4FD491F901E3
:10079000EE51FE4FC491CC23A1F081110E9454036D
:1007A000EC2FF0E0EE0FFF1FE853FE4FA591B49140
:1007B000EC91ED2381E090E009F480E0DF91CF91AE
:1007C000089580E090E0FACF862F0C94BB031F932E
:1007D000CF93DF93282F30E0F901E259FD4F849148
:1007E000F901E85DFD4FD491F901EE51FE4FC4913E
:1007F000CC23A9F0162F81110E945403EC2FF0E0B6
:10080000EE0FFF1FE255FE4FA591B4918FB7F894FC
:10081000EC91111108C0D095DE23DC938FBFDF91DE
:10082000CF911F910895DE2BF8CF862F642F0C9463
:10083000E703CF93DF9390E0FC01E85DFD4F249147
:100840008E519E4FFC0184918823C9F090E0880F5F
:10085000991FFC01EC56FE4FA591B491FC01E255A5
:10086000FE4FC591D49161110DC09FB7F8948C9142
:10087000209582238C938881282328839FBFDF9132
:10088000CF910895623051F49FB7F8943C91822F34
:10089000809583238C93E8812E2BEFCF8FB7F8942C
:1008A000EC912E2B2C938FBFEACF862F642F0C94C4
:1008B00019043FB7F8948091FF0490910005A0912E
:1008C0000105B091020526B5A89B05C02F3F19F080
:1008D0000196A11DB11D3FBFBA2FA92F982F8827C0
:1008E000BC01CD01620F711D811D911D42E0660F9B
:1008F000771F881F991F4A95D1F708958F929F926D
:10090000AF92BF92CF92DF92EF92FF924B015C01C8
:100910000E9459046B017C010E9459046C197D09E5
:100920008E099F09683E734081059105A8F321E077
:10093000821A9108A108B10888EEC80E83E0D81E7B
:10094000E11CF11C81149104A104B10429F7FF906A
:10095000EF90DF90CF90BF90AF909F908F900895D1
:100960002FB7F8946091FB047091FC048091FD0412
:100970009091FE042FBF08950F931F93CF93DF93A1
:10098000C82FD62F86E0C89FF0011124E85EF84FEB
:1009900011A2878D90A181309105F1F058F082303D
:1009A0009105F1F1039709F440C0DF91CF911F91B8
:1009B0000F9108956623C9F361E070E08C2F0E94C7
:1009C000B6010E94B0046093700770937107809322
:1009D000720790937307E9CF0E94B00400917007EB
:1009E000109171072091720730917307AB01BC0120
:1009F000401B510B620B730B809182079091830710
:100A0000B0E0A0E084179507A607B70748F462E0B6
:100A100070E08C2FDF91CF911F910F910C94B60154
:100A200063E070E0D111C1CFF4CF70E060E0F1CFAE
:100A30002F923F924F925F926F927F928F929F92EE
:100A4000AF92BF92CF92DF92EF92FF920F931F93DC
:100A5000CF93DF9322242394812C912C54018394EF
:100A600066246A94762C56E0352E209284070E94E4
:100A7000B0040091740710917507209176073091AA
:100A80007707AB01BC01401B510B620B730B8091CC
:100A9000800790918107B0E0A0E084179507A60732
:100AA000B70718F7C0E080917E07C81760F4E0919F
:100AB0007A07F0917B07EC0FF11D62E080810E94C4
:100AC0001904CF5FF0CF512C80917F07581608F0A2
:100AD0005FC0052D10E0E0917C07F0917D07E00FED
:100AE000F11F61E080810E941904E0917C07F09180
:100AF0007D07E00FF11F60E080810E94E703D501D0
:100B0000C401052C04C0880F991FAA1FBB1F0A949B
:100B1000D2F76C017C01E094F094412C80917E0727
:100B20004816F8F4C42DD0E0E0917A07F0917B07E5
:100B3000EC0FFD1F80810E94BB032496CC0FDD1FAC
:100B4000C85ED84F892B41F4888199818C299D29D1
:100B5000998388834394E2CF888199818E219F2154
:100B6000F7CFE0917C07F0917D07E00FF11F61E086
:100B700080810E94E70380917C0790917D07080F98
:100B8000191F60E0F80180810E94190453949CCFE2
:100B9000C8E1D7E0FE01878D90A1892B21F4148E46
:100BA000768E658E11A2369687E0E435F80799F7C0
:100BB00010E080917E07181708F052C000E0E12E87
:100BC000F12CEE0CFF1CF701E05EF84F7F01209145
:100BD0007F07021708F042C0F70160817181002E83
:100BE00002C0769567950A94E2F7129F900111244E
:100BF000200F311DE8E1F7E080E0458D568D241788
:100C0000350709F467C08F5F36968A30B1F760FF09
:100C100023C0E8E1F7E090E080E0448D411117C087
:100C2000E0917807F0917907E20FF31F6081389E19
:100C3000F001399EF00D1124E85EF84F648F368F75
:100C4000258F10A2178E61E00E94BC0405C001969A
:100C500036968A30910509F70F5FB9CF1F5FA9CF8C
:100C600010E089A18111182F2696F7E0C435DF071F
:100C7000C1F70E94B0046093740770937507809366
:100C8000760790937707112309F4EFCE8091390707
:100C9000882309F4EACE80913707909138070197AD
:100CA00009F0E3CE80913407882309F4DECEDF918A
:100CB000CF911F910F91FF90EF90DF90CF90BF9059
:100CC000AF909F908F907F906F905F904F903F90EC
:100CD0002F9008956170B8CF0F931F930E94B004B6
:100CE0006093B6057093B7058093B8059093B905E6
:100CF0008EEA95E00E944E0297FF1DC00E94B0044C
:100D00000091B6051091B7052091B8053091B9054D
:100D1000601B710B820B930B0091B2051091B30510
:100D20002091B4053091B5056017710782079307CC
:100D3000F8F28FEF9FEF1F910F91089590E080E000
:100D40000895CF93DF93EC0160E08E810E94E7036A
:100D500061E08E810E94E70360E08E810E94E703DC
:100D60008BE891E00197F1F7DF91CF910895CF9251
:100D7000DF92EF92FF920F931F93CF93DF936C015B
:100D80007C0187E0E80EF11CD0E0C0E0062F10E007
:100D9000B8010C2E02C0759567950A94E2F7617050
:100DA000F70181917F010E94E7032196C430D105AC
:100DB00079F7C601DF91CF911F910F91FF90EF90CE
:100DC000DF90CF900C94A106CF92DF92EF92FF922A
:100DD0000F931F93CF93DF93EC01F62E642F8C813A
:100DE0000E94E7038D818F3F19F060E00E94E703C6
:100DF0000F2D10E08F8584FF25C06E0187E0C80E9F
:100E0000D11CF12CE12CB8010E2C02C07595679510
:100E10000A94E2F76170F60181916F010E94E70385
:100E2000FFEFEF1AFF0A88E0E816F10461F7CE0140
:100E3000DF91CF911F910F91FF90EF90DF90CF90B6
:100E40000C94A106B80184E0759567958A95E1F741
:100E5000CE010E94B7066F2DCE01DF91CF911F9179
:100E60000F91FF90EF90DF90CF900C94B70640E089
:100E7000682F87E897E00C94E40681E00E9437072A
:100E80008BE39FE10197F1F70895CF93DF938230D1
:100E900029F49091960798609093960780939A070B
:100EA00010929B0780E480939C0780E180939D07CC
:100EB00080E580939E0761E080918B070E94190472
:100EC00080918C078F3F19F061E00E94190461E066
:100ED00080918D070E941904C7E8D7E09E0127582A
:100EE00037408091960784FD0BC084E090E0219606
:100EF0002817390744F461E08E810E941904EECF6F
:100F000088E090E0F4CF8BE39DE00197F1F760E09B
:100F100080918B070E94E70360E080918D070E941B
:100F2000E70380918C078F3F19F060E00E94E70390
:100F30008091960784FD34C063E087E897E00E94C3
:100F4000B706CBE4D6E4CE010197F1F763E087E87A
:100F500097E00E94B7062197F1F763E087E897E0F2
:100F60000E94B70683E592E00197F1F762E087E817
:100F700097E00E94B7068091960780620E9437072B
:100F800084E0809397078CE00E9437070E943D071A
:100F900082E08093980786E0DF91CF910C94370729
:100FA00080620E9437078BE496E40197F1F7809105
:100FB000960780620E94370783E592E00197F1F778
:100FC0008091960780620E943707D5CF90919A074B
:100FD000691710F06FEF690FE62FF0E0E957F84F4F
:100FE0009489890F80680C94370741E00E94E406D9
:100FF00081E090E008950F931F93CF93DF938B01CF
:1010000028E0829FC001112480640E943707E80114
:10101000085F1F4F699187E897E00E94F507C017A6
:10102000D107C1F7DF91CF911F910F910895FB0177
:1010300001900020E9F73197AF01461B570BDC0107
:10104000ED91FC910280F381E02D19940F931F9391
:10105000CF93DF938C01EB01FC018081918100979C
:10106000E1F06881798161157105A9F042815381B0
:101070002C813D814217530770F00E94DC188C814F
:101080009D81F801958384831D821C82DF91CF911D
:101090001F910F9108950E94601788819981F8012E
:1010A000918380838A819B81938382838C819D81BC
:1010B00095838483198218821B821A82E5CFFC01F2
:1010C00080819181009711F00C9460170895FC01C4
:1010D00024813581232B39F421E0FB018081882391
:1010E00049F020E007C0808191810E94D31821E05F
:1010F000892BB9F7822F0895FC0124813581FB01EA
:101100004481558124173507E1F4FC0180819181E8
:10111000FB01608171810097D1F061157105A1F427
:10112000232BC1F0FC01808190E008C0232B91F0BB
:10113000FB01808190E091958195910921E0892BB7
:1011400009F020E0822F08950E94D318F7CF61158F
:10115000710561F721E0F6CF0F931F93CF93DF93D3
:10116000EC0188819981009759F02A813B812617EB
:10117000370730F081E0DF91CF911F910F910895F3
:101180008B016F5F7F4F0E94E917009759F0998399
:1011900088831B830A832C813D81232B59F7FC0113
:1011A0001082E8CF80E0E7CFEF92FF920F931F937A
:1011B000CF93DF93EC017B01FB0101900020E9F765
:1011C00031978F01061B170BB8010E94AC082881CC
:1011D0003981811113C02115310519F0C9010E940F
:1011E0006017198218821D821C821B821A82DF916D
:1011F000CF911F910F91FF90EF9008951D830C8365
:10120000B701C901DF91CF911F910F91FF90EF902E
:101210000C94DC18CF9310920905109206056BED23
:1012200074E08CE097E00E94D4086BED74E086E0F7
:1012300097E00E94D4086BED74E08AEF96E00E947C
:10124000D4086BED74E084EF96E00E94D408C1E00E
:10125000C0930C0210920B02C0930A026BED74E073
:1012600080E097E00E94D4086BED74E08EEE96E08B
:101270000E94D40810920D0510920C05C09309022B
:10128000C09308026BED74E088EE96E0CF910C9469
:10129000D408CF93DF93EC01198218821B821A8243
:1012A0001D821C8270E060E00E94AC0828813981B8
:1012B00081110FC02115310519F0C9010E94601775
:1012C000198218821D821C821B821A82DF91CF91A3
:1012D00008951D821C826BED74E0C901DF91CF91EE
:1012E0000C94DC18EF92FF920F931F93CF93DF9330
:1012F0001F921F92CDB7DEB78C0169831A82FC0161
:10130000E480F580FFEFEF1AFF0AB7010E94AC08F6
:10131000882381F0F8012081318184819581BE018B
:101320006F5F7F4F820F931F0E94DC18F801F582D8
:10133000E48281E00F900F90DF91CF911F910F9188
:10134000FF90EF900895CF93DF93EC010E9449093D
:101350000E946C0697FD08C08A30910529F0682F1D
:10136000CE010E947209F4CFCE01DF91CF91089592
:10137000CF92DF92EF92FF920F931F93CF93DF9361
:10138000EB017B0126E0E20EF11C8B016C01C61A19
:10139000D70AC601800F911F0E94A616F8018193FB
:1013A0008F01EE15FF05A9F7CE01DF91CF911F91B7
:1013B0000F91FF90EF90DF90CF9008951F920F92C2
:1013C0000FB60F9211240BB60F922F933F934F93AA
:1013D0005F936F937F938F939F93AF93BF93EF939D
:1013E000FF9381E195E00E949A02FF91EF91BF91F6
:1013F000AF919F918F917F916F915F914F913F91AD
:101400002F910F900BBE0F900FBE0F901F9018954D
:101410001F920F920FB60F9211240BB60F922F93BB
:101420003F934F935F936F937F938F939F93AF936C
:10143000BF93EF93FF9381E195E00E942602FF9115
:10144000EF91BF91AF919F918F917F916F915F913C
:101450004F913F912F910F900BBE0F900FBE0F90A9
:101460001F9018951F920F920FB60F9211240BB672
:101470000F922F933F934F935F936F937F938F932D
:101480009F93AF93BF93EF93FF938EEA95E00E94F3
:101490009A02FF91EF91BF91AF919F918F917F91B0
:1014A0006F915F914F913F912F910F900BBE0F90D5
:1014B0000FBE0F901F9018951F920F920FB60F92AC
:1014C00011240BB60F922F933F934F935F936F931B
:1014D0007F938F939F93AF93BF93EF93FF938EEA86
:1014E00095E00E942602FF91EF91BF91AF919F91ED
:1014F0008F917F916F915F914F913F912F910F90BD
:101500000BBE0F900FBE0F901F9018951F920F9259
:101510000FB60F9211240BB60F922F933F934F9358
:101520005F936F937F938F939F93AF93BF93EF934B
:10153000FF938BE496E00E949A02FF91EF91BF9196
:10154000AF919F918F917F916F915F914F913F915B
:101550002F910F900BBE0F900FBE0F901F901895FC
:101560001F920F920FB60F9211240BB60F922F936A
:101570003F934F935F936F937F938F939F93AF931B
:10158000BF93EF93FF938BE496E00E942602FF91B6
:10159000EF91BF91AF919F918F917F916F915F91EB
:1015A0004F913F912F910F900BBE0F900FBE0F9058
:1015B0001F9018951F920F920FB60F9211242F9320
:1015C0003F938F939F93AF93BF938091FB04909130
:1015D000FC04A091FD04B091FE043091FA0423E0D4
:1015E000230F2D3758F50196A11DB11D2093FA0444
:1015F0008093FB049093FC04A093FD04B093FE043D
:101600008091FF0490910005A0910105B091020521
:101610000196A11DB11D8093FF0490930005A09336
:101620000105B0930205BF91AF919F918F913F91BA
:101630002F910F900FBE0F901F90189526E8230F43
:101640000296A11DB11DD2CF109214051092130560
:1016500048EE53E060E070E04093150550931605A6
:10166000609317057093180589E392E09093120533
:101670008093110525ED30E030931E0520931D0564
:1016800024ED30E03093200520931F0520ED30E05D
:10169000309322052093210521ED30E0309324057D
:1016A0002093230522ED30E0309326052093250575
:1016B00026ED30E0309328052093270510922A0567
:1016C00010922B0510922C0510922D051092B10549
:1016D0001092B0054093B2055093B3056093B405E2
:1016E0007093B5059093AF058093AE052DEC30E077
:1016F0003093BB052093BA052CEC30E03093BD0548
:101700002093BC0528EC30E03093BF052093BE0544
:1017100029EC30E03093C1052093C0052AEC30E07D
:101720003093C3052093C2052EEC30E03093C505FD
:101730002093C4051092C7051092C8051092C905E0
:101740001092CA0510924E0610924D0640934F0615
:1017500050935006609351067093520690934C0636
:1017600080934B0685EC90E0909358068093570643
:1017700084EC90E090935A068093590680EC90E0B8
:1017800090935C0680935B0681EC90E090935E06FC
:1017900080935D0682EC90E09093600680935F06F4
:1017A00086EC90E090936206809361061092640646
:1017B00010926506109266061092670610928A07CC
:1017C0001092890785E592E09093880780938707B8
:1017D00086E180938B078FEF80938C0787E180935E
:1017E0008D0788E180938E0789E180938F078AE1D6
:1017F000809390078BE1809391071092920710924B
:10180000930710929407109295071092960781E023
:101810000E94450710921A0710921E0710921D078A
:1018200010921F078BE492E090931907809318079A
:10183000E4E3F7E01082148213821582369687E083
:10184000E037F807B9F78BE192E090937B0780933C
:101850007A0787E192E090937D0780937C0784E08C
:1018600080937E0780937F078FE192E090937907C2
:10187000809378078AE090E09093810780938007B7
:1018800084EF91E0909383078093820710928607FC
:1018900010928507109274071092750710927607C0
:1018A000109277071092840782E197E00E9449091D
:1018B0008CE097E00E94490986E097E00E94490980
:1018C00080E097E00E9449098AEF96E00E9449096A
:1018D00084EF96E00E9449098EEE96E00E94490945
:1018E00088EE96E00C944909CF93DF93CDB7DEB72D
:1018F0002C970FB6F894DEBF0FBECDBF789484B599
:10190000826084BD84B5816084BD85B5826085BDFB
:1019100085B5816085BD80916E00816080936E0089
:10192000109281008091810082608093810080917B
:10193000810081608093810080918000816080932C
:1019400080008091B10084608093B1008091B000EC
:1019500081608093B00080919100826080939100BB
:1019600080919100816080939100809190008160CE
:10197000809390008091A10082608093A10080916B
:10198000A10081608093A1008091A000816080937C
:10199000A00080912101826080932101809121012A
:1019A00081608093210180912001816080932001DA
:1019B00080917A00846080937A0080917A008260BE
:1019C00080937A0080917A00816080937A00809180
:1019D0007A00806880937A001092C1008BE496E0D0
:1019E0000E948F018EEA95E00E948F0181E195E0CF
:1019F0000E948F0182E00E9445070E943D076DE032
:101A000072E080E00E94FB0760E082E00E94E6074F
:101A100060E087E897E00E94F50760E083E00E94BD
:101A2000E6076DE572E087E897E00E94170860E03E
:101A300072E081E00E94FB0760E08DE00E94E60713
:101A400061E087E897E00E94F50761E080E00E948E
:101A5000E60768E672E087E897E00E94170868EBFF
:101A60007BE080E090E00E947E040E943D0760E001
:101A700085E00E94E60769E772E087E897E00E9448
:101A8000170868EE73E080E090E00E947E0461E059
:101A900081E00E94E6076FE772E087E897E00E9426
:101AA000170860ED77E080E090E00E947E040E94DD
:101AB0003D078EE1682E712C92E0892E912CCC246A
:101AC000C394D12C04E010E038E0A32EB12CE091B7
:101AD0001502F09116023197EE31F10508F0ABC313
:101AE0008827EA58F24F8F4F0C94BC16940DAA1118
:101AF000FE1137127912B812ED12DB130E15811593
:101B00001B111B111B111B111B111B111B111B1175
:101B10001B111B111B111B111B111B111B111B1165
:101B20001B111B111B11EF1580910905811159C063
:101B300060E00E94E6076DE872E087E897E00E94A7
:101B4000170861E084E00E94E6076CE077E087E830
:101B500097E00E94EB010E941805F82E8093100573
:101B6000682F8CE097E00E94720980910C0590919B
:101B70000D05019690930D0580930C058AE2F812ED
:101B800009C080910705909108050196909308057A
:101B9000809307058091070590910805029784F0CE
:101BA00010920D0510920C05109208051092070571
:101BB0006BED74E08CE097E00E94D4080E943D0732
:101BC00080910C0590910D05069709F0ADCF81E04D
:101BD0008093090510920D0510920C050E943D0797
:101BE000A3CF80910605811133C060E00E94E60713
:101BF0006DE972E087E897E00E9417080E941805D7
:101C000080931005682F86E097E00E94720980910A
:101C10000C0561E08B5F0E94E6076EEA72E087E8E0
:101C200097E00E94170880910C0590910D05019690
:101C300090930D0580930C05069799F681E08093AB
:101C4000060510920D0510920C050E943D07C9CFA4
:101C500060EB72E08CE097E00E946708882309F44B
:101C6000A7C067EB72E086E097E00E9467088823D0
:101C700009F49EC060E080E00E94E6076EEB72E02F
:101C800087E897E00E94170861E080E00E94E6077D
:101C90006BEC72E087E897E00E94170868EB7BE046
:101CA00080E090E00E947E040E943D0760E080E0BA
:101CB0000E94E6076DE572E087E897E00E9417084A
:101CC00061E080E00E94E60765ED72E087E897E05A
:101CD0000E9417086BED72E088EE96E00E94D4082F
:101CE00068EB7BE080E090E00E947E040E943D076C
:101CF00080910505811116C010920C0260E083E00E
:101D00000E94E60768EE72E087E897E00E941708F5
:101D100061E083E00E94E60763EF72E087E897E006
:101D20000E9417081092050580910C028111BEC017
:101D30008EEA95E00E947002181619067CF4CE0116
:101D400001960E94A309BE016F5F7F4F82E197E079
:101D50000E942608CE0101960E945F086FE073E0A2
:101D600082E197E00E9467088823F1F20E943D0714
:101D700060E083E00E94E60769E173E087E897E0AE
:101D80000E94170861E083E00E94E60764E273E0C6
:101D900087E897E00E94170868EB7BE080E090E01E
:101DA0000E947E0481E080930C0210920B023CC0E2
:101DB00061EE72E08CE097E00E946708811137C005
:101DC00060E080E00E94E6076EEB72E087E897E053
:101DD0000E94170861E080E00E94E6076EEF72E063
:101DE00087E897E00E94170868EB7BE080E090E0CE
:101DF0000E947E0410920905109206056BED74E0B6
:101E00008CE097E00E94D4086BED74E086E097E0E8
:101E10000E94D40810920D0510920C056BED74E031
:101E200088EE96E00E94D4080E943D077DCF67EBC4
:101E300072E086E097E00E946708882309F260E07C
:101E400080E00E94E6076EEB72E087E897E00E9470
:101E5000170861E080E00E94E6076BEC72E087E81B
:101E600097E00E94170868EB7BE080E090E00E941A
:101E70007E040E943D0760E080E00E94E6076AE081
:101E800073E088EE96E00E94D4086DE572E087E882
:101E900097E00E94170861E080E00E94E60765E98C
:101EA00072E087E897E00E9417081ACF80910B0232
:101EB000811153C060E00E94E6076EE273E087E89C
:101EC00097E00E94170861E080E00E94E60769E35E
:101ED00073E087E897E00E9417088EEA95E00E9479
:101EE00070021816190614F7CE0101960E94A30974
:101EF000BE016F5F7F4F8AEF96E00E942608CE01F9
:101F000001960E945F080E943D0760E080E00E9409
:101F1000E60765E473E087E897E00E94170861E050
:101F200080E00E94E6076AEF76E087E897E00E948B
:101F3000EB0168EB7BE080E090E00E947E046FECB8
:101F400073E08EEA95E00E94170881E080930B020F
:101F500010920A020E943D07A9CF80910A028111C6
:101F600055C060E00E94E6076EE273E087E897E004
:101F70000E94170861E080E00E94E60766E573E0D2
:101F800087E897E00E9417088EEA95E00E947002A9
:101F90001816190614F7CE0101960E94A309BE0176
:101FA0006F5F7F4F84EF96E00E942608CE01019676
:101FB0000E945F080E943D0760E080E00E94E60703
:101FC00063E673E087E897E00E94170861E080E02D
:101FD0000E94E60764EF76E087E897E00E94EB0155
:101FE00068EB7BE080E090E00E947E046FEC73E0A1
:101FF0008EEA95E00E94170881E080930A02D09251
:102000000405C09203050E943D07A7CF80910305F8
:1020100090910405019709F046C06AEF76E08CE0E4
:1020200097E00E947C088823C9F064EF76E086E0A0
:1020300097E00E947C08882389F06BED74E08CE0C7
:1020400097E00E946708811109C06BED74E086E09B
:1020500097E00E946708882309F476C060E080E07A
:102060000E94E6076EEB72E087E897E00E9417088F
:1020700061E080E00E94E60765E773E087E897E0AB
:102080000E94170868EB7BE080E090E00E947E04ED
:102090000E943D0781E0809305050E940A09109285
:1020A00004051092030580910902811150C060E07F
:1020B0000E94E6076EE273E087E897E00E94170847
:1020C00061E080E00E94E6076FE773E087E897E051
:1020D0000E9417088EEA95E00E94700218161906F1
:1020E00014F7CE0101960E94A309BE016F5F7F4FD6
:1020F0008EEE96E00E942608CE0101960E945F08AF
:102100000E943D0760E080E00E94E60769E873E016
:1021100087E897E00E94170861E080E00E94E607E8
:102120006EEE76E087E897E00E94EB0168EB7BE0DB
:1021300080E090E00E947E0481E08093090210928A
:1021400008020E943D07AFCF10920902ACCF8091E8
:102150000802811135C060E00E94E60768E973E07B
:1021600087E897E00E94170861E085E00E94E60793
:1021700060E077E087E897E00E94EB010E94180595
:1021800080931005682F80E097E00E94720980918B
:102190000C0590910D05019690930D0580930C050B
:1021A0000697A9F681E08093080290920405809238
:1021B000030510920D0510920C050E943D07C7CF34
:1021C000E0900305F090040582E0E816F10499F52B
:1021D0006EEE76E080E097E00E947C08882381F034
:1021E0006BED74E080E097E00E946708811108C001
:1021F0006BED74E08EEE96E00E9467088823F1F0A4
:1022000060E081E00E94E60769EA73E087E897E012
:102210000E94170868EB7BE080E090E00E947E045B
:102220000E943D0781E0809305050E940A091092F3
:102230000405109203050E942B0349CC6FEC73E058
:102240008EEA95E00E9417086BED72E088EE96E04A
:102250000E946708882339F1F0921602E092150275
:1022600060E080E00E94E6076DE572E087E897E0B5
:102270000E94170861E080E00E94E60765ED72E0C9
:1022800087E897E00E94170868EB7BE080E090E029
:102290000E947E046BED72E08EEA95E00E941708C2
:1022A0000E943D07C8CF6AE073E088EE96E00E9486
:1022B0006708882369F1709216026092150260E047
:1022C00080E00E94E6076DE572E087E897E00E94F3
:1022D000170861E080E00E94E60765E972E087E8A0
:1022E00097E00E9417086CED75E080E090E00E9496
:1022F0007E0468EB73E08EEA95E00E9417086CEDAF
:1023000075E080E090E00E947E0460EC73E0C4CF52
:1023100060E081E00E94E60767EC73E087E897E001
:102320000E94170868EB7BE080E090E00E947E044A
:102330000E943D0781E0809305050E940A091092E2
:102340000405109203056DEC73E08EEA95E00E949F
:10235000170871CF60E080E00E94E60768ED73E047
:1023600087E897E00E94170861E080E00E94E60796
:1023700068EE73E087E897E00E94170861E08DE05F
:102380000E94E60763EF73E087E897E00E94170872
:102390006DE072E080E00E94FB0761E08FE00E9448
:1023A000E60760E087E897E00E94F5070E941805BD
:1023B00080931005813329F41093160200931502BF
:1023C0006FCF823389F460E084E00E94E6076AEE12
:1023D00073E087E897E00E94170868EB7BE080E0F5
:1023E00090E00E947E045CCF843409F0EDC083E06D
:1023F00090E0909316028093150252CF60E080E047
:102400000E94E60766E074E087E897E00E941708FC
:1024100061E08DE00E94E60763EF73E087E897E0F4
:102420000E9417086DE072E080E00E94FB0761E007
:102430008FE00E94E60760E087E897E00E94F507DA
:102440000E94180580931005833349F4D092160238
:10245000C09215020E943D070E940A09ECCE843406
:1024600009F0B2C0909216028092150219CF60E076
:1024700080E00E94E60766E174E087E897E00E944A
:10248000170861E080E00E94E6076EE174E087E8EB
:1024900097E00E94170861E08DE00E94E60763EF75
:1024A00073E087E897E00E9417086DE072E080E033
:1024B0000E94FB0761E08FE00E94E60760E087E88A
:1024C00097E00E94F5070E9418058093100581335C
:1024D00019F487E090E08DCF823329F4B092160290
:1024E000A0921502DDCE843409F06EC085E090E044
:1024F00080CF60E080E00E94E6076AE274E087E84F
:1025000097E00E94170861E080E00E94E60769E317
:1025100074E087E897E00E94170861E08DE00E9470
:10252000E60763EF73E087E897E00E9417086DE025
:1025300072E080E00E94FB0761E08FE00E94E60706
:1025400060E087E897E00E94F5070E9418058093F5
:102550001005833319F489E090E04BCF843319F4EC
:102560008AE090E046CF843479F586E090E041CF70
:1025700060E080E00E94E60764E474E087E897E0AA
:102580000E94170861E08DE00E94E60763EF73E0A8
:1025900087E897E00E9417086DE072E080E00E94F3
:1025A000FB0761E08FE00E94E60760E087E897E0C4
:1025B0000E94F5070E94180580931005853309F4E1
:1025C00051CF843409F4F8CE0E943D0760E080E0EA
:1025D0000E94E60766EF73E0FCCE10920D051092A4
:1025E0000C05CE0107960E944909CE0101960E9472
:1025F00049090E943D0760E081E00E94E6076DE81E
:1026000072E087E897E00E94170880910C0590918E
:102610000D050697F4F461E084E00E94E607BE0130
:10262000695F7F4F87E897E00E94EB010E941805E1
:1026300080931005682FCE0107960E947209809141
:102640000C0590910D05019690930D0580930C0556
:10265000DCCF10920D0510920C050E943D07F12C65
:10266000E12C8B859C85E816F906D0F4B701CE01E4
:1026700007960E94D901682F8BE496E00E94090317
:10268000B701CE0107960E94D901682F80910A05F3
:1026900090910B050E94AE168FEFE81AF80AE1CF71
:1026A00010920D0510920C050E943D070E943D07F7
:1026B00060E080E00E94E6076DE972E087E897E05D
:1026C0000E94170880910C0590910D05089724F53C
:1026D00061E084E00E94E607BE016F5F7F4F87E8FC
:1026E00097E00E94EB010E941805809310058A3242
:1026F00021F4B0920D05A0920C05682FCE01019631
:102700000E94720980910C0590910D05019690939D
:102710000D0580930C05D6CF10920D0510920C0577
:102720000E943D07F12CE12C8D819E81E816F9066F
:10273000D0F4B701CE0101960E94D901682F8BE435
:1027400096E00E940903B701CE0101960E94D901CB
:10275000682F80910A0590910B050E94AE168FEFAD
:10276000E81AF80AE1CF60E081E00E94E6076CE435
:1027700074E087E897E00E94170868EB7BE080E050
:1027800090E00E947E040E943D0780910A0590918E
:102790000B050E9690930B0580930A051093160275
:1027A00000931502CE0101960E945F08CE010796A4
:1027B0000E945F0840CD6BED74E08CE097E00E94D2
:1027C000D4086BED74E086E097E00E94D408109284
:1027D0000D0510920C050E943D0760E081E00E940B
:1027E000E6076BE574E087E897E00E94170861E070
:1027F00084E00E94E6076BE674E087E897E00E94B9
:1028000017080E94180580931005682F8CE097E048
:102810000E94720980910C0790910D07009709F4AE
:102820004FC00E946A16615071092EE0269FC001B8
:10283000279F900D112490930F0580930E050E9401
:102840003D0760E081E00E94E60767E774E087E803
:1028500097E00E94170861E084E00E94E60765E8BF
:1028600074E087E897E00E94170868EB7BE080E05F
:1028700090E00E947E040E943D0780910C0590919B
:102880000D0506970CF561E084E00E94E6076CE018
:1028900077E087E897E00E94EB010E94180580939B
:1028A0001005682F8CE097E00E94720980910C055A
:1028B00090910D05019690930D0580930C05DDCF49
:1028C00060E070E0CB01AFCF10920D0510920C05C7
:1028D0000E943D07F12CE12C809110079091110787
:1028E000E816F906D0F4B7018CE097E00E94D90110
:1028F000682F8BE496E00E940903B7018CE097E013
:102900000E94D901682F80910A0590910B050E94C1
:10291000AE168FEFE81AF80ADFCF0E943D0760E09D
:1029200081E00E94E6076EE874E087E897E00E9485
:10293000170861E084E00E94E6076CE974E087E82C
:1029400097E00E94170868EB7BE080E090E00E942F
:102950007E040E943D0780910C0590910D0508971B
:102960001CF561E084E00E94E60766E077E087E816
:1029700097E00E94EB010E941805809310058A32AF
:1029800021F4B0920D05A0920C05682F86E097E027
:102990000E94720980910C0590910D05019690930B
:1029A0000D0580930C05D7CFF12CE12C80910A07FF
:1029B00090910B07E816F906D0F4B70186E097E08E
:1029C0000E94D901682F8BE496E00E940903B701A9
:1029D00086E097E00E94D901682F80910A059091C6
:1029E0000B050E94AE168FEFE81AF80ADFCF60E001
:1029F00081E00E94E60769EA74E087E897E00E94B8
:102A0000170868EB7BE080E090E00E947E040E9463
:102A10003D0710931602009315020DCC6BED74E088
:102A20008CE097E00E94D4086BED74E086E097E0BC
:102A30000E94D40860E080E00E94E6076CEB74E03E
:102A400087E897E00E94170868EB7BE080E090E061
:102A50000E947E0460E081E00E94E6076BE574E07E
:102A600087E897E00E94170861E084E00E94E6078B
:102A70006BE674E087E897E00E9417080E9418054B
:102A800080931005682F8CE097E00E947209809176
:102A90000C0790910D07009781F10E946A16615012
:102AA00071092EE0269FC001279F900D112490935D
:102AB0000F0580930E056CE077E00E94B80960E096
:102AC00081E00E94E6076CE077E087E897E00E94EB
:102AD000EB0180910E0590910F0566E077E001967D
:102AE0000E94B80961E081E00E94E60766E077E0B5
:102AF00087E897E00E94EB0184CF60E070E0CB01B3
:102B0000CECF6BED74E08CE097E00E94D40860E0DB
:102B100080E00E94E6076BE374E087E897E00E949C
:102B2000170868EB7BE080E090E00E947E0460E0A4
:102B300081E00E94E6076BE574E087E897E00E9479
:102B4000170861E084E00E94E6076BE674E087E81E
:102B500097E00E9417080E94180580931005682FBF
:102B60008CE097E00E94720980910C0790910D070C
:102B7000009789F10E946A16615071092EE0269F24
:102B8000C001279F900D112490930F0580930E058F
:102B9000F12CE12C80910E0590910F0560E08E0DD7
:102BA0009F1D0E94AE168FEFE81AF80A8EE0E81615
:102BB000F10481F760E080E00E94E60769EC74E0D0
:102BC00087E897E00E94170868EB7BE080E090E0E0
:102BD0000E947E04F1CB60E070E0CB01CDCF8EEAA5
:102BE00095E00E947002181619060CF024CBCE0155
:102BF00001960E94A309BE016F5F7F4F82E197E0BB
:102C00000E942608CE0101960E945F0862E177E0EB
:102C10008BE496E00E94EB0142E050E069ED74E045
:102C20008BE496E00E94F9016CED74E082E197E09C
:102C30000E9467086CED74E081110AC064EE74E0D4
:102C400082E197E00E946708882361F064EE74E0F7
:102C500081E195E00E9417086AE081E195E00E9419
:102C60000903E9CA6CEE74E082E197E00E9467080C
:102C70006CEE74E08111ECCF63EF74E082E197E0D9
:102C80000E946708882309F4D6CAD0921602C0921F
:102C90001502E2CB88EE96E00E945F088EEE96E089
:102CA0000E945F0884EF96E00E945F088AEF96E03A
:102CB0000E945F0880E097E00E945F0886E097E04E
:102CC0000E945F088CE097E00E945F0882E197E035
:102CD0000C945F081F93FC0199278827BC01E89496
:102CE00011911032E9F3193010F01E30C8F31B3285
:102CF00051F01D3249F4689406C00E949116610F8C
:102D0000711D811D911D119110531A30B0F33EF4C5
:102D100090958095709561957F4F8F4F9F4F1F9134
:102D20000895592F482F372F262F660F771F881F9A
:102D3000991F660F771F881F991F620F731F841FCB
:102D4000951F660F771F881F991F0895F999FECF69
:102D500092BD81BDF89A992780B50895262FF999DB
:102D6000FECF1FBA92BD81BD20BD0FB6F894FA9A6E
:102D7000F99A0FBE01960895EE0FFF1F881F8BBFB3
:102D80000790F691E02D19940F931F93CF93DF9343
:102D90008230910510F482E090E0E091A107F0917B
:102DA000A20730E020E0B0E0A0E0309799F42115D0
:102DB000310509F44AC0281B390B24303105D8F5F8
:102DC0008A819B816115710589F1FB01938382835F
:102DD000FE0111C0408151810281138148175907BA
:102DE000E0F04817590799F4109761F012960C9388
:102DF000129713961C933296CF01DF91CF911F91BA
:102E00000F9108950093A1071093A207F4CF211505
:102E1000310551F04217530738F0A901DB019A013F
:102E2000BD01DF01F801C1CFEF01F9CF9093A207F7
:102E30008093A107CDCFFE01E20FF31F8193919301
:102E40002250310939832883D7CF20919F073091B1
:102E5000A007232B41F420913102309132023093AC
:102E6000A00720939F0720912F0230913002211557
:102E7000310541F42DB73EB74091330250913402F1
:102E8000241B350BE0919F07F091A007E217F30791
:102E9000A0F42E1B3F0B2817390778F0AC014E5FCA
:102EA0005F4F2417350748F04E0F5F1F5093A00760
:102EB00040939F07819391939FCFF0E0E0E09CCFF8
:102EC000CF93DF930097E9F0FC01329713821282CF
:102ED000A091A107B091A207ED0130E020E010978A
:102EE000A1F420813181820F931F20919F0730919F
:102EF000A0072817390709F061C0F093A007E093F5
:102F00009F07DF91CF910895EA01CE17DF07E8F51B
:102F10004A815B819E0141155105B1F7E901FB83AF
:102F2000EA8349915991C40FD51FEC17FD0761F44D
:102F3000808191810296840F951FE901998388838E
:102F4000828193819B838A83F0E0E0E012968D91E9
:102F50009C9113970097B9F52D913C911197CD0154
:102F60000296820F931F20919F073091A007281788
:102F7000390739F6309751F51092A2071092A10740
:102F8000B093A007A0939F07BCCFD383C283408197
:102F90005181840F951FC817D90761F44E5F5F4FA9
:102FA00088819981480F591F518340838A819B8171
:102FB000938382832115310509F0B0CFF093A207E6
:102FC000E093A1079ECFFD01DC01C0CF13821282E6
:102FD000D7CF4F925F926F927F928F929F92AF92D4
:102FE000BF92CF92DF92EF92FF920F931F93CF93F6
:102FF000DF938C01009799F4CB01DF91CF911F9162
:103000000F91FF90EF90DF90CF90BF90AF909F9087
:103010008F907F906F905F904F900C94C416FC013E
:10302000E60FF71F9C0122503109E217F30708F45D
:10303000AEC0D901CD91DC911197C617D70720F109
:10304000C530D10578F0CE0104978617970750F068
:10305000C61BD70B2297C193D1936D937C93CF015D
:103060000E946017C801DF91CF911F910F91FF90CF
:10307000EF90DF90CF90BF90AF909F908F907F9018
:103080006F905F904F9008955B01AC1ABD0A4C01A0
:103090008C0E9D1EA091A107B091A207512C412C2E
:1030A000F12CE12C109731F580919F079091A007AA
:1030B0008815990509F05CC04616570608F058C0F7
:1030C00080912F0290913002009741F48DB79EB706
:1030D0004091330250913402841B950BE817F90795
:1030E00008F055C0F093A007E0939F07F9017183A2
:1030F0006083B8CF8D919C91119712966C90129726
:1031000013967C901397A815B90559F56C0142E008
:10311000C40ED11CCA14DB0420F1AC014A195B09AE
:10312000DA011296159780F0628273825183408390
:10313000D9016D937C93E114F10471F0D7011396DA
:10314000FC93EE9312978ECF22968C0F9D1FF90160
:1031500091838083F301EFCFF093A207E093A1075F
:1031600081CF4816590608F42C017D01D3019ACF6E
:10317000CB010E94C4167C01009749F0AE01B80152
:103180000E94CA18C8010E94601787016BCF10E027
:1031900000E068CFFB01DC0102C001900D924150BC
:1031A0005040D8F70895FB01DC018D910190801902
:1031B0000110D9F3990B0895FB01DC0101900D92E8
:1031C0000020E1F7089511E0CBE5D1E000E006C072
:1031D000802FFE010E94BC162196011DCC35D1071F
:1031E00080E00807A9F7F894FFCF00040C1F1F0C1C
:1031F000040001010101010004061F1F0604000272
:1032000000202122231C1D1E1F313233413435364C
:1032100042373839432A3023440000A30780000096
:10322000000000BC02F9013F020B0370024E026273
:10323000020000000055041504E40300000000F53E
:1032400007F9019E06EA014269656E76656E69645A
:103250006F00477275706F31332D53656363696F0B
:103260006E41004C4F47494E00496E6963696520C5
:10327000536573696F6E00496E677265736520559B
:1032800073756172696F00496E677265736520506E
:10329000617373776F7264002A00313131313131DB
:1032A000003030303030300043726564656E6369E1
:1032B000616C657300436F72726563746173004182
:1032C000646D696E0061646D696E00323232323253
:1032D000320056696E63756C65206C610061706CBC
:1032E00069636163696F6E00496E636F72726563D3
:1032F000746173007573657200636F6E65637461EA
:10330000646F0041706C69636163696F6E00566938
:103310006E63756C616461004F6274656E69656EA1
:10332000646F007573756172696F2061707000550C
:1033300073756172696F206F6274656E69646F0086
:1033400070617373776F7264206170700050617385
:1033500073776F7264206F6274656E69646F006961
:103360006E76616C6964617300746F6B656E206169
:10337000707000546F6B656E206F6274656E696467
:103380006F00496E677265736520656C20746F6BA2
:10339000656E00546F6B656E20696E76616C696452
:1033A0006F007573756172696F0050616E63686F4D
:1033B000004572726F7200696E636F72726563743A
:1033C0006F00312E43525544205573756172696FF9
:1033D0007300322E5265706F7274657300442E0054
:1033E0004F7063696F6E20496E76616C696461002D
:1033F000332E43657272617220536573696F6E007C
:10340000312E437265617200322E4D6F64696669B8
:1034100063617200332E566572205573756172694F
:103420006F7300342E456C696D696E617200352EC4
:1034300053616C6972005573756172696F206372B4
:103440006561646F00496E6772657365206EC3BA0B
:103450006D65726F006465207573756172696F3A8E
:1034600000496E6772657365206E7565766F0063DF
:10347000C3B36469676F3A00496E6772657365200C
:103480006E7565766100636F6E7472617365C3B14A
:10349000613A005573756172696F206D6F6469667A
:1034A000696361646F005665722075737561726936
:1034B0006F73005573756172696F20626F7272610C
:1034C000646F000D0A0070657175656E6F006D6543
:1034D0006469616E6F006772616E64650063657236
:0434E00072617200A3
:020000040003F7
:10E000000D9489F10D94B2F10D94B2F10D94B2F129
:10E010000D94B2F10D94B2F10D94B2F10D94B2F1F0
:10E020000D94B2F10D94B2F10D94B2F10D94B2F1E0
:10E030000D94B2F10D94B2F10D94B2F10D94B2F1D0
:10E040000D94B2F10D94B2F10D94B2F10D94B2F1C0
:10E050000D94B2F10D94B2F10D94B2F10D94B2F1B0
:10E060000D94B2F10D94B2F10D94B2F10D94B2F1A0
:10E070000D94B2F10D94B2F10D94B2F10D94B2F190
:10E080000D94B2F10D94B2F10D94B2F10D94B2F180
:10E090000D94B2F10D94B2F10D94B2F10D94B2F170
:10E0A0000D94B2F10D94B2F10D94B2F10D94B2F160
:10E0B0000D94B2F10D94B2F10D94B2F10D94B2F150
:10E0C0000D94B2F10D94B2F10D94B2F10D94B2F140
:10E0D0000D94B2F10D94B2F10D94B2F10D94B2F130
:10E0E0000D94B2F141546D656761323536300041AF
:10E0F000726475696E6F206578706C6F72657220DE
:10E1000073746B3530305632206279204D4C530099
:10E11000426F6F746C6F616465723E004875683F52
:10E1200000436F6D70696C6564206F6E203D200048
:10E130004350552054797065202020203D20005FF9
:10E140005F4156525F415243485F5F3D2000415658
:10E1500052204C696243205665723D20004743437C
:10E160002056657273696F6E203D20004350552024
:10E1700049442020202020203D20004C6F7720663D
:10E18000757365202020203D20004869676820665F
:10E190007573652020203D200045787420667573D6
:10E1A00065202020203D20004C6F636B2066757336
:10E1B000652020203D20004D617220203720323024
:10E1C000313300312E362E3800342E332E350056A2
:10E1D00023202020414444522020206F7020636F70
:10E1E00064652020202020696E73747275637469E1
:10E1F0006F6E2061646472202020496E74657272B3
:10E20000757074006E6F20766563746F7200726A49
:10E210006D702020006A6D70200057686174207056
:10E220006F72743A00506F7274206E6F7420737541
:10E2300070706F72746564004D7573742062652030
:10E2400061206C6574746572002000577269747483
:10E25000696E672045450052656164696E672045B7
:10E26000450045452065727220636E743D00504F35
:10E27000525400303D5A65726F2061646472003FF1
:10E280003D43505520737461747300403D454550C3
:10E29000524F4D207465737400423D426C696E6B41
:10E2A000204C454400453D44756D70204545505215
:10E2B0004F4D00463D44756D7020464C415348001B
:10E2C000483D48656C70004C3D4C69737420492F83
:10E2D0004F20506F72747300513D51756974005234
:10E2E0003D44756D702052414D00563D73686F7707
:10E2F00020696E7465727275707420566563746FF0
:10E30000727300593D506F727420626C696E6B00BD
:10E310002A0011241FBECFEFD1E2DEBFCDBF01E046
:10E320000CBF12E0A0E0B2E0EEE1FDEF03E00BBFB6
:10E3300002C007900D92A030B107D9F712E0A0E01B
:10E34000B2E001C01D92AE30B107E1F70F9460F367
:10E350000D948DFE01E20EBF0FEF0DBF11241FBE05
:10E360000D9460F30D9400F020E030E040ED57E0B4
:10E3700005C0FA013197F1F72F5F3F4F2817390792
:10E38000C0F308959C01260F311DC901A0E0B0E043
:10E390002F5F3F4FABBFFC018791882361F08093D3
:10E3A000C6008091C00086FFFCCF8091C0008064D1
:10E3B0008093C000EACF08958DE08093C6008091DD
:10E3C000C00086FFFCCF8091C00080648093C000B5
:10E3D0008AE08093C6008091C00086FFFCCF8091C8
:10E3E000C00080648093C00008950F94C2F10F9420
:10E3F000DCF10895FC019081992359F09093C600B7
:10E400008091C00086FFFCCF8091C0008064809323
:10E41000C0003196992379F70895282F982F929567
:10E420009F70892F805D8A3308F0895F8093C600D2
:10E430008091C00086FFFCCF8091C00080648093F3
:10E44000C000822F8F70982F905D9A3308F0995FEB
:10E450009093C6008091C00086FFFCCF8091C000E1
:10E4600080648093C00008959C01FB01853691056E
:10E470001CF46330710594F0C90164E670E00F94F8
:10E480002EFE605D7F4F6093C6008091C00086FFC6
:10E49000FCCF8091C00080648093C0002B30310598
:10E4A00014F43297B4F0C90164E670E00F942EFEC4
:10E4B0006AE070E00F942EFE605D7F4F6093C600AF
:10E4C0008091C00086FFFCCF8091C0008064809363
:10E4D000C000C9016AE070E00F942EFEC0968093E0
:10E4E000C6008091C00086FFFCCF8091C000806490
:10E4F0008093C00008951F93182F8EE692EE60E07F
:10E500000F94C2F11093C6008091C00086FFFCCF2B
:10E510008091C00080648093C0000F94DCF11F9153
:10E5200008952F923F924F925F926F927F928F92B7
:10E530009F92AF92BF92CF92DF92EF92FF920F9392
:10E540001F93DF93CF93CDB7DEB762970FB6F894E2
:10E55000DEBF0FBECDBF382E622ECA01DB015C01CB
:10E560006D01772420E2222E2E010894411C511CBB
:10E570008BC081E0A81680E0B80681E0C80680E084
:10E58000D80628F0C601AA27BB270F940DF2BB2797
:10E59000AD2D9C2D8B2D0F940DF28A2D0F940DF225
:10E5A0002092C6008091C00086FFFCCF8091C00001
:10E5B00080648093C0009DE29093C6008091C0006B
:10E5C00086FFFCCF8091C00080648093C0002092C1
:10E5D000C6008091C00086FFFCCF8091C00080649F
:10E5E0008093C00019828601750188249924A1E0D6
:10E5F0003A1651F03A1620F0B2E03B1661F409C029
:10E600000BBFF701779007C0C7010F9477FE782EF4
:10E6100002C0F7017080872D0F940DF22092C60082
:10E620008091C00086FFFCCF8091C0008064809301
:10E63000C000872D8052F401EF70F0708F3520F408
:10E64000E40DF51D708204C0E40DF51D8EE280839B
:10E650000894E11CF11C011D111D0894811C911CE2
:10E6600090E18916910409F0C2CF80E190E0A0E02A
:10E67000B0E0A80EB91ECA1EDB1E198AC2010F9493
:10E68000FAF10F94DCF16A94662009F072CF629679
:10E690000FB6F894DEBF0FBECDBFCF91DF911F91B3
:10E6A0000F91FF90EF90DF90CF90BF90AF909F9031
:10E6B0008F907F906F905F904F903F902F90089534
:10E6C0002F923F924F925F926F927F928F929F9282
:10E6D000AF92BF92CF92DF92EF92FF920F931F9370
:10E6E000DF93CF93CDB7DEB7CD53D1400FB6F894BB
:10E6F000DEBF0FBECDBF01E20EBF0FEF0DBF94B75F
:10E70000F894A89514BE80916000886180936000A1
:10E7100010926000789493FF05C0E0910002F091A0
:10E7200001021995279A2F9A8091C00082608093E8
:10E73000C00080E18093C40088E18093C1000000A4
:10E74000EE24FF24870144E0A42EB12CCC24DD2448
:10E7500024C0C5010197F1F70894E11CF11C011DCB
:10E76000111D21E2E2162EE4F20620E0020720E06D
:10E77000120718F031E0C32ED12CC801B70127ECE5
:10E780003BE140E050E00F9441FE611571058105C9
:10E79000910519F485B1805885B98091C00087FD35
:10E7A00003C0C114D104A9F2A6014F5F5F4FC25E3E
:10E7B000DE4F59834883CE51D140C25EDE4F8881FF
:10E7C0009981CE51D140019711F00D9410FEC05D9A
:10E7D000DE4F19821882C053D14060E0C15DDE4F28
:10E7E0001882CF52D14088249924C35DDE4F19820C
:10E7F0001882CD52D140C05EDE4F188219821A8233
:10E800001B82C052D140CE5CDE4F188219821A8220
:10E810001B82C253D140EE24FF2487010BBFF701B6
:10E8200007911691C45CDE4F19830883CC53D14005
:10E830000D940BFEC25EDE4F28813981CE51D1404E
:10E840002130310509F52091C600C25EDE4F1982E4
:10E850001882CE51D14022C02F5F3F4F4F4F5F4FA4
:10E86000213082E138078AE7480780E0580780F0C6
:10E87000C45CDE4FE881F981CC53D140EF5FFF4F9C
:10E8800019F0EE27FF27099420E030E040E050E047
:10E890008091C00087FFE0CF2091C600C35DDE4FAE
:10E8A00048815981CD52D1404F5F5F4FC35DDE4FEC
:10E8B00059834883CD52D140213209F063C64A3092
:10E8C000510508F05FC60894811C911C53E0851621
:10E8D000910409F059C600E010E018C081E280936D
:10E8E000C6008091C00086FFFCCF8091C00080648C
:10E8F0008093C0002F5F3F4F2931310579F70F9486
:10E90000DCF10F5F1F4F0530110519F020E030E0FA
:10E91000E5CF10920A0210920B0210920C02109294
:10E920000D02109206021092070210920802109235
:10E930000902109202021092030210920402109235
:10E9400005028FEE90EE60E00F94F5F180E191EE1C
:10E9500060E00F94C2F18091C00087FFFCCF9091DE
:10E96000C600903608F09F759032B8F09093C600BC
:10E970008091C00086FFFCCF8091C00080648093AE
:10E98000C000A0E2A093C6008091C00086FFFCCF2B
:10E990008091C00080648093C000983409F4D7C18E
:10E9A0009934B8F4923409F459C1933458F490333B
:10E9B00019F1903308F4E3C59F33A1F1903409F0C5
:10E9C000DEC5BDC0953409F470C1963409F0D7C5D1
:10E9D00098C1923509F42BC2933538F49C3409F46C
:10E9E000F5C1913509F0CBC518C2963509F445C279
:10E9F000993509F0C4C567C483E792EE62E00F94CD
:10EA0000F5F110920602109207021092080210927D
:10EA1000090210920A0210920B0210920C0210923C
:10EA20000D0213C18FE792EE62E00F94F5F18FEEC5
:10EA300090EE60E00F94F5F181E291EE60E00F94CA
:10EA4000C2F187EB91EE60E00F94F5F180E391EE77
:10EA500060E00F94C2F184EE90EE60E00F94F5F167
:10EA60008FE391EE60E00F94C2F186E090E061E008
:10EA700070E00F9434F20F94DCF18DE591EE60E0DC
:10EA80000F94C2F189EC91EE60E00F94F5F18EE401
:10EA900091EE60E00F94C2F183EC91EE60E00F9490
:10EAA000F5F18CE691EE60E00F94C2F18EE10F94E7
:10EAB0000DF288E90F940DF281E00F940DF20F949E
:10EAC000DCF18BE791EE60E00F94C2F119E0E0E039
:10EAD000F0E010935700E4918E2F0F940DF20F94F5
:10EAE000DCF18AE891EE60E00F94C2F1E3E0F0E03F
:10EAF00010935700E4918E2F0F940DF20F94DCF1D8
:10EB000089E991EE60E00F94C2F1E2E0F0E0109349
:10EB10005700E4918E2F0F940DF20F94DCF188EAE8
:10EB200091EE60E00F94C2F1E1E0F0E01093570045
:10EB30001491812F0F940DF20F94DCF107CF8BE825
:10EB400092EE62E00F94F5F18BE492EE60E00F94A8
:10EB5000F5F10F94DCF100E010E019C0C8016F2D51
:10EB60000F947FFEFF2031F489E492EE60E00F9471
:10EB7000C2F10BC0F092C6008091C00086FFFCCFAE
:10EB80008091C00080648093C0000F5F1F4FC80158
:10EB900081519F41A0E0B0E0ABBFFC01F790BAE229
:10EBA000FB1621F0E2E000301E07C1F60F94DCF105
:10EBB0000F94DCF187E592EE60E00F94F5F10F948D
:10EBC000DCF1CC24DD2400E010E01EC0C8010F946D
:10EBD00077FEF82E882331F489E492EE60E00F94FA
:10EBE000C2F10BC08093C6008091C00086FFFCCFAD
:10EBF0008091C00080648093C000FE1419F00894D6
:10EC0000C11CD11C0F5F1F4FC80181519F41A0E063
:10EC1000B0E0ABBFFC01E790FAE2EF1621F022E092
:10EC20000030120799F60F94DCF10F94DCF182E6C4
:10EC300092EE60E00F94C2F1C60161E070E00F94C3
:10EC400034F20F94DCF10F94DCF110920202109276
:10EC50000302109204021092050278CE89E992EE26
:10EC600062E00F94F5F1279A2F9A16C02F9880E052
:10EC700090E0E0EDF7E03197F1F7019684369105E9
:10EC8000C1F72F9A80E090E0E0EDF7E03197F1F7DF
:10EC9000019684369105C1F78091C00087FFE6CFC9
:10ECA0008091C00087FFFCCF64C485EA92EE62E0E9
:10ECB0000F94F5F140910202509103026091040219
:10ECC0007091050281E020E10F9491F2809102029F
:10ECD00090910302A0910402B091050280509F4FD1
:10ECE000AF4FBF4F8093020290930302A0930402A0
:10ECF000B093050280509041A040B04008F426CE69
:10ED0000A4CF83EB92EE62E00F94F5F140910602FE
:10ED100050910702609108027091090280E020E1A1
:10ED20000F9491F28091060290910702A09108023F
:10ED3000B091090280509F4FAF4FBF4F80930602A2
:10ED400090930702A0930802B0930902FFCD80ECD4
:10ED500092EE62E00F94F5F183E792EE60E00F949B
:10ED6000F5F18FE792EE60E00F94F5F18BE892EE0B
:10ED700060E00F94F5F189E992EE60E00F94F5F10F
:10ED800085EA92EE60E00F94F5F183EB92EE60E09D
:10ED90000F94F5F180EC92EE60E00F94F5F187ECC2
:10EDA00092EE60E00F94F5F188ED92EE60E00F9442
:10EDB000F5F18FED92EE60E00F94F5F18AEE92EEB0
:10EDC00060E00F94F5F183E093EEBDCD87EC92EE19
:10EDD00062E00F94F5F181E40F947BF282E40F94EA
:10EDE0007BF283E40F947BF284E40F947BF285E45E
:10EDF0000F947BF286E40F947BF287E40F947BF20E
:10EE000088E40F947BF28AE40F947BF28BE40F94F6
:10EE10007BF28CE40F947BF299CD88ED92EE62E068
:10EE20000F94F5F1772473948824992409C48FED05
:10EE300092EE62E00F94F5F140910A0250910B02BC
:10EE400060910C0270910D0282E020E10F9491F22A
:10EE500080910A0290910B02A0910C02B0910D02D8
:10EE600080509F4FAF4FBF4F80930A0290930B0289
:10EE7000A0930C02B0930D0269CD8AEE92EE62E08F
:10EE80000F94F5F184EE90EE60E00F94F5F18FECC5
:10EE900091EE60E00F94F5F1662477244301CC5D98
:10EEA000DE4F19821882C452D140D401C301B695F5
:10EEB000A79597958795CA5DDE4F88839983AA8326
:10EEC000BB83C652D140CC5DDE4FA881B981C4520C
:10EED000D1401196CC5DDE4FB983A883C452D14096
:10EEE000CD0162E070E00F9434F2B0E2B093C6005E
:10EEF0008091C00086FFFCCF8091C0008064809329
:10EF0000C000EDE2E093C6008091C00086FFFCCF18
:10EF10008091C00080648093C000F0E2F093C6004E
:10EF20008091C00086FFFCCF8091C00080648093F8
:10EF3000C000CA5DDE4FE880F9800A811B81C6529D
:10EF4000D140BB27A12F902F8F2D0F940DF2CA5DBA
:10EF5000DE4F8881C652D1400F940DF2B0E2FB2EF5
:10EF6000F092C6008091C00086FFFCCF8091C00067
:10EF700080648093C0000DE30093C6008091C000C0
:10EF800086FFFCCF8091C00080648093C00010E2B7
:10EF90001093C6008091C00086FFFCCF8091C00016
:10EFA00080648093C0008BBEF3012791C65DDE4F65
:10EFB0002883CA52D140A22EBB24CC24DD2408943D
:10EFC000611C711C811C911C8BBEF3018791282E42
:10EFD0003324442455240894611C711C811C911C09
:10EFE0008BBEF3013791C55DDE4F3883CB52D140E4
:10EFF0000894611C711C811C911C8BBEF30147910C
:10F00000C45DDE4F4883CC52D140ADEFEA2EAFEF66
:10F01000FA2EAFEF0A2FAFEF1A2F6E0C7F1C801E57
:10F02000911E142D032DF22CEE24EA0CFB1C0C1D5A
:10F030001D1D0F940DF220E22093C6008091C000A8
:10F0400086FFFCCF8091C00080648093C000C65DC5
:10F05000DE4F8881CA52D1400F940DF230E23093D6
:10F06000C6008091C00086FFFCCF8091C000806404
:10F070008093C000C45DDE4F8881CC52D1400F9494
:10F080000DF240E24093C6008091C00086FFFCCFA5
:10F090008091C00080648093C000C55DDE4F888190
:10F0A000CB52D1400F940DF250E25093C6008091A4
:10F0B000C00086FFFCCF8091C00080648093C000B8
:10F0C0008FEFE8168FEFF80680E0080780E018075A
:10F0D00031F484E092EE60E00F94C2F1DFC0D80119
:10F0E000C7018070907CA070B0708050904CA040A0
:10F0F000B040D1F52FEF3FE340E050E0E222F322B1
:10F1000004231523CA5DDE4FA880B980CA80DB8046
:10F11000C652D140AE0CBF1CC01ED11EAA0CBB1CD7
:10F12000CC1CDD1C8EE092EE60E00F94C2F1BB2798
:10F13000A12F902F8F2D0F940DF28E2D0F940DF285
:10F1400030E23093C6008091C00086FFFCCF8091F2
:10F15000C00080648093C0004EE34093C60080915D
:10F16000C00086FFFCCF87C08EE09EEFA0E0B0E03D
:10F17000E822F9220A231B239CE0E91694E9F90608
:10F1800090E0090790E0190709F088C0C45DDE4FE0
:10F19000A881CC52D140EA2EFF2400E010E0102FCD
:10F1A0000F2DFE2CEE24C55DDE4FB881CB52D14031
:10F1B000EB0EF11C011D111DD601C501817090706F
:10F1C000A070B070DC0199278827E80EF91E0A1F8D
:10F1D0001B1F20EF30E040E050E0A222B322C42207
:10F1E000D52241E1AA0CBB1CCC1CDD1C4A95D1F7F1
:10F1F000EA0CFB1C0C1D1D1D81E090E0A0E0B0E0BE
:10F20000282239224A225B2235E1220C331C441C7D
:10F21000551C3A95D1F7E20CF31C041D151D57013E
:10F220006801AA0CBB1CCC1CDD1C85E192EE60E0E1
:10F230000F94C2F1C801AA27BB270F940DF2BB2778
:10F24000A12F902F8F2D0F940DF28E2D0F940DF274
:10F2500090E29093C6008091C00086FFFCCF809121
:10F26000C00080648093C000AEE3A093C60080918C
:10F27000C00086FFFCCF8091C00080648093C000F6
:10F28000C601AA27BB270F940DF2BB27AD2D9C2DDD
:10F290008B2D0F940DF28A2D0F940DF20F94DCF14B
:10F2A000CC5DDE4FE881F981C452D140F99709F471
:10F2B0004DCBF4E0EF2EF12C012D112D6E0C7F1CA7
:10F2C000801E911EF2CD83E093EE62E00F94F5F183
:10F2D0008AE192EE60E00F94C2F18091C00087FF56
:10F2E000FCCF1091C6001F751093C6008091C0001E
:10F2F00086FFFCCF8091C00080648093C0000F9493
:10F30000DCF1812F81548A3108F036C1163409F4BA
:10F3100095C0173490F4133409F44EC0143430F40B
:10F320001134F1F0123409F01DC130C0143409F465
:10F3300059C0153409F016C16BC01A3409F4C4C0A1
:10F340001B3438F4173409F48FC0183409F00AC19B
:10F35000A1C01B3409F4D2C01C3409F003C1E8C0B9
:10F360008FEF81B90DC082B1809582B980E090E0C5
:10F37000E0EDF7E03197F1F70196883C9105C1F790
:10F380008091C00087FFEFCF12B8EFC08FEF84B934
:10F390000DC085B1809585B980E090E0E0EDF7E0A3
:10F3A0003197F1F70196883C9105C1F78091C00033
:10F3B00087FFEFCF15B8D9C08FEF87B90DC088B1DF
:10F3C000809588B980E090E0E0EDF7E03197F1F7C3
:10F3D0000196883C9105C1F78091C00087FFEFCF6F
:10F3E00018B8C3C08FEF8AB90DC08BB180958BB9A7
:10F3F00080E090E0E0EDF7E03197F1F70196883C8E
:10F400009105C1F78091C00087FFEFCF1BB8ADC059
:10F410008FEF8DB90DC08EB180958EB980E090E0F0
:10F42000E0EDF7E03197F1F70196883C9105C1F7DF
:10F430008091C00087FFEFCF1EB897C08FEF80BBD1
:10F440000DC081B3809581BB80E090E0E0EDF7E0F6
:10F450003197F1F70196883C9105C1F78091C00082
:10F4600087FFEFCF11BA81C08FEF83BB0DC084B38C
:10F47000809584BB80E090E0E0EDF7E03197F1F714
:10F480000196883C9105C1F78091C00087FFEFCFBE
:10F4900014BA6BC08FEF809301010FC080910201FD
:10F4A00080958093020180E090E0E0EDF7E03197F5
:10F4B000F1F70196883C9105C1F78091C00087FF64
:10F4C000EDCF1092020151C08FEF809304010FC065
:10F4D0008091050180958093050180E090E0E0ED4A
:10F4E000F7E03197F1F70196883C9105C1F78091DB
:10F4F000C00087FFEDCF1092050137C08FEF8093DA
:10F5000007010FC08091080180958093080180E079
:10F5100090E0E0EDF7E03197F1F70196883C910536
:10F52000C1F78091C00087FFEDCF109208011DC088
:10F530008FEF80930A010FC080910B01809580931B
:10F540000B0180E090E0E0EDF7E03197F1F70196F4
:10F55000883C9105C1F78091C00087FFEDCF1092E4
:10F560000B0103C085E292EEEEC98091C00087FFD7
:10F57000FCCF8091C600EAC988E392EEE4C98CE131
:10F5800091EEE1C988249924933011F1943028F444
:10F59000913089F09230B8F408C0953061F195301F
:10F5A000F0F0963009F048C043C02B3109F042C951
:10F5B00091E06BE13FC96227C15DDE4F2883CF52E6
:10F5C000D14092E037C9B22FA0E0622793E032C960
:10F5D000822F90E0A82BB92B622794E02BC92E3004
:10F5E00009F039C3622795E0C05DDE4F19821882A9
:10F5F000C053D1401FC9E1E0F0E0EC0FFD1FC05D3A
:10F60000DE4F08811981C053D140E00FF11F2083E4
:10F610000F5F1F4FC05DDE4F19830883C053D14079
:10F6200062270A171B0709F005C9D80196E002C92D
:10F63000261709F010C303C0973009F0FBC87724E0
:10F640009981933109F412C19431C8F4963009F4C8
:10F65000D8C0973050F4923009F406C1933009F4C1
:10F660006DC0913009F059C253C0913109F477C08F
:10F67000923108F0BBC0903109F04FC2F5C098310B
:10F6800009F487C0993150F4953109F4EFC09531F0
:10F6900008F4C6C1963109F040C2C2C19A3109F4DA
:10F6A0006CC09A3108F491C09B3109F45BC09D3164
:10F6B00009F033C29D81903359F48F81882311F46E
:10F6C0009EE11CC0813011F091E018C098E916C08D
:10F6D000892F807591F0903539F4E0E0F0E089E011
:10F6E0008093570094910AC0983539F4E3E0F0E034
:10F6F00089E080935700949101C090E01A821B82A8
:10F700008D818C831D829E831F8227E030E009C299
:10F710001A8288E08B8381E48C8386E58D8382E581
:10F720008E8389E48F8383E5888780E589878FE5E9
:10F730008A8782E38B872BE030E0F3C18A818139AD
:10F7400041F0823941F0803911F48FE005C080E04A
:10F7500003C082E001C08AE01A828B8344C0772410
:10F76000739482C08D81882311F48EE12CC0813086
:10F7700011F081E028C088E926C01A82E1E0F0E0BB
:10F7800089E08093570084918B831C8224E030E0D1
:10F79000C8C18B81803589F48C81883039F4E2E0EE
:10F7A000F0E089E08093570084910DC0E0E0F0E044
:10F7B00089E080935700849106C0E3E0F0E089E09F
:10F7C0008093570084911A82DFCF8D81836C99E0FA
:10F7D000E1E0F0E0082E90935700E89507B600FCB2
:10F7E000FDCF1A821B8223E030E09BC180EC8A832C
:10F7F000CE5CDE4F188219821A821B82C253D1401E
:10F800008EC18A8190E0A0E0B0E0582F44273327D2
:10F8100022278B8190E0A0E0B0E0DC0199278827C7
:10F82000282B392B4A2B5B2B8D8190E0A0E0B0E098
:10F83000282B392B4A2B5B2B8C8190E0A0E0B0E089
:10F84000BA2FA92F982F8827282B392B4A2B5B2BCF
:10F85000220F331F441F551FC05EDE4F288339839C
:10F860004A835B83C052D1401A8259C13A81C95C34
:10F87000DE4F3883C753D140CA5CDE4F1882C6536F
:10F88000D1408B81C82EDD24CA5CDE4F488159816E
:10F89000C653D140C42AD52A933109F082C0CE5C28
:10F8A000DE4F88819981AA81BB81C253D1408050AB
:10F8B000904CA340B04030F583E0CE5CDE4FE88052
:10F8C000F9800A811B81C253D140F70100935B008C
:10F8D00080935700E89507B600FCFDCFCE5CDE4F65
:10F8E000088119812A813B81C253D14000501F4FAA
:10F8F0002F4F3F4FCE5CDE4F088319832A833B8313
:10F90000C253D140C05EDE4F488159816A817B81FC
:10F91000C052D140DE011B9631E08C9111962C91A2
:10F9200011971296C75CDE4F2883C953D140C85C3B
:10F93000DE4F1882C853D14090E0C85CDE4FE881AA
:10F94000F981C853D1408E2B9F2B0C01FA01609393
:10F950005B0030935700E89511244E5F5F4F6F4F67
:10F960007F4F0EEFE02E0FEFF02ECE0CDF1CC114F8
:10F97000D10499F685E0C05EDE4F088119812A81A5
:10F980003B81C052D140F80120935B008093570027
:10F99000E89507B600FCFDCF81E180935700E8951C
:10F9A00035C0C05EDE4F88819981AA81BB81C0527B
:10F9B000D140B695A795979587957C018601ABE0D8
:10F9C000AA2EB12CAC0EBD1E0BC0D5016D915D01F0
:10F9D000C7010F947FFE0894E11CF11C01501040F8
:10F9E0000115110591F7A60160E070E0440F551F65
:10F9F000661F771FC05EDE4FE880F9800A811B8199
:10FA0000C052D1404E0D5F1D601F711F1A82C05E33
:10FA1000DE4F488359836A837B83C052D1407FC0C5
:10FA2000FA80C55CDE4FF882CB53D140C65CDE4F16
:10FA30001882CA53D1408B81C82EDD24C65CDE4FAC
:10FA400008811981CA53D140C02AD12A1A828981DA
:10FA5000BE016D5F7F4F843121F59601C05EDE4FA0
:10FA6000E880F9800A811B81C052D1400BBFF701A9
:10FA700087919691DB018C9311969C936E5F7F4FDB
:10FA8000D801C7010296A11DB11DC05EDE4F88835B
:10FA90009983AA83BB83C052D14022503040F1F6F3
:10FAA00036C0C05EDE4F288139814A815B81C052F9
:10FAB000D1400894C108D108760100E010E0089414
:10FAC000C11CD11C0894E11CF11C011D111DE20E8A
:10FAD000F31E041F151F21BDBB27A52F942F832FB5
:10FAE00082BD2F5F3F4F4F4F5F4FF89A80B5DB01CC
:10FAF0008D93BD012E153F054007510761F7C05E8C
:10FB0000DE4F288339834A835B83C052D1409601FC
:10FB10002D5F3F4FFB01108204C080EC8A8322E0FE
:10FB200030E08BE18093C6008091C00086FFFCCF5F
:10FB30008091C00080648093C000C15DDE4FF88179
:10FB4000CF52D140F093C6008091C00086FFFCCF19
:10FB50008091C00080648093C000432F3093C60022
:10FB60008091C00086FFFCCF8091C00080648093AC
:10FB7000C000922F2093C6008091C00086FFFCCF6A
:10FB80008091C00080648093C0008EE08093C600A6
:10FB90008091C00086FFFCCF8091C000806480937C
:10FBA000C00065E1C15DDE4FE880CF52D1406E25D7
:10FBB00069276427FE01319610C090819093C6009A
:10FBC0008091C00086FFFCCF31968091C000806498
:10FBD0008093C0006927215030402115310569F715
:10FBE0006093C6008091C00086FFFCCF8091C0006A
:10FBF00080648093C00085B1805885B9772081F4F6
:10FC0000C15DDE4F0881CF52D1400F5FC15DDE4F35
:10FC10000883CF52D14090E0A0E0B0E00D941AF4F8
:10FC200027982F9880E090E020ED37E0F901319798
:10FC3000F1F7019684369105C9F700008091C00064
:10FC40008D7F8093C00081E180935700E895EE2777
:10FC5000FF270994FFCF90E00D941AF497FB092E2B
:10FC600007260AD077FD04D02ED006D000201AF443
:10FC7000709561957F4F0895F6F7909581959F4F08
:10FC80000895A1E21A2EAA1BBB1BFD010DC0AA1FDD
:10FC9000BB1FEE1FFF1FA217B307E407F50720F0F5
:10FCA000A21BB30BE40BF50B661F771F881F991F70
:10FCB0001A9469F760957095809590959B01AC01B9
:10FCC000BD01CF010895AA1BBB1B51E107C0AA1FAC
:10FCD000BB1FA617B70710F0A61BB70B881F991FED
:10FCE0005A95A9F780959095BC01CD010895F99991
:10FCF000FECF92BD81BDF89A992780B50895262F31
:10FD0000F999FECF1FBA92BD81BD20BD0FB6F89400
:0EFD1000FA9AF99A0FBE01960895F894FFCF63
:00000001FF
