:100000000C9440010C9471010C9471010C947101D9
:100010000C9471010C9471010C9471010C94710198
:100020000C9471010C9471010C9471010C94710188
:100030000C9471010C948D080C9471010C94710155
:100040000C9471010C9471010C9471010C94710168
:100050000C9471010C9471010C9471010C944D0974
:100060000C9471010C9417090C94ED080C94710117
:100070000C9471010C9471010C9471010C94710138
:100080000C9471010C9471010C9471010C94710128
:100090000C9471010C9471010C9471010C94710118
:1000A0000C9471010C9471010C9471010C94710108
:1000B0000C9471010C9471010C9471010C947101F8
:1000C0000C9471010C9471010C9471010C947101E8
:1000D0000C9471010C9471010C9471010C947101D8
:1000E0000C9471010C9409050C94A5030C94510512
:1000F0000C94C7060C9429070C940B070C94110759
:100100000C940E050C9497090C94D1060C943505AB
:100110000C945B050C945F050C9403040C944D0542
:100120000C9424050C94F5030C9428050C942F07CB
:100130000C94E1030C943F050C942F050C941B07C1
:100140000C943B040C9420050C94D2030C942C05C5
:100150000C9443050C9409070C9488040C94F10644
:100160000C94E30C0C9455050C9439050C94DF06A3
:100170000C94470500000A0B02090C0D0E0807033A
:10018000040100000000000000000000000000006A
:10019000000000000000000000000000000000005F
:1001A000121110000000000000000000000000001C
:1001B00000000000000000000000020000220025F6
:1001C0000028002B002E0031003400020100000541
:1001D0000108010B0100002100240027002A002D46
:1001E000003000330001010000040107010A01058D
:1001F000050505070508080808020202020A0A08A0
:1002000008040404040101010101010101030303C5
:100210000303030303040707070C0C0C0C0C0C0C62
:100220000C0202020206060606060606060B0B0B69
:100230000B0B0B0B0B0102102020080810204010A4
:10024000204080020102010804020101020408109A
:1002500020408080402010080402018004020180B8
:1002600040201008040201080402010102040810E1
:100270002040800102040810204080009709E30C10
:1002800011241FBECFEFD1E2DEBFCDBF00E00CBF17
:1002900023E0A4E5B2E001C01D92A839B207E1F75E
:1002A00012E0A0E0B2E0ECE1FFE100E00BBF02C031
:1002B00007900D92A435B107D9F711E0CFE3D1E053
:1002C00000E006C021970109802FFE010E941F0D4A
:1002D000CE33D10780E00807A9F70E94430A0C94A7
:1002E0007C0F0C94000090E0FC01EB5CFD4F24912E
:1002F00081519E4FFC018491882399F090E0880FF2
:10030000991FFC01EB52FE4FA591B491FC01E554FD
:10031000FE4F859194918FB7F894EC91E22BEC937A
:100320008FBF08950F931F93CF93DF93EC01862F18
:100330001B861A86198218821E8A1F8A188E198EA9
:10034000E8E2F0E0FF83EE836C877D875F874E876E
:10035000398B288B1B8B0A8B0E9473018E850E9420
:10036000730188890E9473018A890E9473011D8A22
:100370001C8A84E090E099878887DF91CF911F9154
:100380000F9108950F931F93CF938B0190910002CB
:10039000891731F09F3F91F1CF911F910F910895EF
:1003A000EAEBF1E0C491C7FDF7CF0E947301C111E0
:1003B0003CC0980150E040E062E17AE780E090E0E4
:1003C0000E94000DBA01A90141505109610971094A
:1003D00085B5887F846085BD47BD8FEF9FEFDC01C9
:1003E0008093850290938602A0938702B09388023F
:1003F00080916E00826080936E00CECF8093000269
:10040000EAEBF1E0C4919C2FCF3F09F4C5CFC23095
:1004100009F49DC0A8F5CC2309F45BC0C13009F4F0
:1004200074C097FDB9CF0E947301980150E040E07D
:10043000C23009F0F7C064E274EF80E090E00E94FF
:10044000000DBA01A901415051096109710980915A
:10045000B100887F85608093B1004093B3008FEF37
:100460009FEFDC0180937D0290937E02A0937F0238
:10047000B0938002809170008260809370008CCF76
:10048000C43009F4ADC008F488C0C53051F61092EC
:1004900020011092210190912101986090932101F7
:1004A00090912101916090932101282F30E0F90172
:1004B000E151FE4FE491F0E0EE0FFF1FE554FE4FD7
:1004C00045915491F901EB5CFD4FE491E093690291
:1004D0006CCF14BC15BC94B5926094BD95B5916079
:1004E00095BD282F30E0F901E151FE4FE491F0E095
:1004F000EE0FFF1FE554FE4F45915491F901EB5C5F
:10050000FD4FE491E093700250CF10928000109262
:10051000810090918100986090938100909181007A
:10052000916090938100282F30E0F901E151FE4F56
:10053000E491F0E0EE0FFF1FE554FE4F459154911A
:10054000F901EB5CFD4FE491E0936F022ECF109226
:10055000B0001092B1009091B00092609093B00002
:100560009091B10091609093B100282F30E0F90193
:10057000E151FE4FE491F0E0EE0FFF1FE554FE4F16
:100580004591549150936E0240936D02F901EB5CDA
:10059000FD4FE491E0936C0208CF1092900010920E
:1005A00091009091910098609093910090919100AA
:1005B000916090939100282F30E0F901E151FE4FB6
:1005C000E491F0E0EE0FFF1FE554FE4F459154918A
:1005D000F901EB5CFD4FE491E0936B02C3E0E5CEE3
:1005E0001092A0001092A1009091A10098609093A9
:1005F000A1009091A10091609093A100282F30E07C
:10060000F901E151FE4FE491F0E0EE0FFF1FE554D8
:10061000FE4F45915491F901EB5CFD4FE491E0935D
:100620006A02C3CE60E072E18AE790E00E94000DAA
:10063000DA01C9010197A109B109AC01C130D9F4AE
:1006400020918100287F2160209381009093890070
:10065000809388008FEF9FEFDC018093810290935D
:100660008202A0938302B093840280916F00826023
:1006700080936F0091CEC330D9F420919100287FF0
:1006800021602093910090939900809398008FEFC0
:100690009FEFDC018093790290937A02A0937B0212
:1006A000B0937C028091710082608093710074CE5F
:1006B000C430D9F42091A100287F21602093A100AB
:1006C0009093A9008093A8008FEF9FEFDC018093A7
:1006D000750290937602A0937702B093780280918E
:1006E000720082608093720057CEC530D9F4209199
:1006F0002101287F2160209321019093290180937B
:1007000028018FEF9FEFDC018093710290937202BA
:10071000A0937302B09374028091730082608093FF
:1007200073003ACEC23009F498CE3CF4CC2309F4DD
:1007300053CEC13009F030CE89CFC43009F20CF469
:10074000A2CFC530D1F228CE0895AF92BF92CF92FA
:10075000DF92EF92FF920F931F93CF93DF936C0181
:100760007B018B01040F151FEB015E01AE18BF0862
:10077000C017D10759F06991D601ED91FC91019014
:10078000F081E02DC6011995892B79F7C501DF911C
:10079000CF911F910F91FF90EF90DF90CF90BF907E
:1007A000AF900895FC01538D448D252F30E0842FA8
:1007B00090E0821B930B541710F0CF960895019789
:1007C0000895FC01918D828D981761F0A28DAE0F76
:1007D000BF2FB11D5D968C91928D9F5F9F73928FFD
:1007E00090E008958FEF9FEF0895FC01918D828D29
:1007F000981731F0828DE80FF11D858D90E00895F6
:100800008FEF9FEF0895FC01918D228D892F90E04D
:10081000805C9F4F821B91098F739927089589E807
:1008200092E00E94030421E0892B09F420E0822F4A
:100830000895FC01A48DA80FB92FB11DA35ABF4F75
:100840002C91848D90E001968F739927848FA689CF
:10085000B7892C93A089B1898C91837080648C9323
:10086000938D848D981306C00288F389E02D8081D2
:100870008F7D80830895EF92FF920F931F93CF9304
:10088000DF93EC0181E0888F9B8D8C8D98131AC0CB
:10089000E889F989808185FF15C09FB7F894EE89B2
:1008A000FF896083E889F98980818370806480830F
:1008B0009FBF81E090E0DF91CF911F910F91FF905A
:1008C000EF900895F62E0B8D10E00F5F1F4F0F7302
:1008D0001127E02E8C8D8E110CC00FB607FCFACFBD
:1008E000E889F989808185FFF5CFCE010E9419043E
:1008F000F1CFEB8DEC0FFD2FF11DE35AFF4FF0828E
:100900009FB7F8940B8FEA89FB8980818062CFCFF3
:10091000CF93DF93EC01888D8823B9F0AA89BB8936
:10092000E889F9898C9185FD03C0808186FD0DC021
:100930000FB607FCF7CF8C9185FFF2CF808185FF42
:10094000EDCFCE010E941904E9CFDF91CF91089538
:1009500080E090E0892B29F00E940F0481110E9411
:10096000000080E090E0892B49F080E090E0892B46
:1009700029F00E94000081110E94000080E090E0B8
:10098000892B49F080E090E0892B29F00E9400003B
:1009900081110E94000080E090E0892B49F080E006
:1009A00090E0892B29F00E94000081110C94000036
:1009B0000895282F30E0F901EC58FE4F9491F90189
:1009C000EB5CFD4F449121513E4FF90124912223CC
:1009D00009F435C0992311F191509231F8F4E92FBF
:1009E000F0E08827E950FB4F8F4F0C941F0D28052E
:1009F0002C050905200524050E052F0535053905AB
:100A00003F05430547054D0551050E0555055B0599
:100A10005F05809180008F7780938000E22FF0E067
:100A2000EE0FFF1FE554FE4FA591B4918FB7F894D8
:100A3000EC91611148C040954E234C938FBF0895AF
:100A4000809180008F7DE8CF80918000877FE4CF08
:100A500084B58F7784BDE2CF84B58F7DFBCF809145
:100A6000B0008F778093B000D9CF8091B0008F7D98
:100A7000F9CF809190008F7780939000CFCF8091B5
:100A800090008F7DF9CF80919000877FF5CF809186
:100A9000A0008F778093A000C1CF8091A0008F7DB0
:100AA000F9CF8091A000877FF5CF809120018F77CB
:100AB00080932001B3CF809120018F7DF9CF809169
:100AC0002001877FF5CF4E2BB8CF9091000289137C
:100AD0000DC0EAEBF1E0E4919FEF90930002E23069
:100AE000E1F038F4EE2381F0E13089F060E00C941D
:100AF000D904E43049F110F1E530C1F79091730069
:100B00009D7F90937300F2CF10926E00EFCF909183
:100B10006F009D7F90936F00E9CF909170009D7F53
:100B20009093700091E09093B0009091B100987F05
:100B300094609093B1001092B300D8CF909171005F
:100B40009D7F90937100D2CF909172009D7F909382
:100B50007200CCCF3FB7F89480915D0290915E0215
:100B6000A0915F02B091600226B5A89B05C02F3FFF
:100B700019F00196A11DB11D3FBFBA2FA92F982FC3
:100B80008827BC01CD01620F711D811D911D42E0BE
:100B9000660F771F881F991F4A95D1F708958F9286
:100BA0009F92AF92BF92CF92DF92EF92FF920E94FC
:100BB000AA054B015C0188ECC82ED12CE12CF12C4C
:100BC0000E94AA05681979098A099B09683E734041
:100BD00081059105A8F321E0C21AD108E108F108C6
:100BE00088EE880E83E0981EA11CB11CC114D104AC
:100BF000E104F10429F7FF90EF90DF90CF90BF90D0
:100C0000AF909F908F9008952FB7F89460915902FC
:100C100070915A0280915B0290915C022FBF0895FF
:100C20000F931F930E9404066093910270939202A7
:100C3000809393029093940289E892E00E94E103EA
:100C400097FF1DC00E94040600919102109192022C
:100C50002091930230919402601B710B820B930BD5
:100C600000918D0210918E0220918F02309190029E
:100C70006017710782079307F8F28FEF9FEF1F91BC
:100C80000F9108950F931F93CF93DF93EC018B0186
:100C900088859985029751F46130710509F43AC04D
:100CA0006CF560E00115110509F435C0888599855A
:100CB000049751F40130110509F455C00CF035C00A
:100CC0000115110509F43EC088859985059709F03D
:100CD000C8C00A30110508F0C4C0F8018827EC58D4
:100CE000F94F8F4F0C941F0DC706D106DF06F10692
:100CF00009070B0711071B0729072F07623071052A
:100D000091F060E00330110589F68C850E94D904CA
:100D100060E005C061E08C850E94D90461E08E85A9
:100D20000E94D904C3CF61E0F0CF0230110509F170
:100D30000330110509F0C8CF61E08C850E94D90409
:100D400060E01CC061E08C850E94D90460E08E8563
:100D50000E94D90461E088890E94D90460E08A89F0
:100D60000E94D904B1CF60E08C850E94D90461E073
:100D7000EECF60E08C850E94D90461E08E850E94F0
:100D8000D90460E088890E94D90461E0E8CF60E07E
:100D90008C850E94D90461E08E850E94D90461E0AF
:100DA00009C060E08C850E94D90461E08E850E94B4
:100DB000D90460E088890E94D90460E00DC060E039
:100DC0008C850E94D90461E08E850E94D90460E080
:100DD00088890E94D90461E08A890E94D90461E06F
:100DE00011C060E08C850E94D90461E08E850E946C
:100DF000D90460E088890E94D90461E08A890E9450
:100E0000D90460E08C89DF91CF911F910F910C94F0
:100E1000D90461E0E7CF61E08C850E94D90460E0ED
:100E2000E5CF61E08C850E94D90460E08E850E9448
:100E3000D90461E0DFCF61E08C850E94D90460E0D5
:100E40008E850E94D90461E088890E94D90460E0FF
:100E5000D5CF61E08C850E94D90460E09DCF60E031
:100E6000F9CFDF91CF911F910F9108954F925F922B
:100E70006F927F928F929F92AF92BF92CF92DF92AA
:100E8000EF92FF920F931F93CF93DF93EC0181E0DA
:100E900090E09983888305E010E084E0E82EF12C4F
:100EA0009AE0C92ED12C0115110509F448C00E9401
:100EB000AA058E889F88A88CB98C2B013C01481804
:100EC00059086A087B088A809B80AC80BD804814E2
:100ED00059046A047B0438F36E8B7F8B888F998F5B
:100EE0008A859B852881398121303105E1F401967D
:100EF0009B878A872E813F818217930711F41B8677
:100F00001A86015011098A859B8528853985B60185
:100F10002530310509F0B7010E94EC0CBC01CE016F
:100F20000E944206C0CF892B21F48E819F819B872E
:100F30008A878A859B8501979B878A87E2CFDF9185
:100F4000CF911F910F91FF90EF90DF90CF90BF90C6
:100F5000AF909F908F907F906F905F904F9008958B
:100F60008F929F92AF92BF92CF92DF92EF92FF92B9
:100F7000C82ED62EE42EF22E61E00E94D90460E045
:100F80008D2D0E94D90461E08E2D0E94D90460E06D
:100F90008F2D0E94D9040E9404064B015C0124E6B7
:100FA000820E911CA11CB11C0E94040668157905D3
:100FB0008A059B05C8F361E08C2D0E94D90460E08E
:100FC0008D2D0E94D90460E08E2D0E94D90461E02D
:100FD0008F2D0E94D9040E9404064B015C0124E677
:100FE000820E911CA11CB11C0E9404066815790593
:100FF0008A059B05C8F360E08C2D0E94D90461E04E
:101000008D2D0E94D90460E08E2D0E94D90461E0EC
:101010008F2D0E94D9040E9404064B015C0124E636
:10102000820E911CA11CB11C0E9404066815790552
:101030008A059B05C8F360E08C2D0E94D90461E00D
:101040008D2D0E94D90461E08E2D0E94D90460E0AC
:101050008F2D0E94D9040E9404066093540270935D
:10106000550280935602909357026B017C0124E64F
:10107000C20ED11CE11CF11C0E9404066C157D05FA
:101080008E059F05C8F3FF90EF90DF90CF90BF9043
:10109000AF909F908F90089520912A0330912B0359
:1010A000232B39F421E0FC018081882361F020E0CA
:1010B0000AC0BC0180912603909127030E946C0F07
:1010C00021E0892BA1F7822F08950F931F93CF93CF
:1010D000DF93EC0188819981009759F02A813B8147
:1010E0002617370730F081E0DF91CF911F910F91E4
:1010F00008958B016F5F7F4F0E94820E009759F019
:10110000998388831B830A832C813D81232B59F784
:10111000FC011082E8CF80E0E7CF1F920F920FB65C
:101120000F9211240BB60F922F933F934F935F931F
:101130006F937F938F939F93AF93BF93EF93FF939F
:1011400080917D0290917E02A0917F02B0918002F9
:10115000892B8A2B8B2BE1F190916C02E0916D022F
:10116000F0916E0280818927808380917D02909129
:101170007E02A0917F02B0918002181619061A060D
:101180001B069CF480917D0290917E02A0917F02CB
:10119000B09180020197A109B10980937D029093DB
:1011A0007E02A0937F02B0938002FF91EF91BF91E6
:1011B000AF919F918F917F916F915F914F913F91EF
:1011C0002F910F900BBE0F900FBE0F901F90189590
:1011D000809100020E946505E8CF1F920F920FB622
:1011E0000F9211240BB60F922F933F934F935F935F
:1011F0006F937F938F939F93AF93BF93EF93FF93DF
:1012000089E892E00E941904FF91EF91BF91AF919C
:101210009F918F917F916F915F914F913F912F910E
:101220000F900BBE0F900FBE0F901F9018951F923E
:101230000F920FB60F9211240BB60F922F938F932C
:101240009F93EF93FF93E0919902F0919A0280812E
:10125000E0919F02F091A00282FD1DC090818091DB
:10126000A2028F5F8F732091A302821741F0E09159
:10127000A202F0E0E757FD4F958F8093A202FF9105
:10128000EF919F918F912F910F900BBE0F900FBEFA
:101290000F901F9018958081F2CF1F920F920FB67A
:1012A0000F9211242F933F938F939F93AF93BF93EC
:1012B0008091590290915A02A0915B02B0915C0218
:1012C0003091580223E0230F2D3758F50196A11DC8
:1012D000B11D209358028093590290935A02A09313
:1012E0005B02B0935C0280915D0290915E02A091DE
:1012F0005F02B09160020196A11DB11D80935D0255
:1013000090935E02A0935F02B0936002BF91AF9191
:101310009F918F913F912F910F900FBE0F901F9033
:10132000189526E8230F0296A11DB11DD2CF0F9369
:101330001F9310928C0210928B0288EE93E0A0E033
:10134000B0E080938D0290938E02A0938F02B093B1
:1013500090028BE092E090938A028093890285EC60
:1013600090E0909396028093950284EC90E09093A5
:1013700098028093970280EC90E090939A02809379
:10138000990281EC90E090939C0280939B0282EC06
:1013900090E090939E0280939D0286EC90E0909363
:1013A000A00280939F021092A2021092A3021092B8
:1013B000A4021092A5020DE110E02CE130E04BE117
:1013C00050E06AE170E08AE793E00E94920102E255
:1013D00010E023E230E044E250E065E270E080E6B5
:1013E00093E00E9492010DE210E02CE230E04BE22B
:1013F00050E06AE270E086E493E00E94920105E327
:1014000010E024E330E043E350E062E370E08CE27C
:1014100093E00E94920110922703109226031092EB
:1014200029031092280310922B0310922A0370E0D4
:1014300060E086E293E00E946508209126033091E7
:101440002703811115C02115310519F0C9010E942A
:10145000F90D109227031092260310922B0310927D
:101460002A0310922903109228031F910F910895C7
:1014700010922B0310922A0362E272E0C9011F91BD
:101480000F910C94750FCF93DF9300D000D01F9273
:101490001F92CDB7DEB7789484B5826084BD84B5E1
:1014A000816084BD85B5826085BD85B5816085BD5F
:1014B00080916E00816080936E0010928100809117
:1014C000810082608093810080918100816080939F
:1014D0008100809180008160809380008091B100C4
:1014E00084608093B1008091B00081608093B000EF
:1014F0008091910082608093910080919100816041
:101500008093910080919000816080939000809101
:10151000A10082608093A1008091A10081608093EE
:10152000A1008091A00081608093A00080912101A2
:10153000826080932101809121018160809321014B
:101540008091200181608093200180917A008460E5
:1015500080937A0080917A00826080937A008091F3
:101560007A00816080937A0080917A00806880930D
:101570007A001092C100E0919902F0919A0282E003
:101580008083E0919502F09196021082E09197029B
:10159000F09198028FEC80831092A102E0919D025D
:1015A000F0919E0286E08083E0919B02F0919C0284
:1015B000808180618083E0919B02F0919C02808118
:1015C00088608083E0919B02F0919C02808180681A
:1015D0008083E0919B02F0919C0280818F7D8083CB
:1015E0002091800330918103032E000C440B550B96
:1015F000812C87E8982E83E9A82E83E0B82EC501B8
:10160000B4010E94000D98E8C92E93E1D92EE12C77
:10161000F12CCA01B901A70196010E94000D209387
:101620007C0330937D0340937E0350937F0320918E
:10163000660330916703032E000C440B550BC50164
:10164000B4010E94000DCA01B901A70196010E94D0
:10165000000D20936203309363034093640350931F
:10166000650320914C0330914D03032E000C440B75
:10167000550BC501B4010E94000DCA01B901A701B3
:1016800096010E94000D2093480330934903409334
:101690004A0350934B032091320330913303032EBE
:1016A000000C440B550BC501B4010E94000DCA018A
:1016B000B901A70196010E94000D20932E033093DB
:1016C0002F03409330035093310316E1812F0E9482
:1016D00073011F5F1633D1F712E0812F0E9473014F
:1016E0001F5F1830D1F701E010E089E892E00E9416
:1016F0000304181619060CF0CAC01A8219821C823B
:101700001B821E821D8270E060E0CE0101960E9465
:10171000650829813A8181112FC02115310519F001
:10172000C9010E94F90D1A8219821E821D821C8233
:101730001B820E94100697FD27C08A30910521F177
:101740008F831886ED80FE808FEFE81AF80AB701C4
:10175000CE0101960E946508882359F329813A81B8
:101760008D819E81BE01695F7F4F820F931F0E9412
:10177000750FFE82ED82DDCF1E821D8262E272E075
:10178000C9010E94750FD5CF809126039091270340
:10179000009709F4D1C069817A816115710509F456
:1017A000C9C040912803509129032D813E814217E1
:1017B000530708F4BFC00E94750F8D819E819093DE
:1017C0002B0380932A031E821D8289819A810097B0
:1017D00011F00E94F90D89E192E00E944C088823E3
:1017E00009F4C1C0109368020093670283E292E09B
:1017F0000E944C08882309F4C2C01093660200932B
:1018000065028DE292E00E944C08882309F4C3C06F
:10181000109364020093630287E392E00E944C08F5
:10182000882309F4C4C0109362020093610281E42A
:1018300092E00E944C08882351F069E471E087E04F
:101840000E94C2010E94CF0587E00E94650587E4DF
:1018500092E00E944C08882351F065E271E086E036
:101860000E94C2010E94CF0586E00E9465058DE4BA
:1018700092E00E944C08882351F068E871E085E00E
:101880000E94C2010E94CF0585E00E9465058091FB
:10189000670290916802019771F426E130E047E118
:1018A00050E068E170E089E190E00E94B0078AE7CB
:1018B00093E00E943607809165029091660201973D
:1018C00071F421E230E040E250E06FE170E08EE13F
:1018D00090E00E94B00780E693E00E943607809176
:1018E000630290916402019771F426E230E047E2CE
:1018F00050E068E270E089E290E00E94B00786E480
:1019000093E00E94360780916102909162020197F4
:1019100071F42EE230E04FE250E060E370E081E3EA
:1019200090E00E94B0078CE293E00E9436070E948C
:10193000A804DBCE0E94F90D89819A819093270338
:10194000809326038B819C819093290380932803A5
:101950008D819E8190932B0380932A031A82198292
:101960001C821B8230CF8EE192E00E944C088823BB
:1019700009F43CCF109268021092670237CF88E2D8
:1019800092E00E944C08882309F43BCF1092660233
:101990001092650236CF82E392E00E944C088823C1
:1019A00009F43ACF109264021092630235CF8CE3AF
:1019B00092E00E944C08882309F439CF1092620209
:1019C0001092610234CF80912603909127030097F3
:1019D00011F00C94F90D089597FB072E16F400945E
:1019E00007D077FD09D00E94270D07FC05D03EF4F3
:1019F000909581959F4F0895709561957F4F0895BB
:101A0000052E97FB1EF400940E94170D57FD07D07A
:101A10000E943B0D07FC03D04EF40C94170D50951B
:101A20004095309521953F4F4F4F5F4F08959095CA
:101A30008095709561957F4F8F4F9F4F0895EE0F62
:101A4000FF1F881F8BBF0790F691E02D1994AA1BEA
:101A5000BB1B51E107C0AA1FBB1FA617B70710F099
:101A6000A61BB70B881F991F5A95A9F780959095CB
:101A7000BC01CD010895A1E21A2EAA1BBB1BFD01DA
:101A80000DC0AA1FBB1FEE1FFF1FA217B307E4075D
:101A9000F50720F0A21BB30BE40BF50B661F771FB5
:101AA000881F991F1A9469F7609570958095909595
:101AB0009B01AC01BD01CF0108950F931F93CF93FC
:101AC000DF938230910510F482E090E0E09196037C
:101AD000F091970330E020E0B0E0A0E0309799F477
:101AE0002115310509F44AC0281B390B2430310572
:101AF000D8F58A819B816115710589F1FB0193837A
:101B00008283FE0111C040815181028113814817F7
:101B10005907E0F04817590799F4109761F01296A9
:101B20000C93129713961C933296CF01DF91CF91AD
:101B30001F910F9108950093960310939703F4CF8C
:101B40002115310551F04217530738F0A901DB0187
:101B50009A01BD01DF01F801C1CFEF01F9CF9093E8
:101B6000970380939603CDCFFE01E20FF31F81937D
:101B700091932250310939832883D7CF2091940340
:101B800030919503232B41F42091030230910402FC
:101B90003093950320939403209101023091020227
:101BA0002115310541F42DB73EB740910502509102
:101BB0000602241B350BE0919403F0919503E21784
:101BC000F307A0F42E1B3F0B2817390778F0AC0160
:101BD0004E5F5F4F2417350748F04E0F5F1F50933D
:101BE000950340939403819391939FCFF0E0E0E0BD
:101BF0009CCFCF93DF930097E9F0FC0132971382DB
:101C00001282A0919603B0919703ED0130E020E09D
:101C10001097A1F420813181820F931F20919403AA
:101C2000309195032817390709F061C0F0939503A7
:101C3000E0939403DF91CF910895EA01CE17DF0777
:101C4000E8F54A815B819E0141155105B1F7E90133
:101C5000FB83EA8349915991C40FD51FEC17FD0707
:101C600061F4808191810296840F951FE901998327
:101C70008883828193819B838A83F0E0E0E01296DF
:101C80008D919C9113970097B9F52D913C911197E7
:101C9000CD010296820F931F2091940330919503FA
:101CA0002817390739F6309751F51092970310929B
:101CB0009603B0939503A0939403BCCFD383C283C0
:101CC00040815181840F951FC817D90761F44E5F79
:101CD0005F4F88819981480F591F518340838A81C2
:101CE0009B81938382832115310509F0B0CFF09356
:101CF0009703E09396039ECFFD01DC01C0CF1382D2
:101D00001282D7CF4F925F926F927F928F929F9263
:101D1000AF92BF92CF92DF92EF92FF920F931F93F9
:101D2000CF93DF938C01009799F4CB01DF91CF9192
:101D30001F910F91FF90EF90DF90CF90BF90AF90E9
:101D40009F908F907F906F905F904F900C945D0D5F
:101D5000FC01E60FF71F9C0122503109E217F3073F
:101D600008F4AEC0D901CD91DC911197C617D70701
:101D700020F1C530D10578F0CE010497861797077A
:101D800050F0C61BD70B2297C193D1936D937C93D0
:101D9000CF010E94F90DC801DF91CF911F910F91E2
:101DA000FF90EF90DF90CF90BF90AF909F908F907B
:101DB0007F906F905F904F9008955B01AC1ABD0AC1
:101DC0004C018C0E9D1EA0919603B0919703512C4F
:101DD000412CF12CE12C109731F5809194039091D6
:101DE00095038815990509F05CC04616570608F05A
:101DF00058C08091010290910202009741F48DB782
:101E00009EB74091050250910602841B950BE8177E
:101E1000F90708F055C0F0939503E0939403F90196
:101E200071836083B8CF8D919C91119712966C90BD
:101E3000129713967C901397A815B90559F56C0164
:101E400042E0C40ED11CCA14DB0420F1AC014A19D3
:101E50005B09DA011296159780F0628273825183D2
:101E60004083D9016D937C93E114F10471F0D701A3
:101E70001396FC93EE9312978ECF22968C0F9D1F94
:101E8000F90191838083F301EFCFF0939703E093FF
:101E9000960381CF4816590608F42C017D01D30121
:101EA0009ACFCB010E945D0D7C01009749F0AE01F5
:101EB000B8010E94630FC8010E94F90D87016BCF22
:101EC00010E000E068CFFB01DC0102C001900D9240
:101ED00041505040D8F70895FB01DC018D910190ED
:101EE00080190110D9F3990B0895FB01DC010190D1
:101EF0000D920020E1F7089511E0CFE3D1E000E07A
:101F000006C0802FFE010E941F0D2196011DC034C6
:0C1F1000D10780E00807A9F7F894FFCF84
:101F1C00FF000098038000000000003B04A503D2E2
:101F2C000388040304E103F503656E6331006170FB
:101F3C00613100656E6332006170613200656E6301
:101F4C0033006170613300656E633400617061341D
:101F5C000062757A7A310062757A7A320062757A2B
:041F6C007A330000C4
:00000001FF
