:020000040000FA
:100000000C9464010C9495010C9495010C94950149
:100010000C9495010C9495010C9495010C94950108
:100020000C9495010C9495010C9495010C949501F8
:100030000C9495010C9495010C9495010C949501E8
:100040000C9495010C9495010C9495010C949501D8
:100050000C9495010C9495010C9495010C948011CD
:100060000C9495010C9456110C942C110C94950140
:100070000C9495010C9495010C9495010C949501A8
:100080000C9495010C9495010C9495010C94950198
:100090000C9402110C94D8100C9495010C949501B9
:1000A0000C9495010C9495010C9495010C94950178
:1000B0000C9495010C9495010C9495010C94950168
:1000C0000C9495010C9495010C9495010C94AE1030
:1000D0000C9484100C9495010C9495010C9495014A
:1000E0000C9495010C94E21B0C9483030C94D8148B
:1000F0000C94C9150C94A9030C9460020C94F7019C
:100100000C944C020C94571A0C948A150C94070307
:100110000C94A5030C940B150C9411040C943D0243
:100120000C949B030C948B140C944B150C94AF0300
:100130000C94E1010C943F180C946E020C94161769
:100140000C94E1070C94BA020C9497030C94AF1B27
:100150000C9474030C94E0030C9414190C948E14F6
:100160000C94A1030C9405210C9480030C94AE0311
:100170000C94B3030C948A060C9478030C949303A8
:100180000C94031D0C9489030C9458170C947C0355
:100190000C948D030C9451040C9487140C94CA1184
:1001A0000C946E0300002100240027002A002D007B
:1001B0003000330001010000040107010A010000C2
:1001C0002200250028002B002E00310034000201FF
:1001D0000000050108010B0100002000230026009B
:1001E00029002C002F00320000010000030106014D
:1001F00009010505050507050808080802020202AD
:100200000A0A0808040404040101010101010101B2
:100210000303030303030303040707070C0C0C0C7D
:100220000C0C0C0C02020202060606060606060666
:100230000B0B0B0B0B0B0B0B0102102020080810F3
:100240002040102040800201020108040201010246
:10025000040810204080804020100804020180041F
:10026000020180402010080402010804020101027A
:100270000408102040800102040810204080000083
:100280000A0B02090C0D0E08070304010000000010
:10029000000000000000000000000000000000005E
:1002A000000000000000000000001211100000001B
:1002B000000000000000000000000000000000003E
:1002C00000000000CA11052111241FBECFEFD1E2AA
:1002D000DEBFCDBF00E00CBF29E0A8EAB5E001C059
:1002E0001D92A936B207E1F715E0A0E0B2E0EAE915
:1002F000F7E400E00BBF02C007900D92A83AB107E7
:10030000D9F711E0C3E6D1E000E006C0219701096A
:10031000802FFE010E948521C236D10780E00807A8
:10032000A9F70E9466130C94BB230C940000FC01F7
:10033000A089B18982E08C93A485B5851C92A6859D
:10034000B7858FEC8C93108EA489B58986E08C9349
:10035000A289B3898C9180618C93A289B3898C9195
:1003600088608C93A289B3898C9180688C93028871
:10037000F389E02D80818F7D8083089596E0899FA9
:10038000D0011124A252B74F90967C936E935F9741
:1003900091E091969C939197E0914B09F0914C09D3
:1003A00090914A09992339F0309751F0811108C092
:1003B0008091FA081994309719F05C968C91FACFD5
:1003C00008950895DC01ED91FC910190F081E02DFC
:1003D0001994DB0114964D915C9115976D917C9168
:1003E000DC01ED91FC910280F381E02D1994AF9234
:1003F000BF92CF92DF92EF92FF920F931F93CF9312
:10040000DF936C017B018B01040F151FEB015E0173
:10041000AE18BF08C017D10759F06991D601ED9108
:10042000FC910190F081E02DC6011995892B79F797
:10043000C501DF91CF911F910F91FF90EF90DF9059
:10044000CF90BF90AF900895FC01A089B1898C91A5
:10045000A689B78982FD0FC09C91818D8F5F8F73B4
:10046000228D821749F0A18DAE0FBF2FB11D5D9671
:100470009C93818F08958C910895FC01538D448D38
:10048000252F30E0842F90E0821B930B541710F03F
:10049000CF96089501970895FC01918D828D98174C
:1004A00061F0A28DAE0FBF2FB11D5D968C91928D24
:1004B0009F5F9F73928F90E008958FEF9FEF089555
:1004C000FC01918D828D981731F0828DE80FF11D1E
:1004D000858D90E008958FEF9FEF0895FC01918D39
:1004E000228D892F90E0805C9F4F821B91098F7332
:1004F000992708958BE996E00E946E0221E0892BEE
:1005000009F420E0822F089588E397E00E946E02AC
:1005100021E0892B09F420E0822F089585ED97E0F2
:100520000E946E0221E0892B09F420E0822F0895B9
:10053000FC01A48DA80FB92FB11DA35ABF4F2C9158
:10054000848D90E001968F739927848FA689B7894F
:100550002C93A089B1898C91837080648C93938D46
:10056000848D981306C00288F389E02D80818F7DE9
:1005700080830895EF92FF920F931F93CF93DF93A1
:10058000EC0181E0888F9B8D8C8D98131AC0E889CF
:10059000F989808185FF15C09FB7F894EE89FF899E
:1005A0006083E889F98980818370806480839FBF3C
:1005B00081E090E0DF91CF911F910F91FF90EF903C
:1005C0000895F62E0B8D10E00F5F1F4F0F7311274C
:1005D000E02E8C8D8E110CC00FB607FCFACFE88987
:1005E000F989808185FFF5CFCE010E949802F1CF75
:1005F000EB8DEC0FFD2FF11DE35AFF4FF0829FB7FB
:10060000F8940B8FEA89FB8980818062CFCFCF93EA
:10061000DF93EC01888D8823B9F0AA89BB89E8892A
:10062000F9898C9185FD03C0808186FD0DC00FB6D0
:1006300007FCF7CF8C9185FFF2CF808185FFEDCF4E
:10064000CE010E949802E9CFDF91CF91089580E01A
:1006500090E0892B29F00E948E0281110E940000F7
:1006600080E090E0892B29F00E94840281110E9491
:10067000000080E090E0892B29F00E947A0281112D
:100680000E94000080E090E0892B49F080E090E03B
:10069000892B29F00E94000081110C94000008951C
:1006A0008150823108F05AC0E82FF0E08827E45AE0
:1006B000FC4F8F4F0C9485217C0380036E037403E1
:1006C0007803AE03830389038D03930397039B038E
:1006D000A103A503AE03A903AF03B3038091800078
:1006E0008F77809380000895809180008F7DF9CF6F
:1006F00080918000877FF5CF84B58F7784BD089582
:1007000084B58F7DFBCF8091B0008F778093B00050
:1007100008958091B0008F7DF9CF809190008F7700
:10072000809390000895809190008F7DF9CF809103
:100730009000877FF5CF8091A0008F778093A000F5
:1007400008958091A0008F7DF9CF8091A000877FD0
:10075000F5CF809120018F778093200108958091BB
:1007600020018F7DF9CF80912001877FF5CFCF9336
:10077000DF93282F30E0F901E258FD4F8491F90111
:10078000E85CFD4FD491F901EE50FE4FC491CC23AB
:10079000A1F081110E945003EC2FF0E0EE0FFF1F3B
:1007A000E852FE4FA591B491EC91ED2381E090E0E9
:1007B00009F480E0DF91CF91089580E090E0FACFD6
:1007C000862F0C94B7031F93CF93DF93282F30E02D
:1007D000F901E258FD4F8491F901E85CFD4FD49195
:1007E000F901EE50FE4FC491CC23A9F0162F8111D0
:1007F0000E945003EC2FF0E0EE0FFF1FE254FE4F7B
:10080000A591B4918FB7F894EC91111108C0D095CF
:10081000DE23DC938FBFDF91CF911F910895DE2BF4
:10082000F8CF862F642F0C94E303CF93DF9390E0EF
:10083000FC01E85CFD4F24918E509E4FFC01849199
:100840008823C9F090E0880F991FFC01EC55FE4FFA
:10085000A591B491FC01E254FE4FC591D491611170
:100860000DC09FB7F8948C91209582238C9388813A
:10087000282328839FBFDF91CF910895623051F4E0
:100880009FB7F8943C91822F809583238C93E881C5
:100890002E2BEFCF8FB7F894EC912E2B2C938FBF8C
:1008A000EACF862F642F0C9415043FB7F8948091FB
:1008B000B6059091B705A091B805B091B90526B5D8
:1008C000A89B05C02F3F19F00196A11DB11D3FBF88
:1008D000BA2FA92F982F8827BC01CD01620F711D57
:1008E000811D911D42E0660F771F881F991F4A9551
:1008F000D1F708958F929F92AF92BF92CF92DF92DD
:10090000EF92FF924B015C010E9455046B017C0148
:100910000E9455046C197D098E099F09683E734039
:1009200081059105A8F321E0821A9108A108B10878
:1009300088EEC80E83E0D81EE11CF11C81149104DE
:10094000A104B10429F7FF90EF90DF90CF90BF9002
:10095000AF909F908F9008952FB7F8946091B20553
:100960007091B3058091B4059091B5052FBF08959E
:100970000F931F93CF93DF93C82FD62F86E0C89F86
:10098000F0011124E252F74F11A2878D90A181301E
:100990009105F1F058F082309105F1F1039709F4D7
:1009A00040C0DF91CF911F910F9108956623C9F345
:1009B00061E070E08C2F0E94BE010E94AC04609345
:1009C0003609709337098093380990933909E9CF34
:1009D0000E94AC0400913609109137092091380922
:1009E00030913909AB01BC01401B510B620B730BF9
:1009F0008091480990914909B0E0A0E084179507DB
:100A0000A607B70748F462E070E08C2FDF91CF9122
:100A10001F910F910C94BE0163E070E0D111C1CF22
:100A2000F4CF70E060E0F1CF6F927F928F929F924F
:100A3000AF92BF92CF92DF92EF92FF920F931F93EC
:100A4000CF93DF9381E080934A090E94AC04009128
:100A50003A0910913B0920913C0930913D09AB01C5
:100A6000BC01401B510B620B730B809146099091A6
:100A70004709B0E0A0E084179507A607B70708F07C
:100A800014C1C0E080914409C81760F4E0914009A6
:100A9000F0914109EC0FF11D62E080810E94150484
:100AA000CF5FF0CF712C812C912C540183948091D5
:100AB0004509781608F05FC0072D10E0E091420963
:100AC000F0914309E00FF11F61E080810E9415045D
:100AD000E0914209F0914309E00FF11F60E080814D
:100AE0000E94E303D501C401072C04C0880F991F9D
:100AF000AA1FBB1F0A94D2F76C017C01E094F0940A
:100B0000612C809144096816F8F4C62DD0E0E0917C
:100B10004009F0914109EC0FFD1F80810E94B7034D
:100B20002496CC0FDD1FC252D74F892B41F4888108
:100B300099818C299D29998388836394E2CF888148
:100B400099818E219F21F7CFE0914209F0914309CD
:100B5000E00FF11F61E080810E94E3038091420970
:100B600090914309080F191F60E0F80180810E94ED
:100B7000150473949CCFCEEDD8E0FE018FEF9FEF6C
:100B8000278D30A1232B21F4148E968F858F11A2EF
:100B9000369629E0EA31F20799F7F12C96E0D92E42
:100BA00080914409F81608F050C0E12C0F2D10E098
:100BB000000F111F0A51174F20914509E21608F046
:100BC00042C0F801608171810E2C02C07695679554
:100BD0000A94E2F7F29E900111242E0D311DEEEDE4
:100BE000F8E080E0458D568D2417350709F461C083
:100BF0008F5F36968A30B1F760FF23C0EEEDF8E0E4
:100C000090E080E0448D411117C0E0913E09F091E1
:100C10003F09E20FF31F4081D89EF001D99EF00DED
:100C20001124E252F74F448F368F258F10A2178E72
:100C300061E00E94B80405C0019636968A3091059D
:100C400009F7E394B9CFF394ABCF10E089A18111F8
:100C5000182F2696F9E0CA31DF07C1F70E94AC04CD
:100C600060933A0970933B0980933C0990933D0946
:100C70001123D9F08091FF088823B9F08091FD08F5
:100C80009091FE08019789F48091FA08DF91CF9145
:100C90001F910F91FF90EF90DF90CF90BF90AF909A
:100CA0009F908F907F906F90089510924A0980E0F6
:100CB000EDCF6170BECF0E9414058823E1F3089543
:100CC0000F931F93CF93DF93EC010E94AC046887CE
:100CD00079878A879B87CE010E944C0297FF15C0B7
:100CE0000E94AC04088519852A853B85601B710B21
:100CF000820B930B0C811D812E813F816017710740
:100D00008207930740F38FEF9FEFDF91CF911F9101
:100D10000F91089590E080E00895CF93DF93EC0168
:100D200060E08E810E94E30361E08E810E94E30314
:100D300060E08E810E94E3038BE891E00197F1F778
:100D4000DF91CF910895CF92DF92EF92FF920F93B0
:100D50001F93CF93DF936C017C0187E0E80EF11CB9
:100D6000D0E0C0E0062F10E0B8010C2E02C075954F
:100D700067950A94E2F76170F70181917F010E9403
:100D8000E3032196C430D10579F7C601DF91CF91F5
:100D90001F910F91FF90EF90DF90CF900C948D06F4
:100DA000CF92DF92EF92FF920F931F93CF93DF9337
:100DB000EC01F62E642F8C810E94E3038D818F3F1E
:100DC00019F060E00E94E3030F2D10E08F8584FF8F
:100DD00025C06E0187E0C80ED11CF12CE12CB801B2
:100DE0000E2C02C0759567950A94E2F76170F601C2
:100DF00081916F010E94E303FFEFEF1AFF0A88E081
:100E0000E816F10461F7CE01DF91CF911F910F91A8
:100E1000FF90EF90DF90CF900C948D06B80184E0A6
:100E2000759567958A95E1F7CE010E94A3066F2D0F
:100E3000CE01DF91CF911F910F91FF90EF90DF9046
:100E4000CF900C94A30640E0682F8DE499E00C94B9
:100E5000D00681E00E9423078BE39FE10197F1F721
:100E60000895CF93DF93823029F490915C099860C4
:100E700090935C09809360091092610980E48093EB
:100E8000620980E18093630980E58093640961E0F1
:100E9000809151090E941504809152098F3F19F0E9
:100EA00061E00E94150461E0809153090E941504DD
:100EB000CDE4D9E09E012D54394080915C0984FD38
:100EC0000BC084E090E021962817390744F461E0D4
:100ED0008E810E941504EECF88E090E0F4CF8BE382
:100EE0009DE00197F1F760E0809151090E94E303D2
:100EF00060E0809153090E94E303809152098F3F83
:100F000019F060E00E94E30380915C0984FD34C025
:100F100063E08DE499E00E94A306CBE4D6E4CE0121
:100F20000197F1F763E08DE499E00E94A306219711
:100F3000F1F763E08DE499E00E94A30683E592E077
:100F40000197F1F762E08DE499E00E94A306809199
:100F50005C0980620E94230784E080935D098CE035
:100F60000E9423070E94290782E080935E0986E0A1
:100F7000DF91CF910C94230780620E9423078BE4BA
:100F800096E40197F1F780915C0980620E94230743
:100F900083E592E00197F1F780915C0980620E94FD
:100FA0002307D5CF90916009691710F06FEF690F93
:100FB000E62FF0E0E35BF64F9489890F80680C948C
:100FC000230741E00E94D00681E090E008950F934E
:100FD0001F93CF93DF938B0128E0829FC0011124E0
:100FE00080640E942307E801085F1F4F69918DE428
:100FF00099E00E94E107C017D107C1F7DF91CF91B7
:101000001F910F9108950F931F93CF93DF93FC01CE
:10101000048115810115110539F4FB011082DF915E
:10102000CF911F910F9108954150510940175107D9
:1010300008F48A01EB01FC0160817181A801CE01F5
:101040000E94AC23C00FD11F1882E9CFFC0124817C
:101050003581232B39F421E0FB018081882349F07D
:1010600020E007C0808191810E949C2321E0892B90
:10107000B9F7822F0895FC0124813581FB01448159
:10108000558124173507E1F4FC0180819181FB0132
:10109000608171810097D1F061157105A1F4232B56
:1010A000C1F0FC01808190E008C0232B91F0FB018E
:1010B000808190E091958195910921E0892B09F03B
:1010C00020E0822F08950E949C23F7CF61157105BF
:1010D00061F721E0F6CF9F92AF92BF92CF92DF925D
:1010E000EF92FF920F931F93CF93DF935C017B01ED
:1010F0008B01D0E0C0E0F80191908F016501CC0E2A
:10110000DD1EC6010E944D21981621F0692DC601F1
:101110000E9455212196CD32D10569F7C701DF9193
:10112000CF911F910F91FF90EF90DF90CF90BF90E4
:10113000AF909F900895CF92DF92EF92FF920F931E
:101140001F93CF93DF93EB017B012DE2E20EF11CA5
:101150008B016C01C61AD70AC601800F911F0E942D
:101160004D21F80181938F01EE15FF05A9F7CE01FE
:10117000DF91CF911F910F91FF90EF90DF90CF9073
:101180000895FB0101900020E9F73197AF01461B5C
:10119000570BDC01ED91FC910280F381E02D199455
:1011A0008F929F92AF92BF92EF92FF920F931F93F5
:1011B000CF93DF93CDB7DEB7A1970FB6F894DEBF1C
:1011C0000FBECDBF7C01FA01CB0119A2223008F479
:1011D0002AE08E010F5D1F4F822E912CB12CA12C85
:1011E000BF01A50194010E946321F901CA016A307F
:1011F0000CF5605DD8016E938D01232B242B252BDC
:1012000079F790E080E0109721F0BD01C7010E94BE
:10121000C108A1960FB6F894DEBF0FBECDBFDF9117
:10122000CF911F910F91FF90EF90BF90AF909F9043
:101230008F900895695CDECFCF92DF92EF92FF929C
:101240000F931F93CF93DF936B01770FEE08FF0887
:10125000F7FE1BC0EC016DE20E94E2018C01442705
:101260005527BA014C195D096E097F092AE0CE01A4
:101270000E94D008800F911FDF91CF911F910F9195
:10128000FF90EF90DF90CF9008952AE0B701A6017C
:10129000DF91CF911F910F91FF90EF90DF90CF9052
:1012A0000C94D008CF93DF93BC0185ED97E00E94AA
:1012B000C108EC016FE572E085ED97E00E94C1087E
:1012C0008C0F9D1FDF91CF9108950C94C1080F934F
:1012D0001F93CF93DF938C01EB01FC0180819181FF
:1012E0000097E1F06881798161157105A9F042816B
:1012F00053812C813D814217530770F00E94A52332
:101300008C819D81F801958384831D821C82DF91ED
:10131000CF911F910F9108950E9429228881998170
:10132000F801918380838A819B81938382838C815E
:101330009D8195838483198218821B821A82E5CF4E
:10134000FC0180819181009711F00C94292208956D
:101350000F931F93CF93DF93EC01888199810097BE
:1013600059F02A813B812617370730F081E0DF9161
:10137000CF911F910F9108958B016F5F7F4F0E9456
:10138000B222009759F0998388831B830A832C81AA
:101390003D81232B59F7FC011082E8CF80E0E7CF95
:1013A000EF92FF920F931F93CF93DF93EC017B019A
:1013B000FB0101900020E9F731978F01061B170B05
:1013C000B8010E94A80928813981811113C0211513
:1013D000310519F0C9010E942922198218821D8243
:1013E0001C821B821A82DF91CF911F910F91FF9077
:1013F000EF9008951D830C83B701C901DF91CF9150
:101400001F910F91FF90EF900C94A523CF93109212
:10141000B0051092AF0561E672E082ED98E00E949F
:10142000D00961E672E08CEC98E00E94D00961E698
:1014300072E080EC98E00E94D00961E672E08AEBED
:1014400098E00E94D0091092040210920302C1E0B9
:10145000C093020261E672E086EC98E00E94D00937
:1014600061E672E084EB98E00E94D0091092F305E7
:101470001092F205C0930102C093000261E672E08F
:101480008EEA98E00E94D0091092AE05CF9108959F
:10149000EF92FF920F931F93CF93DF931F921F92B0
:1014A000CDB7DEB78C0169831A82FC01E480F58038
:1014B000FFEFEF1AFF0AB7010E94A809882381F005
:1014C000F8012081318184819581BE016F5F7F4F5A
:1014D000820F931F0E94A523F801F582E48281E028
:1014E0000F900F90DF91CF911F910F91FF90EF9090
:1014F0000895EF92FF920F931F93CF93DF93EC0128
:101500007B01198218821B821A821D821C82FB01B8
:1015100001900020E9F731978F01061B170BB801E6
:101520000E94A80928813981811113C02115310534
:1015300019F0C9010E942922198218821D821C8279
:101540001B821A82DF91CF911F910F91FF90EF9034
:1015500008951D830C83B701C901DF91CF911F91BD
:101560000F91FF90EF900C94A5230F931F93CF93AF
:10157000DF93EC018B0161E672E00E94790AC801F9
:101580000E94600697FD08C08A30910529F0682FF7
:10159000CE010E94480AF3CFCE01DF91CF911F9177
:1015A0000F910895EF92FF920F931F93CF93DF93C4
:1015B000CDB7DEB7C554D1090FB6F894DEBF0FBE64
:1015C000CDBF8091B005811183C08091AE0581119E
:1015D00025C060E085E00E94D20762E672E08DE4FB
:1015E00099E00E94650968EE73E080E090E00E9457
:1015F0007A0461E081E00E94D20768E672E08DE43F
:1016000099E00E94650960ED77E080E090E00E943B
:101610007A040E94290781E08093AE0560E080E0B3
:101620000E94D20766E772E08DE499E00E946509A6
:1016300061E084E00E94D20762ED78E08DE499E0F9
:101640000E94E9010E945B06182F80935706682FBD
:1016500082ED98E00E94480A8091F2059091F3058E
:1016600001969093F3058093F2051A3249F4809124
:10167000AC059091AD0501969093AD058093AC05B6
:101680008091AC059091AD051816190684F410925E
:10169000F3051092F2051092AD051092AC0561E6CB
:1016A00072E082ED98E00E94D0090E9429078091A3
:1016B000F2059091F305069709F083CF81E08093BE
:1016C000B0051092F3051092F2050E94290779CF18
:1016D0008091AF05811154C060E00E94D20766E896
:1016E00072E08DE499E00E9465090E945B06809398
:1016F0005706833229F0682F8CEC98E00E94480A44
:101700008091F20561E08C5F0E94D20767E972E088
:101710008DE499E00E9465098091F2059091F305AE
:1017200001969093F3058093F205109157061332BA
:1017300049F481E08093AF051092F3051092F20511
:101740000E9429078091F2059091F305089751F4C2
:1017500081E08093AF051092F3051092F2050E948C
:101760002907B6CF1A3209F0B3CF1092F3051092C1
:10177000F20561E672E08CEC98E00E94D009EFCFB0
:101780007E018EE2E80EF11C10E000E0C8010E942C
:101790004D21F70181937F010F5F1F4F0831110524
:1017A000A9F7CE01C8960E945209CE01CF960E9499
:1017B0005209BE01685C7F4F82ED98E00E942608C6
:1017C000882309F48EC0BE01615C7F4F8CEC98E0E9
:1017D0000E942608882309F484C060E082E00E9409
:1017E000D20769E972E08DE499E00E94650961E041
:1017F00083E00E94D20766EA72E08DE499E00E94DD
:10180000650968EB7BE080E090E00E947A040E942A
:10181000290760EB72E08EEA98E00E94D00980917F
:10182000AB05811116C01092040260E083E00E94B3
:10183000D2076CEB72E08DE499E00E94650961E0EB
:1018400083E00E94D20767EC72E08DE499E00E9489
:1018500065091092AB058091040281114FC188E3A4
:1018600097E00E946E02181619068CF468E377E080
:10187000CE0101960E94B50ABE016F5F7F4F88EDD1
:1018800098E00E946709CE0101960E94A00963EECC
:1018900072E088ED98E00E9426088823E1F20E9419
:1018A000290760E083E00E94D2076DEE72E08DE4CC
:1018B00099E00E94650961E083E00E94D20768EF29
:1018C00072E08DE499E00E94650968EB7BE080E0BE
:1018D00090E00E947A0481E0809304021092030257
:1018E000BFC086EB92E00E94520909E110E0F12CA2
:1018F000E12C8091550690915606E816F906A4F55C
:10190000BE016F5F7F4FC8010E949B08BE016F5FE1
:101910007F4F82ED98E00E942608882349F0BE019F
:10192000685F7F4F8CEC98E00E942608811106C00A
:10193000FFEFEF1AFF0A025D1F4FDBCF81E08093BC
:10194000AA0562ED72E08EEA98E00E94D0098DE26D
:10195000FE013196AAE5B6E001900D928A95E1F775
:1019600010935906009358068091AA0560E08823D9
:1019700009F440C080E00E94D20769E972E08DE47A
:1019800099E00E94650961E080E00E94D20766EA62
:1019900072E08DE499E00E94650968EB7BE080E0ED
:1019A00090E00E947A040E94290762ED72E08EEABC
:1019B00098E00E94D0098091AB05811116C0109269
:1019C000040260E083E00E94D2076CEB72E08DE4D9
:1019D00099E00E94650961E083E00E94D20767EC0C
:1019E00072E08DE499E00E9465091092AB051092B7
:1019F000AA0531CF82E00E94D20769E972E08DE446
:101A000099E00E94650961E083E00E94D20767EDDA
:101A100072E08DE499E00E94650968EB7BE080E06C
:101A200090E00E947A041092B0051092AF0561E632
:101A300072E082ED98E00E94D00961E672E08CECE1
:101A400098E00E94D0091092F3051092F20561E629
:101A500072E08EEA98E00E94D00981E08093AE05A2
:101A60000E942907F8CE60E080E00E94D20762E081
:101A700073E08DE499E00E94650961E080E00E94D6
:101A8000D2076DE073E08DE499E00E94650988E378
:101A900097E00E946E021816190684F568E377E055
:101AA000CE0101960E94B50ABE016F5F7F4F80ECA8
:101AB00098E00E946709CE0101960E94A0090E9449
:101AC000290760E080E00E94D20769E173E08DE4BD
:101AD00099E00E94650968EB7BE080E090E00E945D
:101AE0007A046FE475E088E397E00E94650981E07D
:101AF00080930302109202020E9429078091030240
:101B0000882309F4B0CF01E010E080910202811136
:101B100057C060E00E94D20762E073E08DE499E074
:101B20000E94650961E080E00E94D2076AE273E0EA
:101B30008DE499E00E94650988E397E00E946E02B7
:101B40001816190614F768E377E0CE0101960E9493
:101B5000B50ABE016F5F7F4F8AEB98E00E9467096C
:101B6000CE0101960E94A0090E94290760E084E04E
:101B70000E94D2076EE872E08DE499E00E94650948
:101B800061E084E00E94D20764EE74E08DE499E0A5
:101B90000E94650968EB7BE080E090E00E947A0497
:101BA0006FE475E088E397E00E94650981E0809327
:101BB00002021093A9050093A8050E942907A5CF4A
:101BC0008091A8059091A905019709F046C060ECA5
:101BD00078E082ED98E00E943B088823C9F06AEB28
:101BE00078E08CEC98E00E943B08882389F061E65D
:101BF00072E082ED98E00E942608811109C061E63A
:101C000072E08CEC98E00E942608882309F473C0E7
:101C100060E080E00E94D20769E972E08DE499E01B
:101C20000E94650961E080E00E94D20767E373E0EB
:101C30008DE499E00E94650968EB7BE080E090E02C
:101C40000E947A040E94290781E08093AB050E94DC
:101C5000060A1092A9051092A80580910102882316
:101C600009F44CC082E0E82EF12C80910002811131
:101C70008CC060E00E94D2076AE573E08DE499E0D1
:101C80000E94650961E085E00E94D20766EC78E079
:101C90008DE499E00E94E9010E945B06182F809371
:101CA0005706682F86EC98E00E94480A8091F2055A
:101CB0009091F30501969093F3058093F2050697B2
:101CC00059F481E080930002F092A905E092A80502
:101CD0001092F3051092F2051A3239F661E672E0BD
:101CE00086EC98E00E94D0091092F3051092F2055C
:101CF0000E942907BACF10920102AFCF60E080E0C6
:101D00000E94D20762E073E08DE499E00E946509C9
:101D100061E080E00E94D20761E473E08DE499E025
:101D20000E94650988E397E00E946E021816190662
:101D30000CF093CF68E377E0CE0101960E94B50ADC
:101D4000BE016F5F7F4F84EB98E00E946709CE0170
:101D500001960E94A0090E94290760E080E00E948D
:101D6000D2076BE473E08DE499E00E94650968EBAB
:101D70007BE080E090E00E947A0481E080930102A1
:101D8000109200020E94290768CF0091A8051091C7
:101D9000A9050230110599F564EB78E086EC98E02E
:101DA0000E943B08882381F061E672E086EC98E0AF
:101DB0000E942608811108C061E672E084EB98E079
:101DC0000E942608882349F160E081E00E94D20742
:101DD0006BE673E08DE499E00E94650968EB7BE0B7
:101DE00080E090E00E947A040E94290781E08093BD
:101DF000AB050E94060A1092A9051092A805CB5BBC
:101E0000DF4F0FB6F894DEBF0FBECDBFDF91CF918D
:101E10001F910F91FF90EF9008956FE475E088E3B4
:101E200097E00E94650964EF71E080E090E00E9415
:101E30007A040E94290760EB72E08EEA98E00E9423
:101E40002608882309F4D0C01093180200931702C3
:101E500060E080E00E94D2076AE773E08DE499E0D9
:101E60000E94650961E080E00E94D20765E873E0A6
:101E70008DE499E00E94650968EE73E080E090E0EF
:101E80000E947A0460E073E088E397E00E946509AD
:101E900060ED77E080E090E00E947A040E942907DC
:101EA00060E081E00E94D2076FE873E08DE499E082
:101EB0000E94650961E085E00E94D2076DE973E048
:101EC0008DE499E00E94650909E110E0F12CE12C14
:101ED0008091550690915606E816F9060CF0EFC071
:101EE000BE016F5F7F4FC8010E949B0863EA73E0E9
:101EF000CE0101960E949C23892B09F46FC0BE017C
:101F00006F5F7F4F88E397E00E94650960E273E0AE
:101F100080E090E00E947A04BE01685F7F4F88E312
:101F200097E00E94650960E273E080E090E00E9423
:101F30007A04BE016F5E7F4F88E397E00E946509D7
:101F400060E273E080E090E00E947A046AA17BA1E5
:101F500088E397E00E941C0960E273E080E090E073
:101F60000E947A046CA17DA188E397E00E941C097D
:101F700060E273E080E090E00E947A046EA17FA1AD
:101F800088E397E00E941C0960E273E080E090E043
:101F90000E947A0468A579A588E397E00E941C094D
:101FA00060E273E080E090E00E947A046AA57BA57D
:101FB00088E397E00E941C0960E273E080E090E013
:101FC0000E947A046CA57DA588E397E00E941C0915
:101FD00060E273E080E090E00E947A048FEFE81AFC
:101FE000F80A025D1F4F74CF62ED72E08EEA98E04E
:101FF0000E942608882309F465C08EE190E0909342
:1020000018028093170260E080E00E94D2076AE71E
:1020100073E08DE499E00E94650961E080E00E9430
:10202000D2076AE676E08DE499E00E94650968EEE1
:1020300073E080E090E00E947A0468EA73E088E34D
:1020400097E00E94650960ED77E080E090E00E94F3
:102050007A046AE676E088E397E00E946509809159
:102060007B0690917C0690939A06809399068091C6
:102070007D0690917E0690939606809395068091BA
:102080007F069091800690939406809393068091AA
:10209000810690918206909392068093910680919A
:1020A00083069091840690938E0680938D0680918E
:1020B00085069091860690938C0680938B060E94ED
:1020C00029079DCE60E081E00E94D2076AEA73E0B2
:1020D0008DE499E00E94650968EB7BE080E090E088
:1020E0000E947A040E94290781E08093AB050E9438
:1020F000060A1092A9051092A80560EB73E088E328
:1021000097E00E9465097BCE1F920F920FB60F9247
:1021100011240BB60F922F933F934F935F936F93BE
:102120007F938F939F93AF93BF93EF93FF938BE92D
:1021300096E00E949802FF91EF91BF91AF919F911D
:102140008F917F916F915F914F913F912F910F9060
:102150000BBE0F900FBE0F901F9018951F920F92FD
:102160000FB60F9211240BB60F922F933F934F93FC
:102170005F936F937F938F939F93AF93BF93EF93EF
:10218000FF938BE996E00E942402FF91EF91BF91AB
:10219000AF919F918F917F916F915F914F913F91FF
:1021A0002F910F900BBE0F900FBE0F901F901895A0
:1021B0001F920F920FB60F9211240BB60F922F930E
:1021C0003F934F935F936F937F938F939F93AF93BF
:1021D000BF93EF93FF9388E397E00E949802FF91EB
:1021E000EF91BF91AF919F918F917F916F915F918F
:1021F0004F913F912F910F900BBE0F900FBE0F90FC
:102200001F9018951F920F920FB60F9211240BB6C4
:102210000F922F933F934F935F936F937F938F937F
:102220009F93AF93BF93EF93FF9388E397E00E9450
:102230002402FF91EF91BF91AF919F918F917F9178
:102240006F915F914F913F912F910F900BBE0F9027
:102250000FBE0F901F9018951F920F920FB60F92FE
:1022600011240BB60F922F933F934F935F936F936D
:102270007F938F939F93AF93BF93EF93FF9385EDDE
:1022800097E00E949802FF91EF91BF91AF919F91CB
:102290008F917F916F915F914F913F912F910F900F
:1022A0000BBE0F900FBE0F901F9018951F920F92AC
:1022B0000FB60F9211240BB60F922F933F934F93AB
:1022C0005F936F937F938F939F93AF93BF93EF939E
:1022D000FF9385ED97E00E942402FF91EF91BF915B
:1022E000AF919F918F917F916F915F914F913F91AE
:1022F0002F910F900BBE0F900FBE0F901F9018954F
:102300001F920F920FB60F9211242F933F938F932A
:102310009F93AF93BF938091B2059091B305A09125
:10232000B405B091B5053091B10523E0230F2D37E9
:1023300058F50196A11DB11D2093B1058093B205FA
:102340009093B305A093B405B093B5058091B605FD
:102350009091B705A091B805B091B9050196A11D5E
:10236000B11D8093B6059093B705A093B805B093BF
:10237000B905BF91AF919F918F913F912F910F9090
:102380000FBE0F901F90189526E8230F0296A11DEF
:10239000B11DD2CF10929E0610929D0648EE53E0DA
:1023A00060E070E040939F065093A0066093A10602
:1023B0007093A2068BE392E090939C0680939B0619
:1023C00025ED30E03093A8062093A70624ED30E0F9
:1023D0003093AA062093A90620ED30E03093AC0696
:1023E0002093AB0621ED30E03093AE062093AD068E
:1023F00022ED30E03093B0062093AF0626ED30E0BA
:102400003093B2062093B1061092B4061092B5062E
:102410001092B6061092B70610923B0710923A0738
:1024200040933C0750933D0760933E0770933F07EE
:1024300090933907809338072DEC30E030934507AF
:10244000209344072CEC30E0309347072093460755
:1024500028EC30E0309349072093480729EC30E01E
:1024600030934B0720934A072AEC30E030934D0716
:1024700020934C072EEC30E030934F0720934E070B
:10248000109251071092520710925307109254075E
:102490001092D8071092D7074093D9075093DA07C4
:1024A0006093DB077093DC079093D6078093D50782
:1024B00085EC90E09093E2078093E10784EC90E054
:1024C0009093E4078093E30780EC90E09093E60715
:1024D0008093E50781EC90E09093E8078093E7070D
:1024E00082EC90E09093EA078093E90786EC90E015
:1024F0009093EC078093EB071092EE071092EF0792
:102500001092F0071092F1071092500910924F09A3
:1025100087E592E090934E0980934D0986E1809380
:1025200051098FEF8093520987E18093530988E125
:102530008093540989E1809355098AE18093560973
:102540008BE1809357091092580910925909109203
:102550005A0910925B0910925C0981E00E943107D0
:102560001092E0081092E4081092E3081092E50837
:102570008DE492E09093DF088093DE08EAEFF8E0C4
:102580001082148213821582369689E0E633F807AA
:10259000B9F78DE192E0909341098093400989E178
:1025A00092E0909343098093420984E08093440928
:1025B0008093450981E292E090933F0980933E0920
:1025C0008AE090E0909347098093460984EF91E078
:1025D000909349098093480910924C0910924B0935
:1025E00010923A0910923B0910923C0910923D0951
:1025F00010924A0961E672E088ED98E00E94790A3B
:1026000061E672E082ED98E00E94790A61E672E08C
:102610008CEC98E00E94790A61E672E086EC98E022
:102620000E94790A61E672E080EC98E00E94790AE3
:1026300061E672E08AEB98E00E94790A61E672E056
:1026400084EB98E00E94790A61E672E08EEA98E0F5
:102650000E94790A61E672E088EA98E00E94790AAD
:1026600061E672E082EA98E00E94790A61E672E02F
:102670008CE998E00E94790A61E672E086E998E0C8
:102680000E94790A61E672E080E998E00E94790A86
:1026900061E672E08AE898E00E94790A61E672E0F9
:1026A00084E898E00E94790A61E672E08EE798E09B
:1026B0000E94790A62EB73E088E798E00E94790A49
:1026C00063EC73E082E798E00C94790ACF93DF9390
:1026D000CDB7DEB7EF970FB6F894DEBF0FBECDBF14
:1026E000789484B5826084BD84B5816084BD85B5ED
:1026F000826085BD85B5816085BD80916E008160F9
:1027000080936E001092810080918100826080939E
:1027100081008091810081608093810080918000A0
:102720008160809380008091B10084608093B100CB
:102730008091B00081608093B000809191008260B0
:1027400080939100809191008160809391008091AD
:1027500090008160809390008091A10082608093BE
:10276000A1008091A10081608093A1008091A000D0
:1027700081608093A000809121018260809321017B
:1027800080912101816080932101809120018160ED
:102790008093200180917A00846080937A008091F8
:1027A0007A00826080937A0080917A0081608093C1
:1027B0007A0080917A00806880937A001092C1003C
:1027C00085ED97E00E94970188E397E00E949701CA
:1027D0008BE996E00E94970182E00E94310780EA2F
:1027E0009FE00E944D218093550681EA9FE00E9460
:1027F0004D21809356066EEC73E085ED97E00E94C4
:102800006509609155067091560685ED97E00E9426
:102810001C096FE572E085ED97E00E94C1080E94F7
:1028200029076DE072E080E00E94E70760E082E047
:102830000E94D20760E08DE499E00E94E10760E029
:1028400083E00E94D2076AE773E08DE499E00E947A
:10285000650965E072E081E00E94E70760E08DE0D5
:102860000E94D20761E08DE499E00E94E10761E0F7
:1028700080E00E94D20769ED73E08DE499E00E9448
:10288000650968EB7BE080E090E00E947A040E949A
:10289000290704E010E043E0E42EF12C6624639461
:1028A000712C62E0A62EB12C7CE0272E312CEBE0BF
:1028B0004E2E512CE0911702F09118023197EE3113
:1028C000F10508F028C08827E759FB4E8F4F0C947C
:1028D000852187148E14D8140B154B158A15C9152C
:1028E000161758173F181419571A8B148B148B147A
:1028F0008B148B14AF1B8B14E21B8B148B148B1457
:102900008B148B148B148B148B148B14031D0E944B
:1029100029070E94D20A0E942703CCCF60E080E002
:102920000E94D2076AEE73E08DE499E00E94650987
:1029300061E080E00E94D2076AEF73E08DE499E0E5
:102940000E94650961E08DE00E94D20765E074E0B5
:102950008DE499E00E9465096DE072E080E00E94DC
:10296000E70761E08FE00E94D20760E08DE499E024
:102970000E94E1070E945B0680935706813329F489
:10298000109318020093170210C0823339F484E1C7
:1029900090E0909318028093170207C0843409F0E6
:1029A000E5C0F0921802E09217020E942907B3CF07
:1029B00060E080E00E94D20768E174E08DE499E075
:1029C0000E94650961E08DE00E94D20765E074E035
:1029D0008DE499E00E9465096DE072E080E00E945C
:1029E000E70761E08FE00E94D20760E08DE499E0A4
:1029F0000E94E1070E945B0680935706833319F417
:102A000082E190E0C6CF843409F0B0C0B0921802E1
:102A1000A0921702CACF60E080E00E94D20768E26D
:102A200074E08DE499E00E94650961E080E00E9415
:102A3000D20760E374E08DE499E00E94650961E0EB
:102A40008DE00E94D20765E074E08DE499E00E9479
:102A500065096DE072E080E00E94E70761E08FE0C9
:102A60000E94D20760E08DE499E00E94E1070E9495
:102A70005B0680935706813319F487E090E089CF95
:102A8000823319F488E090E084CF843409F06EC07A
:102A900085E090E07ECF60E080E00E94D2076CE3AA
:102AA00074E08DE499E00E94650961E080E00E9495
:102AB000D2076BE474E08DE499E00E94650961E05F
:102AC0008DE00E94D20765E074E08DE499E00E94F9
:102AD00065096DE072E080E00E94E70761E08FE049
:102AE0000E94D20760E08DE499E00E94E1070E9415
:102AF0005B0680935706833319F489E090E049CF51
:102B0000843319F48AE090E044CF843479F586E088
:102B100090E03FCF60E080E00E94D20766E574E07D
:102B20008DE499E00E94650961E08DE00E94D20782
:102B300065E074E08DE499E00E9465096DE072E063
:102B400080E00E94E70761E08FE00E94D20760E02A
:102B50008DE499E00E94E1070E945B06809357068E
:102B6000853309F453CF843409F40ACF0E9429072E
:102B700060E080E00E94D20768E074E08DE499E0B4
:102B80000E94650968EB7BE080E090E00E947A0497
:102B90000CCF8091BB05811146C060E00E94D20736
:102BA00066E772E08DE499E00E94650961E084E0E7
:102BB0000E94D20768EA78E08DE499E00E94E9017A
:102BC0000E945B06D82E80935706682F88EA98E00B
:102BD0000E94480A809125069091260601962AE2D5
:102BE000D216A1F0909326068093250680912506A3
:102BF00090912606069769F681E08093BB051092B6
:102C00002606109225060E942907C3CF1092260699
:102C10001092250661E672E088EA98E00E94D009E9
:102C20000E942907E3CF8091BA05811155C060E069
:102C30000E94D20766E872E08DE499E00E9465097F
:102C40000E945B0680935706833229F0682F82EA40
:102C500098E00E94480A8091250661E08C5F0E94FE
:102C6000D20767E972E08DE499E00E9465098091DE
:102C700025069091260601969093260680932506B8
:102C8000D090570643E2D41209C081E08093BA0580
:102C900010922606109225060E942907809125068B
:102CA00090912606089751F481E08093BA0510921E
:102CB0002606109225060E942907B5CF8AE2D8126F
:102CC000B2CF1092F3051092F20561E672E08CEC3F
:102CD00098E00E94D009EFCF47E050E0BE01695C68
:102CE0007F4F88EA98E00E94030849E050E0BE0167
:102CF000625D7F4F82EA98E00E940308CE01C7968A
:102D00000E945209CE018E960E945209BE01695C52
:102D10007F4FCE0101960E94A523BE01625D7F4FC9
:102D2000CE0108960E94A5236EE574E0CE0141967F
:102D30000E94A5231BA21AA21DA21CA21FA21EA2B2
:102D400019A618A61BA61AA61DA61CA62AE04DE2C7
:102D500050E060E070E085ED97E00E94D0086FE5FC
:102D600072E085ED97E00E94C108209155063091F0
:102D700056064EE2429FC001439F900D1124BE01B2
:102D80006F5F7F4F49960E946B0880915506909126
:102D900056062EE2289FB001299F700D1124675E10
:102DA0007F4F85ED97E00E941C096FE572E085ED8D
:102DB00097E00E94C108C0905506D09056064FEF8C
:102DC000C41AD40AD0925606C092550680EA9FE0F3
:102DD0000E944D21C81629F06C2D80EA9FE00E94C8
:102DE000552160E081E00E94D20765E674E08DE441
:102DF00099E00E94650961E083E00E94D20764E7E0
:102E000074E08DE499E00E94650968EB7BE080E066
:102E100090E00E947A040E9429071092BB0510924C
:102E2000BA05109318020093170275CD60E080E098
:102E30000E94D2076EE774E08DE499E00E94650974
:102E400061E080E00E94D20767E874E08DE499E0D9
:102E50000E94650961E08DE00E94D20762E974E09A
:102E60008DE499E00E94650965E072E080E00E94CF
:102E7000E70761E08FE00E94D20760E08DE499E00F
:102E80000E94E1070E945B0680935706813329F474
:102E9000509218024092170288CD823329F4309262
:102EA00018022092170281CD823409F05FCE68CDDE
:102EB0008091EC05811146C060E00E94D20766E770
:102EC00072E08DE499E00E94650961E084E00E946F
:102ED000D20764E878E08DE499E00E94E9010E945D
:102EE0005B06D82E80935706682F84E898E00E94EE
:102EF000480A8091EA059091EB0501962AE2D216E4
:102F0000A1F09093EB058093EA058091EA059091FA
:102F1000EB05069769F681E08093EC051092EB05CE
:102F20001092EA050E942907C3CF1092EB05109278
:102F3000EA0561E672E084E898E00E94D0090E9408
:102F40002907E3CF39E1832E912CD12CC12C80911C
:102F5000550690915606C816D906FCF4BE016F5F5F
:102F60007F4FC4010E949B08BE016F5F7F4F84E8C2
:102F700098E00E9426084EE2840E911C882309F4F2
:102F800058C081E08093E9058DE2FE013196ACEBFB
:102F9000B5E001900D928A95E1F78091E90560E036
:102FA000882309F44AC080E00E94D20765E974E0F2
:102FB0008DE499E00E94650961E080E00E94D207FB
:102FC0006CEC75E08DE499E00E94650968EB7BE0AC
:102FD00080E090E00E947A040E94290760E080E08F
:102FE0000E94D2076DE974E08DE499E00E946509C2
:102FF00061E080E00E94D20763EC75E08DE499E027
:103000000E94650968EB7BE080E090E00E947A0412
:103010000E94290710931802009317021092E905E5
:103020001092EC0561E672E084E898E00E94D00915
:1030300072CC8FEFC81AD80A8ACF83E00E94D207D9
:1030400067EA74E08DE499E00E94650961E083E03D
:103050000E94D20762EB74E08DE499E00E9465095A
:1030600068EB7BE080E090E00E947A041092EC052F
:1030700061E672E084E898E00E94D00996CC8091E5
:10308000F005811146C060E00E94D20766E772E059
:103090008DE499E00E94650961E084E00E94D20716
:1030A0006EE778E08DE499E00E94E9010E945B06FA
:1030B000D82E80935706682F8EE798E00E94480A22
:1030C0008091EE059091EF0501962AE2D216A1F0CB
:1030D0009093EF058093EE058091EE059091EF05BA
:1030E000069769F681E08093F0051092EF05109243
:1030F000EE050E942907C3CF1092EF051092EE054E
:1031000061E672E08EE798E00E94D0090E942907EC
:10311000E3CF29E1C22ED12C912C812C8091550630
:1031200090915606881699063CF5CEAEDFAEBE01EC
:103130006F5F7F4FC6010E949B08BE016F5F7F4F8C
:103140008EE798E00E9426084EE2C40ED11C882328
:1031500009F443C081E08093ED058DE2FE013196D4
:10316000A6EFB5E001900D928A95E1F78EAD8093C0
:10317000F4059FAD9093F5058091ED05882389F1C5
:1031800063EA73E086EF95E00E94A52366EF75E0A1
:103190008091F4059091F5050E946B0860E084E051
:1031A0000E94D2076EE772E08DE499E00E94650903
:1031B00061E083E00E94D2076DEB74E08DE499E05A
:1031C0000E94650968EB7BE080E090E00E947A0451
:1031D0001092ED050E94290724CE2FEF821A920A41
:1031E0009DCF60E083E00E94D20767EA74E08DE43F
:1031F00099E00E94650961E083E00E94D20762EBDA
:1032000074E08DE499E00E94650968EB7BE080E062
:1032100090E00E947A041092F00561E672E08EE779
:1032200098E00E94D009D6CF8091270681114CC02A
:1032300060E083E00E94D20762E073E08DE499E0F1
:103240000E94650961E081E00E94D20767EC74E0AA
:103250008DE499E00E94650988E397E00E946E0280
:10326000181619060CF768E377E0CE0101960E9464
:10327000B50ABE016F5F7F4F8CE998E00E94670935
:10328000CE0101960E94A0090E94290760E080E01B
:103290000E94D20769E173E08DE499E00E9465091C
:1032A00068EB7BE080E090E00E947A046FE475E0D8
:1032B00088E397E00E94650981E080932706809368
:1032C000F1050E942907B0CF99E1C92ED12C912C8C
:1032D000812C8091550690915606881699063CF5EA
:1032E000CEAEDFAEBE016F5F7F4FC6010E949B086E
:1032F000BE016F5F7F4F8CE998E00E9426084EE286
:10330000C40ED11C882309F465C081E08093230694
:103310008DE2FE013196A6EFB5E001900D928A95FF
:10332000E1F78EAD8093F4059FAD9093F505809104
:103330002306882309F452C01092F1058091F1050B
:10334000811174C060E083E00E94D20762E073E004
:103350008DE499E00E94650961E085E00E94D20752
:1033600066ED74E08DE499E00E94650988E397E0DA
:103370000E946E02181619060CF768E377E0CE017A
:1033800001960E94B50ABE016F5F7F4F86E998E003
:103390000E946709CE0101960E94A0090E94290798
:1033A00060E080E00E94D2076DED74E08DE499E06A
:1033B0000E94650968EB7BE080E090E00E947A045F
:1033C0006FE475E088E397E00E94650981E08093EF
:1033D000F10529C02FEF821A920A7BCF60E083E0CB
:1033E0000E94D20767EA74E08DE499E00E946509C3
:1033F00061E083E00E94D20762EB74E08DE499E023
:103400000E94650968EB7BE080E090E00E947A040E
:103410001092270681E08093F10561E672E08CE965
:1034200098E00E94D0090E94290788CF8091230646
:10343000882309F4F6CC41E150E0BE016F5F7F4F75
:1034400086E998E00E940308BE016F5F7F4F86E027
:1034500096E00E94A52366EF75E08091F4059091B7
:10346000F5050E946B081092270681E08093F10514
:1034700060E084E00E94D20760E874E08DE499E0A7
:103480000E94650961E082E00E94D2076DEE74E05F
:103490008DE499E00E94650968EB7BE080E090E0B4
:1034A0000E947A040E94290710922306BACC8091C8
:1034B0002706811148C060E00E94D20766E772E0EB
:1034C0008DE499E00E94650961E084E00E94D207E2
:1034D0006AE878E08DE499E00E94E9010E945B06C9
:1034E000D82E80935706682F8AE898E00E94480AF1
:1034F000809125069091260601964AE2D416B1F0F5
:1035000090932606809325068091250690912606A5
:10351000069769F681E0809327068093240610922F
:103520002606109225060E942907C1CF1092260672
:103530001092250661E672E08AE898E00E94D009C0
:103540000E942907E1CF89E1C82ED12C912C812C32
:103550008091550690915606881699063CF5CEAE98
:10356000DFAEBE016F5F7F4FC6010E949B08BE01A8
:103570006F5F7F4F8AE898E00E9426089EE2C90E9E
:10358000D11C882309F465C081E0809323068DE275
:10359000FE013196A6EFB5E001900D928A95E1F714
:1035A0002EAD2093F4054FAD4093F5058091230691
:1035B000882309F452C010922406809124068111B8
:1035C00079C060E00E94D20766E872E08DE499E07D
:1035D0000E9465090E945B0680935706833229F09A
:1035E000682F80E998E00E94480A8091250661E0F2
:1035F0008C5F0E94D20767E972E08DE499E00E9437
:1036000065098091250690912606019690932606DD
:1036100080932506D090570693E2D91209C081E025
:103620008093240610922606109225060E942907F0
:103630008091250690912606089709F082C081E0C6
:103640008093240610922606109225060E942907D0
:10365000B4CF8FEF881A980A7BCF60E083E00E9496
:10366000D20767EA74E08DE499E00E94650961E0A1
:1036700083E00E94D20762EB74E08DE499E00E943F
:10368000650968EB7BE080E090E00E947A0410928C
:10369000270681E08093240661E672E08CE998E0D9
:1036A0000E94D00961E672E08AE898E00E94D009A1
:1036B0000E94290780912306882309F4B2CB49E0B0
:1036C00050E0BE016F5F7F4F80E998E00E940308E1
:1036D000BE016F5F7F4F8DEF95E00E94A52366EFDF
:1036E00075E08091F4059091F5050E946B081092A9
:1036F000270681E08093240660E083E00E94D207E1
:103700006EE872E08DE499E00E94650961E082E074
:103710000E94D2076DEE74E08DE499E00E94650985
:1037200068EB7BE080E090E00E947A040E94290729
:103730001092230661E672E080E998E00E94D009C9
:1037400070CB2AE2D21239CF1092F3051092F20513
:1037500061E672E080E998E00E94D00977CF60E0EE
:1037600082E00E94D20769EF74E08DE499E00E9444
:10377000650988E397E00E946E02181619060CF09E
:10378000CAC868E377E0CE0101960E94B50ABE017F
:103790006F5F7F4F88ED98E00E946709CE01019628
:1037A0000E94A00965E075E088ED98E00E94260877
:1037B000882309F4B0C870921802609217020E9420
:1037C000060AF3C8D12CC12C80915506909156065B
:1037D000C816D9060CF057C04EE24C9DC0014D9D55
:1037E000900D1124BE016F5F7F4F49960E949B0888
:1037F00063EA73E0CE0101960E949C23892B09F4B1
:10380000F4C060E080E00E94D207BE016F5E7F4F8F
:103810008DE499E00E94650961E080E00E94D20792
:103820006CE075E08DE499E00E94650961E08DE04F
:103830000E94D20765E074E08DE499E00E9465097A
:103840006DE072E080E00E94E70761E08FE00E9497
:10385000D20760E08DE499E00E94E1070E945B06D8
:10386000982E809357060E94290781E39812BDC0C5
:103870000E9429078DE2FE013196A8E2B6E0019090
:103880000D928A95E1F760E084E00E94D2076EE72E
:1038900072E08DE499E00E94650960E085E00E9495
:1038A000D20768E276E08DE499E00E94650968EB52
:1038B0007BE080E090E00E947A040E94290760E0AB
:1038C00081E00E94D20765E175E08DE499E00E94F5
:1038D000650961E080E00E94D20763E275E08DE453
:1038E00099E00E9465096091490670914A068DE44D
:1038F00099E00E941C0961E086E00E94D20766E21E
:1039000075E08DE499E00E94650960914B06709125
:103910004C068DE499E00E941C0961E08CE00E9455
:10392000D20769E275E08DE499E00E946509609133
:103930004D0670914E068DE499E00E941C0968EBDB
:103940007BE080E090E00E947A040E94290760E01A
:1039500081E00E94D2076CE275E08DE499E00E945C
:10396000650961E080E00E94D20763E275E08DE4C2
:1039700099E00E94650960914F06709150068DE4B0
:1039800099E00E941C0961E086E00E94D20766E28D
:1039900075E08DE499E00E9465096091510670918F
:1039A00052068DE499E00E941C0961E08CE00E94BF
:1039B000D20769E275E08DE499E00E9465096091A3
:1039C0005306709154068DE499E00E941C0968EB3F
:1039D0007BE080E090E00E947A040E942907B09288
:1039E0001802A09217020C948B14809155069091A6
:1039F00056060197C816D90611F4D12CC12C9FEF99
:103A0000C91AD90AE1CE88E397E00E946E0218161F
:103A100019060CF0E8C068E377E0CE0101960E9439
:103A2000B50ABE016F5F7F4F88ED98E00E9467097D
:103A3000CE0101960E94A00968ED78E085ED97E03F
:103A40000E94E9016FE572E085ED97E00E94C108F0
:103A500062E675E088ED98E00E942608882359F117
:103A60008091990690919A06019690939A06809378
:103A7000990662E675E08BE996E00E9465096AE0C6
:103A80008BE996E00E94E2016BE375E088E798E03D
:103A90000E94D00966E475E082E798E00E94D009B0
:103AA000F0929806E0929706109316020093150282
:103AB0000E94290798C06DE875E088ED98E00E94A3
:103AC0002608882361F080919506909196060196CC
:103AD00090939606809395066DE875E0CCCF60EAEA
:103AE00075E088ED98E00E942608882361F08091B7
:103AF0009306909194060196909394068093930672
:103B000060EA75E0B8CF6EE475E088ED98E00E9459
:103B10002608882309F4A3C16EE475E08BE996E0DA
:103B20000E9465096AE08BE996E00E94E2018091BB
:103B300091069091920620918F0630919006820F07
:103B4000931F90939206809391060E94290760E04C
:103B500081E00E94D2076CE275E08DE499E00E945A
:103B6000650961E080E00E94D20763E275E08DE4C0
:103B700099E00E94650960919106709192068DE42A
:103B800099E00E941C0961E086E00E94D20766E28B
:103B900075E08DE499E00E94650960918D06709151
:103BA0008E068DE499E00E941C0961E08CE00E9481
:103BB000D20769E275E08DE499E00E9465096091A1
:103BC0008B0670918C068DE499E00E941C0964E8D4
:103BD00073E080E090E00E947A040E94290710922E
:103BE000900610928F068BE996E00E946E021816DE
:103BF0001906E4F56BE976E0CE0101960E94B50A5C
:103C0000BE016F5F7F4F88ED98E00E946709CE018B
:103C100001960E94A00968ED78E085ED97E00E948A
:103C2000E9016FE572E085ED97E00E94C10867E564
:103C300075E088ED98E00E942608882309F439C2CF
:103C400062EB73E088E798E00E94D00963EC73E0D0
:103C500082E798E00E94D009109298061092970689
:103C6000F0921602E09215020E9429070E941405A4
:103C700080935706813409F0DAC00E94290760E07A
:103C800081E00E94D20765E175E08DE499E00E9431
:103C9000650961E080E00E94D20763E275E08DE48F
:103CA00099E00E9465096091990670919A068DE4E9
:103CB00099E00E941C0961E086E00E94D20766E25A
:103CC00075E08DE499E00E94650960919506709118
:103CD00096068DE499E00E941C0961E08CE00E9448
:103CE000D20769E275E08DE499E00E946509609170
:103CF0009306709194068DE499E00E941C0964E893
:103D000073E080E090E00E947A040E94290760E05E
:103D100081E00E94D20764E775E08DE499E00E949B
:103D2000650961E080E00E94D20763E275E08DE4FE
:103D300099E00E94650960918F06709190068DE46C
:103D400099E00E941C0961E086E00E94D20766E2C9
:103D500075E08DE499E00E94650960918906709193
:103D60008A068DE499E00E941C0961E08CE00E94C3
:103D7000D20769E275E08DE499E00E9465096091DF
:103D80008706709188068DE499E00E941C0964E81A
:103D900073E080E090E00E947A040E94290760E0CE
:103DA00081E00E94D2076CE275E08DE499E00E9408
:103DB000650961E080E00E94D20763E275E08DE46E
:103DC00099E00E94650960919106709192068DE4D8
:103DD00099E00E941C0961E086E00E94D20766E239
:103DE00075E08DE499E00E94650960918D067091FF
:103DF0008E068DE499E00E941C0961E08CE00E942F
:103E0000D20769E275E08DE499E00E94650960914E
:103E10008B0670918C068DE499E00E941C0964E881
:103E200073E080E090E00E947A040E94290760E03D
:103E3000809197060E94D20768E778E08DE499E0C8
:103E40000E94E90161E0809115020E94D20762E7B9
:103E500078E08DE499E00E94E9010C948B1461E50F
:103E600075E088ED98E00E942608882309F468C070
:103E700061E575E08BE996E00E9465096AE08BE9EF
:103E800096E00E94E20180918D0690918E0620912D
:103E9000890630918A06820F931F90938E06809335
:103EA0008D060E94290760E081E00E94D2076CE243
:103EB00075E08DE499E00E94650961E080E00E9470
:103EC000D20763E275E08DE499E00E946509609194
:103ED0009106709192068DE499E00E941C0961E0C0
:103EE00086E00E94D20766E275E08DE499E00E94C8
:103EF000650960918D0670918E068DE499E00E94AF
:103F00001C0961E08CE00E94D20769E275E08DE453
:103F100099E00E94650960918B0670918C068DE492
:103F200099E00E941C0964E873E080E090E00E9440
:103F30007A040E94290710928A061092890653CEAD
:103F400064E575E088ED98E00E942608882309F46E
:103F500068C064E575E08BE996E00E9465096AE057
:103F60008BE996E00E94E20180918B0690918C068D
:103F70002091870630918806820F931F90938C06BC
:103F800080938B060E94290760E081E00E94D2079F
:103F90006CE275E08DE499E00E94650961E080E0E3
:103FA0000E94D20763E275E08DE499E00E94650902
:103FB00060919106709192068DE499E00E941C092F
:103FC00061E086E00E94D20766E275E08DE499E048
:103FD0000E94650960918D0670918E068DE499E0CE
:103FE0000E941C0961E08CE00E94D20769E275E042
:103FF0008DE499E00E94650960918B0670918C06B2
:104000008DE499E00E941C0964E873E080E090E090
:104010000E947A040E94290710928806109287064F
:10402000E2CD65E075E088ED98E00E9426088823DF
:1040300009F4D9CD8091990690919A0690937C06C7
:1040400080937B06809195069091960690937E06CC
:1040500080937D06809193069091940690938006BC
:1040600080937F06809191069091920690938206AC
:104070008093810680918D0690918E0690938406A0
:104080008093830680918B0690918C069093860690
:10409000809385066AE576E08091580690915906EE
:1040A0000E946B0870921802609217020E94060A22
:1040B000FFCC64E373E088ED98E00E942608882333
:1040C00009F46EC080918F069091900601969093AE
:1040D000900680938F060E94290760E080E00E948E
:1040E000D2076AE575E08DE499E00E94650961E018
:1040F00083E00E94D2076AE675E08DE499E00E94B1
:10410000650960E273E080E090E00E947A040E941A
:10411000290760E081E00E94D20764E775E08DE442
:1041200099E00E94650961E080E00E94D20763E2A5
:1041300075E08DE499E00E94650960918F067091A9
:1041400090068DE499E00E941C0961E086E00E94DF
:10415000D20766E275E08DE499E00E9465096091FE
:10416000890670918A068DE499E00E941C0961E03D
:104170008CE00E94D20769E275E08DE499E00E942C
:10418000650960918706709188068DE499E00E9428
:104190001C0960E273E080E090E00E947A0464CD44
:1041A00062E875E088ED98E00E942608882391F087
:1041B0008091890690918A06019690938A06809351
:1041C00089060E94290760E080E00E94D20765E826
:1041D00075E089CF65E975E088ED98E00E942608D2
:1041E000882309F443CD8091870690918806019633
:1041F00090938806809387060E94290760E081E0FB
:104200000E94D20768E975E06ECF82E798E00E94CD
:10421000A00988E798E00E94A0098EE798E00E9434
:10422000A00984E898E00E94A0098AE898E00E942A
:10423000A00980E998E00E94A00986E998E00E9420
:10424000A0098CE998E00E94A00982EA98E00E9407
:10425000A00988EA98E00E94A0098EEA98E00E94EE
:10426000A00984EB98E00E94A0098AEB98E00E94E4
:10427000A00980EC98E00E94A00986EC98E00E94DA
:10428000A0098CEC98E00E94A00982ED98E00E94C1
:10429000A00988ED98E00C94A009F999FECF92BD91
:1042A00081BDF89A992780B50895262FF999FECFF8
:1042B0001FBA92BD81BD20BD0FB6F894FA9AF99A43
:1042C0000FBE01960895A1E21A2EAA1BBB1BFD0189
:1042D0000DC0AA1FBB1FEE1FFF1FA217B307E407E5
:1042E000F50720F0A21BB30BE40BF50B661F771F3D
:1042F000881F991F1A9469F760957095809590951D
:104300009B01AC01BD01CF010895EE0FFF1F881F77
:104310008BBF0790F691E02D19940F931F93CF93C5
:10432000DF938230910510F482E090E0E09167091C
:10433000F091680930E020E0B0E0A0E0309799F417
:104340002115310509F44AC0281B390B24303105E9
:10435000D8F58A819B816115710589F1FB019383F1
:104360008283FE0111C0408151810281138148176F
:104370005907E0F04817590799F4109761F0129621
:104380000C93129713961C933296CF01DF91CF9125
:104390001F910F9108950093670910936809F4CF56
:1043A0002115310551F04217530738F0A901DB01FF
:1043B0009A01BD01DF01F801C1CFEF01F9CF909360
:1043C000680980936709CDCFFE01E20FF31F819347
:1043D00091932250310939832883D7CF20916509E1
:1043E00030916609232B41F420913302309134023D
:1043F0003093660920936509209131023091320291
:104400002115310541F42DB73EB740913502509149
:104410003602241B350BE0916509F0916609E2171D
:10442000F307A0F42E1B3F0B2817390778F0AC01D7
:104430004E5F5F4F2417350748F04E0F5F1F5093B4
:10444000660940936509819391939FCFF0E0E0E086
:104450009CCFCF93DF930097E9F0FC013297138252
:104460001282A0916709B0916809ED0130E020E067
:104470001097A1F420813181820F931F209165094B
:10448000309166092817390709F061C0F093660971
:10449000E0936509DF91CF910895EA01CE17DF0718
:1044A000E8F54A815B819E0141155105B1F7E901AB
:1044B000FB83EA8349915991C40FD51FEC17FD077F
:1044C00061F4808191810296840F951FE90199839F
:1044D0008883828193819B838A83F0E0E0E0129657
:1044E0008D919C9113970097B9F52D913C9111975F
:1044F000CD010296820F931F2091650930916609C4
:104500002817390739F6309751F51092680910923B
:104510006709B0936609A0936509BCCFD383C283B2
:1045200040815181840F951FC817D90761F44E5FF0
:104530005F4F88819981480F591F518340838A8139
:104540009B81938382832115310509F0B0CFF093CD
:104550006809E09367099ECFFD01DC01C0CF13829B
:104560001282D7CF4F925F926F927F928F929F92DB
:10457000AF92BF92CF92DF92EF92FF920F931F9371
:10458000CF93DF938C01009799F4CB01DF91CF910A
:104590001F910F91FF90EF90DF90CF90BF90AF9061
:1045A0009F908F907F906F905F904F900C948D2193
:1045B000FC01E60FF71F9C0122503109E217F307B7
:1045C00008F4AEC0D901CD91DC911197C617D70779
:1045D00020F1C530D10578F0CE01049786179707F2
:1045E00050F0C61BD70B2297C193D1936D937C9348
:1045F000CF010E942922C801DF91CF911F910F9115
:10460000FF90EF90DF90CF90BF90AF909F908F90F2
:104610007F906F905F904F9008955B01AC1ABD0A38
:104620004C018C0E9D1EA0916709B0916809512C18
:10463000412CF12CE12C109731F580916509909176
:1046400066098815990509F05CC04616570608F0FA
:1046500058C08091310290913202009741F48DB799
:104660009EB74091350250913602841B950BE81796
:10467000F90708F055C0F0936609E0936509F90160
:1046800071836083B8CF8D919C91119712966C9035
:10469000129713967C901397A815B90559F56C01DC
:1046A00042E0C40ED11CCA14DB0420F1AC014A194B
:1046B0005B09DA011296159780F06282738251834A
:1046C0004083D9016D937C93E114F10471F0D7011B
:1046D0001396FC93EE9312978ECF22968C0F9D1F0C
:1046E000F90191838083F301EFCFF0936809E093A0
:1046F000670981CF4816590608F42C017D01D301C2
:104700009ACFCB010E948D217C01009749F0AE0128
:10471000B8010E949323C8010E94292287016BCF10
:1047200010E000E068CFFB01DC0102C001900D92B7
:1047300041505040D8F70895FB01DC018D91019064
:1047400080190110D9F3990B0895FB01DC01019048
:104750000D920020E1F70895FB01DC01415050402B
:1047600048F001900D920020C9F701C01D92415000
:104770005040E0F7089511E0C3E6D1E000E006C044
:10478000802FFE010E9485212196011DC436D1078C
:1047900080E00807A9F7F894FFCF010101010100AB
:1047A000040C1F1F0C04000004061F1F0604000356
:1047B000000100202122231C1D1E1F3132334134F1
:1047C000353642373839432A30234400006909809E
:1047D0000000000000BA02F7013D0207036E024C20
:1047E0000260020000000051041104E00300000018
:1047F00000E107F7018A06E1010D0A004C4F474925
:104800004E00496E6963696520536573696F6E0078
:10481000496E6772657365205573756172696F00C3
:10482000496E67726573652050617373776F726448
:10483000002A0043726564656E6369616C6573008C
:10484000436F727265637461730061646D696E00B9
:10485000656E7472650056696E63756C65206C6177
:104860000061706C69636163696F6E007573657276
:1048700000496E636F7272656374617300636F6E7B
:1048800065637461646F0041706C69636163696F33
:104890006E0056696E63756C616461004F62746589
:1048A0006E69656E646F007573756172696F206102
:1048B0007070005573756172696F206F6274656EF8
:1048C00069646F0070617373776F726420617070D8
:1048D00000696E76616C6964617300746F6B656EFC
:1048E0002061707000546F6B656E206F6274656E2E
:1048F00069646F00496E677265736520656C20742A
:104900006F6B656E00546F6B656E20696E76616CBF
:1049100069646F004269656E76656E69646F004117
:10492000646D696E2D3133410053696E63726F6E31
:10493000697A616E646F006461746F73004E4F4EEC
:10494000450075004572726F7200300050726F63DF
:104950006573617220706171756574650064697357
:10496000706F6E69626C65005573756172696F7303
:104970003A2000477275706F31332D536563636958
:104980006F6E4100312E435255442055737561724C
:10499000696F7300322E5265706F727465730044D4
:1049A0002E004F7063696F6E20496E76616C69648A
:1049B0006100332E43657272617220536573696FB3
:1049C0006E00312E437265617200322E4D6F646944
:1049D000666963617200332E566572205573756186
:1049E00072696F7300342E456C696D696E61720077
:1049F000352E53616C697200556E6B6E6F77005582
:104A000073756172696F2063726561646F00636FB3
:104A10006E20657869746F00312E4E6F6D6272651D
:104A200000322E50617373776F726400422E004E15
:104A30006F6D6272653A0050617373776F72643A9A
:104A4000005573756172696F206E6F00456E636FFC
:104A50006E747261646F00656C696D696E61646F1C
:104A600000636F6469676F207573756172696F00A9
:104A70006E6F6D627265004E6F6D627265206F625F
:104A800074656E69646F0061637475616C697A61E5
:104A9000646F0043657272616E646F2E2E2E006328
:104AA000657272617200312E20456E74657200501D
:104AB0002E2050726F63657361646F7300503A000B
:104AC0004D3A00473A00502E204465737061636888
:104AD00061646F73005061717565746520656E0067
:104AE00070726F6365736F0062310062320062330F
:104AF000006F6B005061717565746520706571752C
:104B0000656E6F00656E2070756572746100502E61
:104B1000204163756D756C61646F7300706D00503A
:104B2000617175657465206D656469616E6F007093
:104B3000670050617175657465206772616E6465A8
:024B4000000073
:020000040003F7
:10E000000D9489F10D94B2F10D94B2F10D94B2F129
:10E010000D94B2F10D94B2F10D94B2F10D94B2F1F0
:10E020000D94B2F10D94B2F10D94B2F10D94B2F1E0
:10E030000D94B2F10D94B2F10D94B2F10D94B2F1D0
:10E040000D94B2F10D94B2F10D94B2F10D94B2F1C0
:10E050000D94B2F10D94B2F10D94B2F10D94B2F1B0
:10E060000D94B2F10D94B2F10D94B2F10D94B2F1A0
:10E070000D94B2F10D94B2F10D94B2F10D94B2F190
:10E080000D94B2F10D94B2F10D94B2F10D94B2F180
:10E090000D94B2F10D94B2F10D94B2F10D94B2F170
:10E0A0000D94B2F10D94B2F10D94B2F10D94B2F160
:10E0B0000D94B2F10D94B2F10D94B2F10D94B2F150
:10E0C0000D94B2F10D94B2F10D94B2F10D94B2F140
:10E0D0000D94B2F10D94B2F10D94B2F10D94B2F130
:10E0E0000D94B2F141546D656761323536300041AF
:10E0F000726475696E6F206578706C6F72657220DE
:10E1000073746B3530305632206279204D4C530099
:10E11000426F6F746C6F616465723E004875683F52
:10E1200000436F6D70696C6564206F6E203D200048
:10E130004350552054797065202020203D20005FF9
:10E140005F4156525F415243485F5F3D2000415658
:10E1500052204C696243205665723D20004743437C
:10E160002056657273696F6E203D20004350552024
:10E1700049442020202020203D20004C6F7720663D
:10E18000757365202020203D20004869676820665F
:10E190007573652020203D200045787420667573D6
:10E1A00065202020203D20004C6F636B2066757336
:10E1B000652020203D20004D617220203720323024
:10E1C000313300312E362E3800342E332E350056A2
:10E1D00023202020414444522020206F7020636F70
:10E1E00064652020202020696E73747275637469E1
:10E1F0006F6E2061646472202020496E74657272B3
:10E20000757074006E6F20766563746F7200726A49
:10E210006D702020006A6D70200057686174207056
:10E220006F72743A00506F7274206E6F7420737541
:10E2300070706F72746564004D7573742062652030
:10E2400061206C6574746572002000577269747483
:10E25000696E672045450052656164696E672045B7
:10E26000450045452065727220636E743D00504F35
:10E27000525400303D5A65726F2061646472003FF1
:10E280003D43505520737461747300403D454550C3
:10E29000524F4D207465737400423D426C696E6B41
:10E2A000204C454400453D44756D70204545505215
:10E2B0004F4D00463D44756D7020464C415348001B
:10E2C000483D48656C70004C3D4C69737420492F83
:10E2D0004F20506F72747300513D51756974005234
:10E2E0003D44756D702052414D00563D73686F7707
:10E2F00020696E7465727275707420566563746FF0
:10E30000727300593D506F727420626C696E6B00BD
:10E310002A0011241FBECFEFD1E2DEBFCDBF01E046
:10E320000CBF12E0A0E0B2E0EEE1FDEF03E00BBFB6
:10E3300002C007900D92A030B107D9F712E0A0E01B
:10E34000B2E001C01D92AE30B107E1F70F9460F367
:10E350000D948DFE01E20EBF0FEF0DBF11241FBE05
:10E360000D9460F30D9400F020E030E040ED57E0B4
:10E3700005C0FA013197F1F72F5F3F4F2817390792
:10E38000C0F308959C01260F311DC901A0E0B0E043
:10E390002F5F3F4FABBFFC018791882361F08093D3
:10E3A000C6008091C00086FFFCCF8091C0008064D1
:10E3B0008093C000EACF08958DE08093C6008091DD
:10E3C000C00086FFFCCF8091C00080648093C000B5
:10E3D0008AE08093C6008091C00086FFFCCF8091C8
:10E3E000C00080648093C00008950F94C2F10F9420
:10E3F000DCF10895FC019081992359F09093C600B7
:10E400008091C00086FFFCCF8091C0008064809323
:10E41000C0003196992379F70895282F982F929567
:10E420009F70892F805D8A3308F0895F8093C600D2
:10E430008091C00086FFFCCF8091C00080648093F3
:10E44000C000822F8F70982F905D9A3308F0995FEB
:10E450009093C6008091C00086FFFCCF8091C000E1
:10E4600080648093C00008959C01FB01853691056E
:10E470001CF46330710594F0C90164E670E00F94F8
:10E480002EFE605D7F4F6093C6008091C00086FFC6
:10E49000FCCF8091C00080648093C0002B30310598
:10E4A00014F43297B4F0C90164E670E00F942EFEC4
:10E4B0006AE070E00F942EFE605D7F4F6093C600AF
:10E4C0008091C00086FFFCCF8091C0008064809363
:10E4D000C000C9016AE070E00F942EFEC0968093E0
:10E4E000C6008091C00086FFFCCF8091C000806490
:10E4F0008093C00008951F93182F8EE692EE60E07F
:10E500000F94C2F11093C6008091C00086FFFCCF2B
:10E510008091C00080648093C0000F94DCF11F9153
:10E5200008952F923F924F925F926F927F928F92B7
:10E530009F92AF92BF92CF92DF92EF92FF920F9392
:10E540001F93DF93CF93CDB7DEB762970FB6F894E2
:10E55000DEBF0FBECDBF382E622ECA01DB015C01CB
:10E560006D01772420E2222E2E010894411C511CBB
:10E570008BC081E0A81680E0B80681E0C80680E084
:10E58000D80628F0C601AA27BB270F940DF2BB2797
:10E59000AD2D9C2D8B2D0F940DF28A2D0F940DF225
:10E5A0002092C6008091C00086FFFCCF8091C00001
:10E5B00080648093C0009DE29093C6008091C0006B
:10E5C00086FFFCCF8091C00080648093C0002092C1
:10E5D000C6008091C00086FFFCCF8091C00080649F
:10E5E0008093C00019828601750188249924A1E0D6
:10E5F0003A1651F03A1620F0B2E03B1661F409C029
:10E600000BBFF701779007C0C7010F9477FE782EF4
:10E6100002C0F7017080872D0F940DF22092C60082
:10E620008091C00086FFFCCF8091C0008064809301
:10E63000C000872D8052F401EF70F0708F3520F408
:10E64000E40DF51D708204C0E40DF51D8EE280839B
:10E650000894E11CF11C011D111D0894811C911CE2
:10E6600090E18916910409F0C2CF80E190E0A0E02A
:10E67000B0E0A80EB91ECA1EDB1E198AC2010F9493
:10E68000FAF10F94DCF16A94662009F072CF629679
:10E690000FB6F894DEBF0FBECDBFCF91DF911F91B3
:10E6A0000F91FF90EF90DF90CF90BF90AF909F9031
:10E6B0008F907F906F905F904F903F902F90089534
:10E6C0002F923F924F925F926F927F928F929F9282
:10E6D000AF92BF92CF92DF92EF92FF920F931F9370
:10E6E000DF93CF93CDB7DEB7CD53D1400FB6F894BB
:10E6F000DEBF0FBECDBF01E20EBF0FEF0DBF94B75F
:10E70000F894A89514BE80916000886180936000A1
:10E7100010926000789493FF05C0E0910002F091A0
:10E7200001021995279A2F9A8091C00082608093E8
:10E73000C00080E18093C40088E18093C1000000A4
:10E74000EE24FF24870144E0A42EB12CCC24DD2448
:10E7500024C0C5010197F1F70894E11CF11C011DCB
:10E76000111D21E2E2162EE4F20620E0020720E06D
:10E77000120718F031E0C32ED12CC801B70127ECE5
:10E780003BE140E050E00F9441FE611571058105C9
:10E79000910519F485B1805885B98091C00087FD35
:10E7A00003C0C114D104A9F2A6014F5F5F4FC25E3E
:10E7B000DE4F59834883CE51D140C25EDE4F8881FF
:10E7C0009981CE51D140019711F00D9410FEC05D9A
:10E7D000DE4F19821882C053D14060E0C15DDE4F28
:10E7E0001882CF52D14088249924C35DDE4F19820C
:10E7F0001882CD52D140C05EDE4F188219821A8233
:10E800001B82C052D140CE5CDE4F188219821A8220
:10E810001B82C253D140EE24FF2487010BBFF701B6
:10E8200007911691C45CDE4F19830883CC53D14005
:10E830000D940BFEC25EDE4F28813981CE51D1404E
:10E840002130310509F52091C600C25EDE4F1982E4
:10E850001882CE51D14022C02F5F3F4F4F4F5F4FA4
:10E86000213082E138078AE7480780E0580780F0C6
:10E87000C45CDE4FE881F981CC53D140EF5FFF4F9C
:10E8800019F0EE27FF27099420E030E040E050E047
:10E890008091C00087FFE0CF2091C600C35DDE4FAE
:10E8A00048815981CD52D1404F5F5F4FC35DDE4FEC
:10E8B00059834883CD52D140213209F063C64A3092
:10E8C000510508F05FC60894811C911C53E0851621
:10E8D000910409F059C600E010E018C081E280936D
:10E8E000C6008091C00086FFFCCF8091C00080648C
:10E8F0008093C0002F5F3F4F2931310579F70F9486
:10E90000DCF10F5F1F4F0530110519F020E030E0FA
:10E91000E5CF10920A0210920B0210920C02109294
:10E920000D02109206021092070210920802109235
:10E930000902109202021092030210920402109235
:10E9400005028FEE90EE60E00F94F5F180E191EE1C
:10E9500060E00F94C2F18091C00087FFFCCF9091DE
:10E96000C600903608F09F759032B8F09093C600BC
:10E970008091C00086FFFCCF8091C00080648093AE
:10E98000C000A0E2A093C6008091C00086FFFCCF2B
:10E990008091C00080648093C000983409F4D7C18E
:10E9A0009934B8F4923409F459C1933458F490333B
:10E9B00019F1903308F4E3C59F33A1F1903409F0C5
:10E9C000DEC5BDC0953409F470C1963409F0D7C5D1
:10E9D00098C1923509F42BC2933538F49C3409F46C
:10E9E000F5C1913509F0CBC518C2963509F445C279
:10E9F000993509F0C4C567C483E792EE62E00F94CD
:10EA0000F5F110920602109207021092080210927D
:10EA1000090210920A0210920B0210920C0210923C
:10EA20000D0213C18FE792EE62E00F94F5F18FEEC5
:10EA300090EE60E00F94F5F181E291EE60E00F94CA
:10EA4000C2F187EB91EE60E00F94F5F180E391EE77
:10EA500060E00F94C2F184EE90EE60E00F94F5F167
:10EA60008FE391EE60E00F94C2F186E090E061E008
:10EA700070E00F9434F20F94DCF18DE591EE60E0DC
:10EA80000F94C2F189EC91EE60E00F94F5F18EE401
:10EA900091EE60E00F94C2F183EC91EE60E00F9490
:10EAA000F5F18CE691EE60E00F94C2F18EE10F94E7
:10EAB0000DF288E90F940DF281E00F940DF20F949E
:10EAC000DCF18BE791EE60E00F94C2F119E0E0E039
:10EAD000F0E010935700E4918E2F0F940DF20F94F5
:10EAE000DCF18AE891EE60E00F94C2F1E3E0F0E03F
:10EAF00010935700E4918E2F0F940DF20F94DCF1D8
:10EB000089E991EE60E00F94C2F1E2E0F0E0109349
:10EB10005700E4918E2F0F940DF20F94DCF188EAE8
:10EB200091EE60E00F94C2F1E1E0F0E01093570045
:10EB30001491812F0F940DF20F94DCF107CF8BE825
:10EB400092EE62E00F94F5F18BE492EE60E00F94A8
:10EB5000F5F10F94DCF100E010E019C0C8016F2D51
:10EB60000F947FFEFF2031F489E492EE60E00F9471
:10EB7000C2F10BC0F092C6008091C00086FFFCCFAE
:10EB80008091C00080648093C0000F5F1F4FC80158
:10EB900081519F41A0E0B0E0ABBFFC01F790BAE229
:10EBA000FB1621F0E2E000301E07C1F60F94DCF105
:10EBB0000F94DCF187E592EE60E00F94F5F10F948D
:10EBC000DCF1CC24DD2400E010E01EC0C8010F946D
:10EBD00077FEF82E882331F489E492EE60E00F94FA
:10EBE000C2F10BC08093C6008091C00086FFFCCFAD
:10EBF0008091C00080648093C000FE1419F00894D6
:10EC0000C11CD11C0F5F1F4FC80181519F41A0E063
:10EC1000B0E0ABBFFC01E790FAE2EF1621F022E092
:10EC20000030120799F60F94DCF10F94DCF182E6C4
:10EC300092EE60E00F94C2F1C60161E070E00F94C3
:10EC400034F20F94DCF10F94DCF110920202109276
:10EC50000302109204021092050278CE89E992EE26
:10EC600062E00F94F5F1279A2F9A16C02F9880E052
:10EC700090E0E0EDF7E03197F1F7019684369105E9
:10EC8000C1F72F9A80E090E0E0EDF7E03197F1F7DF
:10EC9000019684369105C1F78091C00087FFE6CFC9
:10ECA0008091C00087FFFCCF64C485EA92EE62E0E9
:10ECB0000F94F5F140910202509103026091040219
:10ECC0007091050281E020E10F9491F2809102029F
:10ECD00090910302A0910402B091050280509F4FD1
:10ECE000AF4FBF4F8093020290930302A0930402A0
:10ECF000B093050280509041A040B04008F426CE69
:10ED0000A4CF83EB92EE62E00F94F5F140910602FE
:10ED100050910702609108027091090280E020E1A1
:10ED20000F9491F28091060290910702A09108023F
:10ED3000B091090280509F4FAF4FBF4F80930602A2
:10ED400090930702A0930802B0930902FFCD80ECD4
:10ED500092EE62E00F94F5F183E792EE60E00F949B
:10ED6000F5F18FE792EE60E00F94F5F18BE892EE0B
:10ED700060E00F94F5F189E992EE60E00F94F5F10F
:10ED800085EA92EE60E00F94F5F183EB92EE60E09D
:10ED90000F94F5F180EC92EE60E00F94F5F187ECC2
:10EDA00092EE60E00F94F5F188ED92EE60E00F9442
:10EDB000F5F18FED92EE60E00F94F5F18AEE92EEB0
:10EDC00060E00F94F5F183E093EEBDCD87EC92EE19
:10EDD00062E00F94F5F181E40F947BF282E40F94EA
:10EDE0007BF283E40F947BF284E40F947BF285E45E
:10EDF0000F947BF286E40F947BF287E40F947BF20E
:10EE000088E40F947BF28AE40F947BF28BE40F94F6
:10EE10007BF28CE40F947BF299CD88ED92EE62E068
:10EE20000F94F5F1772473948824992409C48FED05
:10EE300092EE62E00F94F5F140910A0250910B02BC
:10EE400060910C0270910D0282E020E10F9491F22A
:10EE500080910A0290910B02A0910C02B0910D02D8
:10EE600080509F4FAF4FBF4F80930A0290930B0289
:10EE7000A0930C02B0930D0269CD8AEE92EE62E08F
:10EE80000F94F5F184EE90EE60E00F94F5F18FECC5
:10EE900091EE60E00F94F5F1662477244301CC5D98
:10EEA000DE4F19821882C452D140D401C301B695F5
:10EEB000A79597958795CA5DDE4F88839983AA8326
:10EEC000BB83C652D140CC5DDE4FA881B981C4520C
:10EED000D1401196CC5DDE4FB983A883C452D14096
:10EEE000CD0162E070E00F9434F2B0E2B093C6005E
:10EEF0008091C00086FFFCCF8091C0008064809329
:10EF0000C000EDE2E093C6008091C00086FFFCCF18
:10EF10008091C00080648093C000F0E2F093C6004E
:10EF20008091C00086FFFCCF8091C00080648093F8
:10EF3000C000CA5DDE4FE880F9800A811B81C6529D
:10EF4000D140BB27A12F902F8F2D0F940DF2CA5DBA
:10EF5000DE4F8881C652D1400F940DF2B0E2FB2EF5
:10EF6000F092C6008091C00086FFFCCF8091C00067
:10EF700080648093C0000DE30093C6008091C000C0
:10EF800086FFFCCF8091C00080648093C00010E2B7
