:100000000C9464010C9495010C9495010C94950149
:100010000C9495010C9495010C9495010C94950108
:100020000C9495010C9495010C9495010C949501F8
:100030000C9495010C9495010C9495010C949501E8
:100040000C9495010C9495010C9495010C949501D8
:100050000C9495010C9495010C9495010C940E143C
:100060000C9495010C94E4130C94BA130C94950120
:100070000C9495010C9495010C9495010C949501A8
:100080000C9495010C9495010C9495010C94950198
:100090000C9490130C9466130C9495010C94950198
:1000A0000C9495010C9495010C9495010C94950178
:1000B0000C9495010C9495010C9495010C94950168
:1000C0000C9495010C9495010C9495010C943C139F
:1000D0000C9412130C9495010C9495010C949501B9
:1000E0000C9495010C9483030C94A9030C94171D94
:1000F0000C9460020C94F7010C944C020C940703CE
:100100000C94A0170C94A5030C9452180C94110491
:100110000C943D020C949B030C94C6190C94771E0E
:100120000C94AF030C94E1010C9413180C946E0220
:100130000C94E1070C9491180C94BA020C9451178A
:100140000C94CB1F0C9497030C9474030C94E00351
:100150000C94D3170C94081A0C94EF1A0C945317A0
:100160000C94A1030C94CD230C9480030C94CC1B11
:100170000C94AE030C94B3030C94AA1E0C948A0640
:100180000C9478030C9493030C9456170C948903E5
:100190000C947C030C948D030C9451040C9458140F
:1001A0000C946E0300002100240027002A002D007B
:1001B0003000330001010000040107010A010000C2
:1001C0002200250028002B002E00310034000201FF
:1001D0000000050108010B0100002000230026009B
:1001E00029002C002F00320000010000030106014D
:1001F00009010505050507050808080802020202AD
:100200000A0A0808040404040101010101010101B2
:100210000303030303030303040707070C0C0C0C7D
:100220000C0C0C0C02020202060606060606060666
:100230000B0B0B0B0B0B0B0B0102102020080810F3
:100240002040102040800201020108040201010246
:10025000040810204080804020100804020180041F
:10026000020180402010080402010804020101027A
:100270000408102040800102040810204080000083
:100280000A0B02090C0D0E08070304010000000010
:10029000000000000000000000000000000000005E
:1002A000000000000000000000001211100000001B
:1002B000000000000000000000000000000000003E
:1002C000000000005814CD2311241FBECFEFD1E24F
:1002D000DEBFCDBF00E00CBF29E0A0E0B6E001C06A
:1002E0001D92A13CB207E1F716E0A0E0B2E0EAE21D
:1002F000FDE400E00BBF02C007900D92A030B107F3
:10030000D9F711E0C3E6D1E000E006C0219701096A
:10031000802FFE010E944D24C236D10780E00807DD
:10032000A9F70E94F4150C9483260C940000FC019C
:10033000A089B18982E08C93A485B5851C92A6859D
:10034000B7858FEC8C93108EA489B58986E08C9349
:10035000A289B3898C9180618C93A289B3898C9195
:1003600088608C93A289B3898C9180688C93028871
:10037000F389E02D80818F7D8083089596E0899FA9
:10038000D0011124AA5CB64F90967C936E935F9730
:1003900091E091969C939197E091A309F091A40923
:1003A0009091A209992339F0309751F0811108C03A
:1003B000809152091994309719F05C968C91FACF7C
:1003C00008950895DC01ED91FC910190F081E02DFC
:1003D0001994DB0114964D915C9115976D917C9168
:1003E000DC01ED91FC910280F381E02D1994AF9234
:1003F000BF92CF92DF92EF92FF920F931F93CF9312
:10040000DF936C017B018B01040F151FEB015E0173
:10041000AE18BF08C017D10759F06991D601ED9108
:10042000FC910190F081E02DC6011995892B79F797
:10043000C501DF91CF911F910F91FF90EF90DF9059
:10044000CF90BF90AF900895FC01A089B1898C91A5
:10045000A689B78982FD0FC09C91818D8F5F8F73B4
:10046000228D821749F0A18DAE0FBF2FB11D5D9671
:100470009C93818F08958C910895FC01538D448D38
:10048000252F30E0842F90E0821B930B541710F03F
:10049000CF96089501970895FC01918D828D98174C
:1004A00061F0A28DAE0FBF2FB11D5D968C91928D24
:1004B0009F5F9F73928F90E008958FEF9FEF089555
:1004C000FC01918D828D981731F0828DE80FF11D1E
:1004D000858D90E008958FEF9FEF0895FC01918D39
:1004E000228D892F90E0805C9F4F821B91098F7332
:1004F0009927089583EF96E00E946E0221E0892BF0
:1005000009F420E0822F089580E997E00E946E02AE
:1005100021E0892B09F420E0822F08958DE298E0F4
:100520000E946E0221E0892B09F420E0822F0895B9
:10053000FC01A48DA80FB92FB11DA35ABF4F2C9158
:10054000848D90E001968F739927848FA689B7894F
:100550002C93A089B1898C91837080648C93938D46
:10056000848D981306C00288F389E02D80818F7DE9
:1005700080830895EF92FF920F931F93CF93DF93A1
:10058000EC0181E0888F9B8D8C8D98131AC0E889CF
:10059000F989808185FF15C09FB7F894EE89FF899E
:1005A0006083E889F98980818370806480839FBF3C
:1005B00081E090E0DF91CF911F910F91FF90EF903C
:1005C0000895F62E0B8D10E00F5F1F4F0F7311274C
:1005D000E02E8C8D8E110CC00FB607FCFACFE88987
:1005E000F989808185FFF5CFCE010E949802F1CF75
:1005F000EB8DEC0FFD2FF11DE35AFF4FF0829FB7FB
:10060000F8940B8FEA89FB8980818062CFCFCF93EA
:10061000DF93EC01888D8823B9F0AA89BB89E8892A
:10062000F9898C9185FD03C0808186FD0DC00FB6D0
:1006300007FCF7CF8C9185FFF2CF808185FFEDCF4E
:10064000CE010E949802E9CFDF91CF91089580E01A
:1006500090E0892B29F00E948E0281110E940000F7
:1006600080E090E0892B29F00E94840281110E9491
:10067000000080E090E0892B29F00E947A0281112D
:100680000E94000080E090E0892B49F080E090E03B
:10069000892B29F00E94000081110C94000008951C
:1006A0008150823108F05AC0E82FF0E08827E45AE0
:1006B000FC4F8F4F0C944D247C0380036E03740316
:1006C0007803AE03830389038D03930397039B038E
:1006D000A103A503AE03A903AF03B3038091800078
:1006E0008F77809380000895809180008F7DF9CF6F
:1006F00080918000877FF5CF84B58F7784BD089582
:1007000084B58F7DFBCF8091B0008F778093B00050
:1007100008958091B0008F7DF9CF809190008F7700
:10072000809390000895809190008F7DF9CF809103
:100730009000877FF5CF8091A0008F778093A000F5
:1007400008958091A0008F7DF9CF8091A000877FD0
:10075000F5CF809120018F778093200108958091BB
:1007600020018F7DF9CF80912001877FF5CFCF9336
:10077000DF93282F30E0F901E258FD4F8491F90111
:10078000E85CFD4FD491F901EE50FE4FC491CC23AB
:10079000A1F081110E945003EC2FF0E0EE0FFF1F3B
:1007A000E852FE4FA591B491EC91ED2381E090E0E9
:1007B00009F480E0DF91CF91089580E090E0FACFD6
:1007C000862F0C94B7031F93CF93DF93282F30E02D
:1007D000F901E258FD4F8491F901E85CFD4FD49195
:1007E000F901EE50FE4FC491CC23A9F0162F8111D0
:1007F0000E945003EC2FF0E0EE0FFF1FE254FE4F7B
:10080000A591B4918FB7F894EC91111108C0D095CF
:10081000DE23DC938FBFDF91CF911F910895DE2BF4
:10082000F8CF862F642F0C94E303CF93DF9390E0EF
:10083000FC01E85CFD4F24918E509E4FFC01849199
:100840008823C9F090E0880F991FFC01EC55FE4FFA
:10085000A591B491FC01E254FE4FC591D491611170
:100860000DC09FB7F8948C91209582238C9388813A
:10087000282328839FBFDF91CF910895623051F4E0
:100880009FB7F8943C91822F809583238C93E881C5
:100890002E2BEFCF8FB7F894EC912E2B2C938FBF8C
:1008A000EACF862F642F0C9415043FB7F8948091FB
:1008B0000E0690910F06A0911006B091110626B574
:1008C000A89B05C02F3F19F00196A11DB11D3FBF88
:1008D000BA2FA92F982F8827BC01CD01620F711D57
:1008E000811D911D42E0660F771F881F991F4A9551
:1008F000D1F708958F929F92AF92BF92CF92DF92DD
:10090000EF92FF924B015C010E9455046B017C0148
:100910000E9455046C197D098E099F09683E734039
:1009200081059105A8F321E0821A9108A108B10878
:1009300088EEC80E83E0D81EE11CF11C81149104DE
:10094000A104B10429F7FF90EF90DF90CF90BF9002
:10095000AF909F908F9008952FB7F89460910A06FA
:1009600070910B0680910C0690910D062FBF089593
:100970000F931F93CF93DF93C82FD62F86E0C89F86
:10098000F0011124EA5CF64F11A2878D90A181300D
:100990009105F1F058F082309105F1F1039709F4D7
:1009A00040C0DF91CF911F910F9108956623C9F345
:1009B00061E070E08C2F0E94BE010E94AC04609345
:1009C0008E0970938F098093900990939109E9CFD4
:1009D0000E94AC0400918E0910918F09209190091A
:1009E00030919109AB01BC01401B510B620B730BA1
:1009F0008091A0099091A109B0E0A0E0841795072B
:100A0000A607B70748F462E070E08C2FDF91CF9122
:100A10001F910F910C94BE0163E070E0D111C1CF22
:100A2000F4CF70E060E0F1CF6F927F928F929F924F
:100A3000AF92BF92CF92DF92EF92FF920F931F93EC
:100A4000CF93DF9381E08093A2090E94AC040091D0
:100A50009209109193092091940930919509AB0165
:100A6000BC01401B510B620B730B80919E0990914E
:100A70009F09B0E0A0E084179507A607B70708F024
:100A800014C1C0E080919C09C81760F4E0919809F6
:100A9000F0919909EC0FF11D62E080810E9415042C
:100AA000CF5FF0CF712C812C912C540183948091D5
:100AB0009D09781608F05FC0072D10E0E0919A09B3
:100AC000F0919B09E00FF11F61E080810E94150405
:100AD000E0919A09F0919B09E00FF11F60E080819D
:100AE0000E94E303D501C401072C04C0880F991F9D
:100AF000AA1FBB1F0A94D2F76C017C01E094F0940A
:100B0000612C80919C096816F8F4C62DD0E0E09124
:100B10009809F0919909EC0FFD1F80810E94B7039D
:100B20002496CC0FDD1FCA5CD64F892B41F48881F7
:100B300099818C299D29998388836394E2CF888148
:100B400099818E219F21F7CFE0919A09F0919B091D
:100B5000E00FF11F61E080810E94E30380919A0918
:100B600090919B09080F191F60E0F80180810E9495
:100B7000150473949CCFC6E3D9E0FE018FEF9FEF7D
:100B8000278D30A1232B21F4148E968F858F11A2EF
:100B9000369629E0E237F20799F7F12C96E0D92E44
:100BA00080919C09F81608F050C0E12C0F2D10E040
:100BB000000F111F025C164F20919D09E21608F0EC
:100BC00042C0F801608171810E2C02C07695679554
:100BD0000A94E2F7F29E900111242E0D311DE6E3F6
:100BE000F9E080E0458D568D2417350709F461C082
:100BF0008F5F36968A30B1F760FF23C0E6E3F9E0F5
:100C000090E080E0448D411117C0E0919609F09189
:100C10009709E20FF31F4081D89EF001D99EF00D95
:100C20001124EA5CF64F448F368F258F10A2178E61
:100C300061E00E94B80405C0019636968A3091059D
:100C400009F7E394B9CFF394ABCF10E089A18111F8
:100C5000182F2696F9E0C237DF07C1F70E94AC04CF
:100C600060939209709393098093940990939509E6
:100C70001123D9F0809157098823B9F08091550943
:100C800090915609019789F480915209DF91CF9193
:100C90001F910F91FF90EF90DF90CF90BF90AF909A
:100CA0009F908F907F906F9008951092A20980E09E
:100CB000EDCF6170BECF0E9414058823E1F3089543
:100CC0000F931F93CF93DF93EC010E94AC046887CE
:100CD00079878A879B87CE010E944C0297FF15C0B7
:100CE0000E94AC04088519852A853B85601B710B21
:100CF000820B930B0C811D812E813F816017710740
:100D00008207930740F38FEF9FEFDF91CF911F9101
:100D10000F91089590E080E00895CF93DF93EC0168
:100D200060E08E810E94E30361E08E810E94E30314
:100D300060E08E810E94E3038BE891E00197F1F778
:100D4000DF91CF910895CF92DF92EF92FF920F93B0
:100D50001F93CF93DF936C017C0187E0E80EF11CB9
:100D6000D0E0C0E0062F10E0B8010C2E02C075954F
:100D700067950A94E2F76170F70181917F010E9403
:100D8000E3032196C430D10579F7C601DF91CF91F5
:100D90001F910F91FF90EF90DF90CF900C948D06F4
:100DA000CF92DF92EF92FF920F931F93CF93DF9337
:100DB000EC01F62E642F8C810E94E3038D818F3F1E
:100DC00019F060E00E94E3030F2D10E08F8584FF8F
:100DD00025C06E0187E0C80ED11CF12CE12CB801B2
:100DE0000E2C02C0759567950A94E2F76170F601C2
:100DF00081916F010E94E303FFEFEF1AFF0A88E081
:100E0000E816F10461F7CE01DF91CF911F910F91A8
:100E1000FF90EF90DF90CF900C948D06B80184E0A6
:100E2000759567958A95E1F7CE010E94A3066F2D0F
:100E3000CE01DF91CF911F910F91FF90EF90DF9046
:100E4000CF900C94A30640E0682F85EA99E00C94BB
:100E5000D00681E00E9423078BE39FE10197F1F721
:100E60000895CF93DF93823029F49091B40998606C
:100E70009093B4098093B8091092B90980E48093E3
:100E8000BA0980E18093BB0980E58093BC0961E0E9
:100E90008091A9090E9415048091AA098F3F19F039
:100EA00061E00E94150461E08091AB090E94150485
:100EB000C5EAD9E09E01255A39408091B40984FDE4
:100EC0000BC084E090E021962817390744F461E0D4
:100ED0008E810E941504EECF88E090E0F4CF8BE382
:100EE0009DE00197F1F760E08091A9090E94E3037A
:100EF00060E08091AB090E94E3038091AA098F3FD3
:100F000019F060E00E94E3038091B40984FD34C0CD
:100F100063E085EA99E00E94A306CBE4D6E4CE0123
:100F20000197F1F763E085EA99E00E94A306219713
:100F3000F1F763E085EA99E00E94A30683E592E079
:100F40000197F1F762E085EA99E00E94A30680919B
:100F5000B40980620E94230784E08093B5098CE085
:100F60000E9423070E94290782E08093B60986E049
:100F7000DF91CF910C94230780620E9423078BE4BA
:100F800096E40197F1F78091B40980620E942307EB
:100F900083E592E00197F1F78091B40980620E94A5
:100FA0002307D5CF9091B809691710F06FEF690F3B
:100FB000E62FF0E0EB55F64F9489890F80680C948A
:100FC000230741E00E94D00681E090E008950F934E
:100FD0001F93CF93DF938B0128E0829FC0011124E0
:100FE00080640E942307E801085F1F4F699185EA2A
:100FF00099E00E94E107C017D107C1F7DF91CF91B7
:101000001F910F9108950F931F93CF93DF93FC01CE
:10101000048115810115110539F4FB011082DF915E
:10102000CF911F910F9108954150510940175107D9
:1010300008F48A01EB01FC0160817181A801CE01F5
:101040000E947426C00FD11F1882E9CFFC012481B1
:101050003581232B39F421E0FB018081882349F07D
:1010600020E007C0808191810E94642621E0892BC5
:10107000B9F7822F0895FC0124813581FB01448159
:10108000558124173507E1F4FC0180819181FB0132
:10109000608171810097D1F061157105A1F4232B56
:1010A000C1F0FC01808190E008C0232B91F0FB018E
:1010B000808190E091958195910921E0892B09F03B
:1010C00020E0822F08950E946426F7CF61157105F4
:1010D00061F721E0F6CFCF92DF92EF92FF920F936C
:1010E0001F93CF93DF93EB017B012DE2E20EF11C06
:1010F0008B016C01C61AD70AC601800F911F0E948E
:101100001524F80181938F01EE15FF05A9F7CE0193
:10111000DF91CF911F910F91FF90EF90DF90CF90D3
:101120000895FB0101900020E9F73197AF01461BBC
:10113000570BDC01ED91FC910280F381E02D1994B5
:101140008F929F92AF92BF92EF92FF920F931F9355
:10115000CF93DF93CDB7DEB7A1970FB6F894DEBF7C
:101160000FBECDBF7C01FA01CB0119A2223008F4D9
:101170002AE08E010F5D1F4F822E912CB12CA12CE5
:10118000BF01A50194010E942B24F901CA016A3014
:101190000CF5605DD8016E938D01232B242B252B3C
:1011A00079F790E080E0109721F0BD01C7010E941F
:1011B0009108A1960FB6F894DEBF0FBECDBFDF91A8
:1011C000CF911F910F91FF90EF90BF90AF909F90A4
:1011D0008F900895695CDECFCF92DF92EF92FF92FD
:1011E0000F931F93CF93DF936B01770FEE08FF08E8
:1011F000F7FE1BC0EC016DE20E94E2018C01442766
:101200005527BA014C195D096E097F092AE0CE0104
:101210000E94A008800F911FDF91CF911F910F9125
:10122000FF90EF90DF90CF9008952AE0B701A601DC
:10123000DF91CF911F910F91FF90EF90DF90CF90B2
:101240000C94A008CF93DF93BC018DE298E00E943C
:10125000EC08EC016FE572E08DE298E00E949108E5
:101260008C0F9D1FDF91CF910895CF93DF93AC0139
:1012700070E060E02AE08DE298E00E94A008EC01B6
:101280006FE572E08DE298E00E9491088C0F9D1F3F
:10129000DF91CF910895CF93DF93BC018DE298E069
:1012A0000E949108EC016FE572E08DE298E00E94E7
:1012B00091088C0F9D1FDF91CF910895CF93DF93FD
:1012C000482F50E070E060E02AE08DE298E00E9454
:1012D000A008EC016FE572E08DE298E00E949108B1
:1012E0008C0F9D1FDF91CF9108950C9491080F935F
:1012F0001F93CF93DF938C01EB01FC0180819181DF
:101300000097E1F06881798161157105A9F042814A
:1013100053812C813D814217530770F00E946D2646
:101320008C819D81F801958384831D821C82DF91CD
:10133000CF911F910F9108950E94F1248881998186
:10134000F801918380838A819B81938382838C813E
:101350009D8195838483198218821B821A82E5CF2E
:10136000FC0180819181009711F00C94F124089583
:101370000F931F93CF93DF93EC018881998100979E
:1013800059F02A813B812617370730F081E0DF9141
:10139000CF911F910F9108958B016F5F7F4F0E9436
:1013A0007A25009759F0998388831B830A832C81BF
:1013B0003D81232B59F7FC011082E8CF80E0E7CF75
:1013C000EF92FF920F931F93CF93DF93EC017B017A
:1013D000198218821B821A821D821C82FB010190D5
:1013E0000020E9F731978F01061B170BB8010E9407
:1013F000B80928813981811113C02115310519F0EF
:10140000C9010E94F124198218821D821C821B824C
:101410001A82DF91CF911F910F91FF90EF90089565
:101420001D830C83B701C901DF91CF911F910F91EB
:10143000FF90EF900C946D26EF92FF920F931F9305
:10144000CF93DF93EC017B01FB0101900020E9F7D2
:1014500031978F01061B170BB8010E94B80928812C
:101460003981811113C02115310519F0C9010E947C
:10147000F124198218821D821C821B821A82DF913C
:10148000CF911F910F91FF90EF9008951D830C83D2
:10149000B701C901DF91CF911F910F91FF90EF909C
:1014A0000C946D26CF93109208061092070661E601
:1014B00072E08AE299E00E941C0A61E672E084E22E
:1014C00099E00E941C0A61E672E088E199E00E94BE
:1014D0001C0A61E672E082E199E00E941C0A109207
:1014E000040210920302C1E0C093020261E672E0BE
:1014F0008EE199E00E941C0A61E672E08CE099E0BE
:101500000E941C0A10924B0610924A06C0930102D8
:10151000C093000261E672E086E099E00E941C0A36
:1015200010920606CF910895EF92FF920F931F93AA
:10153000CF93DF931F921F92CDB7DEB78C016983E3
:101540001A82FC01E480F580FFEFEF1AFF0AB70171
:101550000E94B809882381F0F801208131818481BB
:101560009581BE016F5F7F4F820F931F0E946D2692
:10157000F801F582E48281E00F900F90DF91CF9126
:101580001F910F91FF90EF9008950F931F93CF93AA
:10159000DF93EC018B0161E672E00E94E009C80173
:1015A0000E94600697FD08C08A30910529F0682FD7
:1015B000CE010E94940AF3CFCE01DF91CF911F910B
:1015C0000F910895EF92FF920F931F93CF93DF93A4
:1015D000CDB7DEB7C554D1090FB6F894DEBF0FBE44
:1015E000CDBF80910806811183C0809106068111CC
:1015F00025C060E085E00E94D20762E672E085EADD
:1016000099E00E94750968EE73E080E090E00E9426
:101610007A0461E081E00E94D20768E672E085EA20
:1016200099E00E94750960ED77E080E090E00E940B
:101630007A040E94290781E08093060660E080E03A
:101640000E94D20766E772E085EA99E00E94750978
:1016500061E084E00E94D2076AE279E085EA99E0DD
:101660000E94E9010E945B06182F8093AF06682F45
:101670008AE299E00E94940A80914A0690914B0672
:10168000019690934B0680934A061A3249F4809152
:101690000406909105060196909305068093040632
:1016A00080910406909105061816190684F410928C
:1016B0004B0610924A06109205061092040661E647
:1016C00072E08AE299E00E941C0A0E942907809138
:1016D0004A0690914B06069709F083CF81E08093EC
:1016E000080610924B0610924A060E94290779CFED
:1016F00080910706811154C060E00E94D20766E81D
:1017000072E085EA99E00E9475090E945B06809369
:10171000AF06833229F0682F84E299E00E94940A90
:1017200080914A0661E08C5F0E94D20767E972E00F
:1017300085EA99E00E94750980914A0690914B06CE
:10174000019690934B0680934A061091AF06133290
:1017500049F481E08093070610924B0610924A06E6
:101760000E94290780914A0690914B06089751F4F0
:1017700081E08093070610924B0610924A060E9461
:101780002907B6CF1A3209F0B3CF10924B06109248
:101790004A0661E672E084E299E00E941C0AEFCFFB
:1017A0007E018EE2E80EF11C10E000E0C8010E940C
:1017B0001524F70181937F010F5F1F4F0831110539
:1017C000A9F7CE01C8960E944B09CE01CF960E9480
:1017D0004B09BE01685C7F4F8AE299E00E942608AF
:1017E000882309F48EC0BE01615C7F4F84E299E0DA
:1017F0000E942608882309F484C060E082E00E94E9
:10180000D20769E972E085EA99E00E94750961E012
:1018100083E00E94D20766EA72E085EA99E00E94BE
:10182000750968EB7BE080E090E00E947A040E94FA
:10183000290760EB72E086E099E00E941C0A809123
:101840000306811116C01092040260E083E00E943A
:10185000D2076CEB72E085EA99E00E94750961E0BD
:1018600083E00E94D20767EC72E085EA99E00E946B
:101870007509109203068091040281114FC180E91D
:1018800097E00E946E02181619068CF460E977E062
:10189000CE0101960E94C50ABE016F5F7F4F80E3B3
:1018A00099E00E947709CE0101960E94B00963EE8B
:1018B00072E080E399E00E9426088823E1F20E940A
:1018C000290760E083E00E94D2076DEE72E085EAAE
:1018D00099E00E94750961E083E00E94D20768EFF9
:1018E00072E085EA99E00E94750968EB7BE080E090
:1018F00090E00E947A0481E0809304021092030237
:10190000BFC086EB92E00E944B0909E110E0F12C88
:10191000E12C8091AD069091AE06E816F906A4F58B
:10192000BE016F5F7F4FC8010E946B08BE016F5FF1
:101930007F4F8AE299E00E942608882349F0BE0181
:10194000685F7F4F84E299E00E942608811106C0FB
:10195000FFEFEF1AFF0A025D1F4FDBCF81E080939C
:10196000020662ED72E086E099E00E941C0A8DE2B8
:10197000FE013196A2EBB6E001900D928A95E1F757
:101980001093B1060093B0068091020660E08823B0
:1019900009F440C080E00E94D20769E972E085EA5C
:1019A00099E00E94750961E080E00E94D20766EA32
:1019B00072E085EA99E00E94750968EB7BE080E0BF
:1019C00090E00E947A040E94290762ED72E086E0AE
:1019D00099E00E941C0A80910306811116C01092A2
:1019E000040260E083E00E94D2076CEB72E085EABB
:1019F00099E00E94750961E083E00E94D20767ECDC
:101A000072E085EA99E00E9475091092030610922F
:101A1000020631CF82E00E94D20769E972E085EACE
:101A200099E00E94750961E083E00E94D20767EDAA
:101A300072E085EA99E00E94750968EB7BE080E03E
:101A400090E00E947A04109208061092070661E660
:101A500072E08AE299E00E941C0A61E672E084E288
:101A600099E00E941C0A10924B0610924A0661E609
:101A700072E086E099E00E941C0A81E080930606ED
:101A80000E942907F8CE60E080E00E94D20762E061
:101A900073E085EA99E00E94750961E080E00E94A8
:101AA000D2076DE073E085EA99E00E94750980E94C
:101AB00097E00E946E021816190684F560E977E037
:101AC000CE0101960E94C50ABE016F5F7F4F88E17B
:101AD00099E00E947709CE0101960E94B0090E9408
:101AE000290760E080E00E94D20769E173E085EA9F
:101AF00099E00E94750968EB7BE080E090E00E942D
:101B00007A0467EB73E080E997E00E94750981E051
:101B100080930302109202020E942907809103021F
:101B2000882309F4B0CF01E010E080910202811116
:101B300057C060E00E94D20762E073E085EA99E056
:101B40000E94750961E080E00E94D2076AE273E0BA
:101B500085EA99E00E94750980E997E00E946E028B
:101B60001816190614F760E977E0CE0101960E9475
:101B7000C50ABE016F5F7F4F82E199E00E9477093D
:101B8000CE0101960E94B0090E94290760E084E01E
:101B90000E94D2076EE872E085EA99E00E9475091A
:101BA00061E084E00E94D2076DE375E085EA99E088
:101BB0000E94750968EB7BE080E090E00E947A0467
:101BC00067EB73E080E997E00E94750981E08093FC
:101BD000020210930106009300060E942907A5CF78
:101BE0008091000690910106019709F046C068E1D6
:101BF00079E08AE299E00E943B088823C9F062E11B
:101C000079E084E299E00E943B08882389F061E64C
:101C100072E08AE299E00E942608811109C061E61B
:101C200072E084E299E00E942608882309F473C0D8
:101C300060E080E00E94D20769E972E085EA99E0FD
:101C40000E94750961E080E00E94D20767E373E0BB
:101C500085EA99E00E94750968EB7BE080E090E0FE
:101C60000E947A040E94290781E0809303060E9463
:101C7000520A1092010610920006809101028823F8
:101C800009F44CC082E0E82EF12C80910002811111
:101C90008CC060E00E94D2076AE573E085EA99E0B3
:101CA0000E94750961E085E00E94D2076EE179E04B
:101CB00085EA99E00E94E9010E945B06182F809353
:101CC000AF06682F8EE199E00E94940A80914A063F
:101CD00090914B06019690934B0680934A06069787
:101CE00059F481E080930002F0920106E092000630
:101CF00010924B0610924A061A3239F661E672E0EB
:101D00008EE199E00E941C0A10924B0610924A063E
:101D10000E942907BACF10920102AFCF60E080E0A5
:101D20000E94D20762E073E085EA99E00E9475099B
:101D300061E080E00E94D20761E473E085EA99E007
:101D40000E94750980E997E00E946E021816190634
:101D50000CF093CF60E977E0CE0101960E94C50AAE
:101D6000BE016F5F7F4F8CE099E00E947709CE0142
:101D700001960E94B0090E94290760E080E00E945D
:101D8000D2076BE473E085EA99E00E94750968EB7D
:101D90007BE080E090E00E947A0481E08093010281
:101DA000109200020E94290768CF0091000610914E
:101DB00001060230110599F56CE079E08EE199E0B9
:101DC0000E943B08882381F061E672E08EE199E091
:101DD0000E942608811108C061E672E08CE099E05B
:101DE0000E942608882349F160E081E00E94D20722
:101DF0006BE673E085EA99E00E94750968EB7BE089
:101E000080E090E00E947A040E94290781E080939C
:101E100003060E94520A1092010610920006CB5B44
:101E2000DF4F0FB6F894DEBF0FBECDBFDF91CF916D
:101E30001F910F91FF90EF90089567EB73E080E999
:101E400097E00E94750964EF71E080E090E00E94E5
:101E50007A040E94290760EB72E086E099E00E9414
:101E60002608882309F4D0C01093180200931702A3
:101E700060E080E00E94D2076AE773E085EA99E0BB
:101E80000E94750961E080E00E94D20765E873E076
:101E900085EA99E00E94750968EE73E080E090E0C1
:101EA0000E947A0460E073E080E997E00E9475097F
:101EB00060ED77E080E090E00E947A040E942907BC
:101EC00060E081E00E94D2076FE873E085EA99E064
:101ED0000E94750961E085E00E94D2076DE973E018
:101EE00085EA99E00E94750909E110E0F12CE12CE6
:101EF0008091AD069091AE06E816F9060CF0EFC0A1
:101F0000BE016F5F7F4FC8010E946B0863EA73E0F8
:101F1000CE0101960E946426892B09F46FC0BE0190
:101F20006F5F7F4F80E997E00E94750960E273E080
:101F300080E090E00E947A04BE01685F7F4F80E9F4
:101F400097E00E94750960E273E080E090E00E94F3
:101F50007A04BE016F5E7F4F80E997E00E947509A9
:101F600060E273E080E090E00E947A046AA17BA1C5
:101F700080E997E00E94EC0860E273E080E090E086
:101F80000E947A046CA17DA180E997E00E94EC0890
:101F900060E273E080E090E00E947A046EA17FA18D
:101FA00080E997E00E94EC0860E273E080E090E056
:101FB0000E947A0468A579A580E997E00E94EC0860
:101FC00060E273E080E090E00E947A046AA57BA55D
:101FD00080E997E00E94EC0860E273E080E090E026
:101FE0000E947A046CA57DA580E997E00E94EC0828
:101FF00060E273E080E090E00E947A048FEFE81ADC
:10200000F80A025D1F4F74CF62ED72E086E099E03E
:102010000E942608882309F465C08EE190E0909321
:1020200018028093170260E080E00E94D2076AE7FE
:1020300073E085EA99E00E94750961E080E00E9402
:10204000D20762EC76E085EA99E00E94750968EEB5
:1020500073E080E090E00E947A0468EA73E080E92F
:1020600097E00E94750960ED77E080E090E00E94C3
:102070007A0462EC76E080E997E00E94750980912D
:10208000D3069091D4069093F2068093F106809146
:10209000D5069091D6069093EE068093ED0680913A
:1020A000D7069091D8069093EC068093EB0680912A
:1020B000D9069091DA069093EA068093E90680911A
:1020C000DB069091DC069093E6068093E50680910E
:1020D000DD069091DE069093E4068093E3060E946D
:1020E00029079DCE60E081E00E94D2076AEA73E092
:1020F00085EA99E00E94750968EB7BE080E090E05A
:102100000E947A040E94290781E0809303060E94BE
:10211000520A109201061092000660EB73E080E90B
:1021200097E00E9475097BCEFF920F931F93CF9388
:10213000DF93EC01F62E08811981C8010E94152455
:10214000F81621F06F2DC8010E941D24CE01DF91E9
:10215000CF911F910F91FF900895AF92BF92CF92B0
:10216000DF92EF92FF920F931F93CF93DF931F9213
:102170001F92CDB7DEB78B016B012DE2C20ED11CD1
:102180007B015C01A61AB70AC5018E0D9F1D9A83BB
:102190008983F70161917F01CE0101960E9494101D
:1021A000EC14FD0489F7C8010F900F90DF91CF91D7
:1021B0001F910F91FF90EF90DF90CF90BF90AF9065
:1021C0000895AF92BF92CF92DF92EF92FF920F935A
:1021D0001F93CF93DF93CDB7DEB7CD53D1400FB66A
:1021E000F894DEBF0FBECDBF62EB73E0CE01019667
:1021F0000E946D2662EB73E0CE0108960E946D2668
:1022000069EB73E0CE0141960E946D2681E090E07B
:102210009BA38AA382E090E09DA38CA383E0E82E99
:10222000F12CFFA2EEA294E0C92ED12CD9A6C8A60B
:1022300025E0A22EB12CBBA6AAA606E010E01DA7A1
:102240000CA762EC73E0CE018E960E946D2662ECC4
:1022500073E0CE01C5960E946D2669EC73E0CE0155
:10226000CE960E946D2661961FAE1EAE6197639654
:102270001FAE1EAE639765961FAE1EAE659767963E
:102280001FAE1EAE679769961FAE1EAE69976B961E
:102290001FAE1EAE6B976EEC73E0CE01855A9F4F5A
:1022A0000E946D266EEC73E08BE590E08C0F9D1F15
:1022B00007960E946D2665ED73E08BE590E08C0F2C
:1022C0009D1F40960E946D26EE961FAF0EAFEE97B3
:1022D000C258DF4FB982A882CE57D040C058DF4FD6
:1022E000D982C882C058D04088E090E0CE57DF4FF6
:1022F00099838883C258D040CC57DF4FF982E88257
:10230000C458D0403AE0E32EF12CCA57DF4FF9828F
:10231000E882C658D0406BED73E0CE0188579F4FDE
:102320000E946D266BED73E088E890E08C0F9D1F96
:1023300007960E946D2662EE73E088E890E08C0FAD
:102340009D1F40960E946D26C755DF4F1983088355
:10235000C95AD04082E390E0C555DF4F9983888306
:10236000CB5AD04088E290E0C355DF4F99838883F1
:10237000CD5AD04080E590E0C155DF4F99838883E6
:10238000CF5AD0408EE190E0CF54DF4F99838883BD
:10239000C15BD040CD54DF4FF982E882C35BD040AF
:1023A0006AEE73E0CE018B549F4F0E946D266AEE59
:1023B00073E085EB90E08C0F9D1F07960E946D26C1
:1023C00061EF73E085EB90E08C0F9D1F40960E94BB
:1023D0006D26CA52DF4F19821882C65DD040C8529E
:1023E000DF4F19821882C85DD040C652DF4F198274
:1023F0001882CA5DD040C452DF4F19821882CC5D6A
:10240000D040C252DF4F19821882CE5DD040C052F8
:10241000DF4F19821882C05ED0408DE290E00E94AA
:1024200035098DE290E00E9435098DE290E00E942E
:1024300035098DE290E00E9435098DE290E00E941E
:102440003509BE016F5F7F4F89E190E00E94AD10BA
:10245000BE01625D7F4F87E490E00E94AD10BE0137
:10246000655A7F4F85E790E00E94AD10BE01685726
:102470007F4F83EA90E00E94AD10BE016B547F4F06
:1024800081ED90E00E94AD10BE016E517F4F89E159
:1024900090E00E946B08CE018E519F4F0E944B0925
:1024A00082EE90E08C0F9D1F07960E944B0982EEF2
:1024B00090E08C0F9D1F40960E944B09CD5FDE4F30
:1024C00088819981C350D1400E942209CB5FDE4FA1
:1024D00088819981C550D1400E942209C95FDE4F91
:1024E00088819981C750D1400E942209C75FDE4F81
:1024F00088819981C950D1400E942209C55FDE4F71
:1025000088819981CB50D1400E942209C35FDE4F60
:1025100088819981CD50D1400E942209BE01615F1E
:102520007E4F81ED90E00E946B08CE01815F9E4F4F
:102530000E944B098FE091E08C0F9D1F07960E942F
:102540004B098FE091E08C0F9D1F40960E944B0934
:10255000C05DDE4F88819981C053D1400E9422091D
:10256000CE5CDE4F88819981C253D1400E942209FE
:10257000CC5CDE4F88819981C453D1400E942209EE
:10258000CA5CDE4F88819981C653D1400E942209DE
:10259000C85CDE4F88819981C853D1400E942209CE
:1025A000C65CDE4F88819981CA53D1400E942209BE
:1025B00010E000E0C8010E9415240E945E090F5F30
:1025C0001F4F05361105B1F780EA9FE0C45CDE4F6E
:1025D00099838883CC53D14065E0CE01845C9E4FC3
:1025E0000E94941081EA9FE0C45CDE4F9983888347
:1025F000CC53D14060E0CE01845C9E4F0E94941089
:10260000C35CDE4F0FB6F894DEBF0FBECDBFDF91C7
:10261000CF911F910F91FF90EF90DF90CF90BF90DF
:10262000AF9008951F920F920FB60F9211240BB620
:102630000F922F933F934F935F936F937F938F935B
:102640009F93AF93BF93EF93FF9383EF96E00E9426
:102650009802FF91EF91BF91AF919F918F917F91E0
:102660006F915F914F913F912F910F900BBE0F9003
:102670000FBE0F901F9018951F920F920FB60F92DA
:1026800011240BB60F922F933F934F935F936F9349
:102690007F938F939F93AF93BF93EF93FF9383EFBA
:1026A00096E00E942402FF91EF91BF91AF919F911C
:1026B0008F917F916F915F914F913F912F910F90EB
:1026C0000BBE0F900FBE0F901F9018951F920F9288
:1026D0000FB60F9211240BB60F922F933F934F9387
:1026E0005F936F937F938F939F93AF93BF93EF937A
:1026F000FF9380E997E00E949802FF91EF91BF91CC
:10270000AF919F918F917F916F915F914F913F9189
:102710002F910F900BBE0F900FBE0F901F9018952A
:102720001F920F920FB60F9211240BB60F922F9398
:102730003F934F935F936F937F938F939F93AF9349
:10274000BF93EF93FF9380E997E00E942402FF91EB
:10275000EF91BF91AF919F918F917F916F915F9119
:102760004F913F912F910F900BBE0F900FBE0F9086
:102770001F9018951F920F920FB60F9211240BB64F
:102780000F922F933F934F935F936F937F938F930A
:102790009F93AF93BF93EF93FF938DE298E00E94D6
:1027A0009802FF91EF91BF91AF919F918F917F918F
:1027B0006F915F914F913F912F910F900BBE0F90B2
:1027C0000FBE0F901F9018951F920F920FB60F9289
:1027D00011240BB60F922F933F934F935F936F93F8
:1027E0007F938F939F93AF93BF93EF93FF938DE26C
:1027F00098E00E942402FF91EF91BF91AF919F91C9
:102800008F917F916F915F914F913F912F910F9099
:102810000BBE0F900FBE0F901F9018951F920F9236
:102820000FB60F9211242F933F938F939F93AF93E3
:10283000BF9380910A0690910B06A0910C06B0916F
:102840000D063091090623E0230F2D3758F5019628
:10285000A11DB11D2093090680930A0690930B06D3
:10286000A0930C06B0930D0680910E0690910F0672
:10287000A0911006B09111060196A11DB11D809383
:102880000E0690930F06A0931006B0931106BF9109
:10289000AF919F918F913F912F910F900FBE0F900D
:1028A0001F90189526E8230F0296A11DB11DD2CFC7
:1028B0001092F6061092F50648EE53E060E070E0E4
:1028C0004093F7065093F8066093F9067093FA0662
:1028D0008BE392E09093F4068093F30625ED30E0CD
:1028E000309300072093FF0624ED30E03093020779
:1028F0002093010720ED30E0309304072093030775
:1029000021ED30E0309306072093050722ED30E0FB
:10291000309308072093070726ED30E030930A072D
:102920002093090710920C0710920D0710920E07C2
:1029300010920F07109293071092920740939407FA
:10294000509395076093960770939707909391071C
:10295000809390072DEC30E030939D0720939C07E7
:102960002CEC30E030939F0720939E0728EC30E05A
:102970003093A1072093A00729EC30E03093A30700
:102980002093A2072AEC30E03093A5072093A407F8
:102990002EEC30E03093A7072093A6071092A907EA
:1029A0001092AA071092AB071092AC071092300851
:1029B00010922F08409331085093320860933308E7
:1029C0007093340890932E0880932D0885EC90E046
:1029D00090933A088093390884EC90E090933C08F7
:1029E00080933B0880EC90E090933E0880933D08F4
:1029F00081EC90E09093400880933F0882EC90E057
:102A0000909342088093410886EC90E090934408AC
:102A10008093430810924608109247081092480885
:102A2000109249081092A8091092A70987E592E030
:102A30009093A6098093A50986E18093A9098FEF59
:102A40008093AA0987E18093AB0988E18093AC0960
:102A500089E18093AD098AE18093AE098BE180938F
:102A6000AF091092B0091092B1091092B2091092F8
:102A7000B3091092B40981E00E943107109238091D
:102A800010923C0910923B0910923D098DE492E0AE
:102A90009093370980933609E2E5F9E010821482B9
:102AA00013821582369689E0EE38F807B9F78DE182
:102AB00092E0909399098093980989E192E090932C
:102AC0009B0980939A0984E080939C0980939D09D7
:102AD00081E292E090939709809396098AE090E0D2
:102AE00090939F0980939E0984EF91E09093A109B0
:102AF0008093A0091092A4091092A3091092920940
:102B00001092930910929409109295091092A209BB
:102B100061E672E080E399E00E94E00961E672E01C
:102B20008AE299E00E94E00961E672E084E299E0BD
:102B30000E94E00961E672E08EE199E00E94E009FE
:102B400061E672E088E199E00E94E00961E672E0E6
:102B500082E199E00E94E00961E672E08CE099E090
:102B60000E94E00961E672E086E099E00E94E009D7
:102B700061E672E080E099E00E94E00961E672E0BF
:102B80008AEF98E00E94E00961E672E084EF98E045
:102B90000E94E00961E672E08EEE98E00E94E00992
:102BA00061E672E088EE98E00E94E00961E672E07A
:102BB00082EE98E00E94E00961E672E08CED98E018
:102BC0000E94E00961E672E086ED98E00E94E0096B
:102BD0006DEF73E080ED98E00E94E0096EE074E034
:102BE0008AEC98E00C94E009CF93DF93CDB7DEB781
:102BF000C154D1090FB6F894DEBF0FBECDBF789493
:102C000084B5826084BD84B5816084BD85B58260F1
:102C100085BD85B5816085BD80916E0081608093A2
:102C20006E0010928100809181008260809381000B
:102C3000809181008160809381008091800081601B
:102C4000809380008091B10084608093B100809176
:102C5000B00081608093B000809191008260809389
:102C6000910080919100816080939100809190000B
:102C70008160809390008091A10082608093A10088
:102C80008091A10081608093A1008091A00081606B
:102C90008093A00080912101826080932101809126
:102CA00021018160809321018091200181608093C6
:102CB000200180917A00846080937A0080917A006C
:102CC000826080937A0080917A00816080937A009C
:102CD00080917A00806880937A001092C1008DE222
:102CE00098E00E94970180E997E00E94970183EFA6
:102CF00096E00E94970182E00E94310710E000E018
:102D0000C8010E9415240E945E090F5F1F4F0536FF
:102D10001105B1F765E873E0CE0101960E946D26BA
:102D200069E174E0CE010B960E946D2660E274E0CA
:102D3000CE0142960E946D2688E190E00E943509FE
:102D4000CE0101967C0110E000E01FA70EA7F7015D
:102D500061917F01CE018E960E9494100F5F1F4FEC
:102D60000831110591F710E000E0C8010E94152418
:102D70000E945E090F5F1F4F05361105B1F70E94D3
:102D8000E11080EA9FE00E9415248093AD0681EA5D
:102D90009FE00E9415248093AE0667E274E08DE206
:102DA00098E00E9475098091AD069091AE060E9450
:102DB00022090E9429076DE072E080E00E94E70787
:102DC00060E082E00E94D20760E085EA99E00E941C
:102DD000E10760E083E00E94D2076AE773E085EADA
:102DE00099E00E94750965E072E081E00E94E707C2
:102DF00060E08DE00E94D20761E085EA99E00E94E0
:102E0000E10761E080E00E94D20762E374E085EAB6
:102E100099E00E94750968EB7BE080E090E00E94F9
:102E20007A040E94290704E010E043E0E42EF12C2C
:102E300066246394712C62E0A62EB12C7CE0272ED0
:102E4000312CEBE04E2E512CE0911702F09118023C
:102E50003197EE31F10508F026C08827ED5CF84E79
:102E60008F4F0C944D2451175617A017D3171318D2
:102E700052189118C619081AEF1ACC1B171D5317B0
:102E80005317531753175317771E5317AA1E531769
:102E900053175317531753175317531753175317E2
:102EA000CB1F0E94E20A0E942703CECF60E080E0A1
:102EB0000E94D20763E474E085EA99E00E947509F4
:102EC00061E080E00E94D20763E574E085EA99E062
:102ED0000E94750961E08DE00E94D2076EE574E002
:102EE00085EA99E00E9475096DE072E080E00E9439
:102EF000E70761E08FE00E94D20760E085EA99E091
:102F00000E94E1070E945B068093AF06813329F49B
:102F1000109318020093170210C0823339F484E131
:102F200090E0909318028093170207C0843409F050
:102F3000E5C0F0921802E09217020E942907B3CF71
:102F400060E080E00E94D20761E774E085EA99E0E2
:102F50000E94750961E08DE00E94D2076EE574E081
:102F600085EA99E00E9475096DE072E080E00E94B8
:102F7000E70761E08FE00E94D20760E085EA99E010
:102F80000E94E1070E945B068093AF06833319F429
:102F900082E190E0C6CF843409F0B0C0B09218024C
:102FA000A0921702CACF60E080E00E94D20761E8D9
:102FB00074E085EA99E00E94750961E080E00E9472
:102FC000D20769E874E085EA99E00E94750961E03A
:102FD0008DE00E94D2076EE574E085EA99E00E94D8
:102FE00075096DE072E080E00E94E70761E08FE024
:102FF0000E94D20760E085EA99E00E94E1070E9402
:103000005B068093AF06813319F487E090E089CFA7
:10301000823319F488E090E084CF843409F06EC0E4
:1030200085E090E07ECF60E080E00E94D20765E915
:1030300074E085EA99E00E94750961E080E00E94F1
:10304000D20764EA74E085EA99E00E94750961E0BC
:103050008DE00E94D2076EE574E085EA99E00E9457
:1030600075096DE072E080E00E94E70761E08FE0A3
:103070000E94D20760E085EA99E00E94E1070E9481
:103080005B068093AF06833319F489E090E049CF63
:10309000843319F48AE090E044CF843479F586E0F3
:1030A00090E03FCF60E080E00E94D2076FEA74E0DA
:1030B00085EA99E00E94750961E08DE00E94D207DF
:1030C0006EE574E085EA99E00E9475096DE072E0B2
:1030D00080E00E94E70761E08FE00E94D20760E095
:1030E00085EA99E00E94E1070E945B068093AF06A3
:1030F000853309F453CF843409F40ACF0E94290799
:1031000060E080E00E94D20761E674E085EA99E021
:103110000E94750968EB7BE080E090E00E947A04F1
:103120000CCF80911306811146C060E00E94D20747
:1031300066E772E085EA99E00E94750961E084E043
:103140000E94D20760E079E085EA99E00E94E901F7
:103150000E945B06D82E8093AF06682F80E099E02E
:103160000E94940A80917D0690917E060196FAE273
:10317000DF16A1F090937E0680937D0680917D06F8
:1031800090917E06069769F681E08093130610926F
:103190007E0610927D060E942907C3CF10927E06FC
:1031A00010927D0661E672E080E099E00E941C0AC0
:1031B0000E942907E3CF80911206811155C060E07B
:1031C0000E94D20766E872E085EA99E00E947509DC
:1031D0000E945B068093AF06833229F0682F8AEF46
:1031E00098E00E94940A80917D0661E08C5F0E94C5
:1031F000D20767E972E085EA99E00E94750980913B
:103200007D0690917E06019690937E0680937D06C2
:10321000D090AF0623E2D21209C081E0809312065B
:1032200010927E0610927D060E94290780917D06ED
:1032300090917E06089751F481E0809312061092D7
:103240007E0610927D060E942907B5CF4AE2D4126D
:10325000B2CF10924B0610924A0661E672E084E209
:1032600099E00E941C0AEFCF47E050E0BE01695C84
:103270007F4F80E099E00E94030849E050E0BE01E2
:10328000625D7F4F8AEF98E00E940308CE01C796E7
:103290000E944B09CE018E960E944B09BE01695CCB
:1032A0007F4FCE0101960E946D26BE01625D7F4F69
:1032B000CE0108960E946D2667EB74E0CE01419620
:1032C0000E946D261BA21AA21DA21CA21FA21EA252
:1032D00019A618A61BA61AA61DA61CA68DE290E08C
:1032E0000E9435092091AD063091AE06EEE2E29FD4
:1032F000C001E39F900D1124BE016F5F7F4F49967F
:103300000E94AD102091AD063091AE06FEE2F29F14
:10331000C001F39F900D112449960E9422096091EB
:10332000AD067091AE066F5F7F4F7093AE066093EF
:10333000AD0680EA9FE09FAF8EAFCE01CE960E9491
:10334000941060E081E00E94D2076EEB74E085EAA1
:1033500099E00E94750961E083E00E94D2076DEC5C
:1033600074E085EA99E00E94750968EB7BE080E0F3
:1033700090E00E947A040E9429071092130610928E
:10338000120610931802009317028DCD60E080E0C2
:103390000E94D20767ED74E085EA99E00E94750902
:1033A00061E080E00E94D20760EE74E085EA99E077
:1033B0000E94750961E08DE00E94D2076BEE74E017
:1033C00085EA99E00E94750965E072E080E00E945C
:1033D000E70761E08FE00E94D20760E085EA99E0AC
:1033E0000E94E1070E945B068093AF06813329F4B7
:1033F0005092180240921702A0CD823329F43092E5
:1034000018022092170299CD823409F077CE80CD30
:1034100080914406811146C060E00E94D20766E7B1
:1034200072E085EA99E00E94750961E084E00E94FB
:10343000D2076CED78E085EA99E00E94E9010E94EC
:103440005B06D82E8093AF06682F8CED98E00E9423
:10345000940A80914206909143060196EAE2DE16B4
:10346000A1F090934306809342068091420690918A
:103470004306069769F681E080934406109243065E
:10348000109242060E942907C3CF10924306109261
:10349000420661E672E08CED98E00E941C0A0E94F0
:1034A0002907E3CF39E1832E912CD12CC12C8091B7
:1034B000AD069091AE06C816D906FCF4BE016F5F4A
:1034C0007F4FC4010E946B08BE016F5F7F4F8CED80
:1034D00098E00E942608FEE28F0E911C882309F4D2
:1034E00058C081E0809341068DE2FE013196A4E14F
:1034F000B6E001900D928A95E1F78091410660E077
:10350000882309F44AC080E00E94D2076EEE74E07E
:1035100085EA99E00E94750961E080E00E94D20787
:1035200064E276E085EA99E00E94750968EB7BE049
:1035300080E090E00E947A040E94290760E080E029
:103540000E94D20766EF74E085EA99E00E9475094F
:1035500061E080E00E94D2076BE176E085EA99E0C5
:103560000E94750968EB7BE080E090E00E947A049D
:103570000E94290710931802009317021092410627
:103580001092440661E672E08CED98E00E941C0AFD
:103590008ACC2FEFC21AD20A8ACF83E00E94D207C8
:1035A00060E075E085EA99E00E94750961E083E0DA
:1035B0000E94D2076BE075E085EA99E00E947509E8
:1035C00068EB7BE080E090E00E947A041092440671
:1035D00061E672E08CED98E00E941C0AAECC80910E
:1035E0004806811146C060E00E94D20766E772E09B
:1035F00085EA99E00E94750961E084E00E94D207A3
:1036000066ED78E085EA99E00E94E9010E945B0698
:10361000D82E8093AF06682F86ED98E00E94940A1A
:10362000809146069091470601964AE2D416A1F091
:1036300090934706809346068091460690914706F0
:10364000069769F681E0809348061092470610922B
:1036500046060E942907C3CF1092470610924606DD
:1036600061E672E086ED98E00E941C0A0E9429073C
:10367000E3CF29E1C22ED12C912C812C8091AD0673
:103680009091AE06881699067CF52196CFAE2197CB
:103690002296DFAE2297BE016F5F7F4FC6010E9468
:1036A0006B08BE016F5F7F4F86ED98E00E94260891
:1036B0009EE2C90ED11C882309F447C081E08093A3
:1036C00045068DE2FE013196AEE4B6E001900D9222
:1036D0008A95E1F72196EFAD2197E0934C0622966B
:1036E000FFAD2297F0934D0680914506882389F11E
:1036F00063EA73E08EE496E00E946D266EE476E065
:1037000080914C0690914D060E94AD1060E084E0DF
:103710000E94D2076EE772E085EA99E00E9475097F
:1037200061E083E00E94D20766E175E085EA99E0F6
:103730000E94750968EB7BE080E090E00E947A04CB
:10374000109245060E9429071CCE2FEF821A920A7A
:1037500095CF60E083E00E94D20760E075E085EAE3
:1037600099E00E94750961E083E00E94D2076BE056
:1037700075E085EA99E00E94750968EB7BE080E0DE
:1037800090E00E947A041092480661E672E086EDAD
:1037900098E00E941C0AD6CF80917F0681114CC010
:1037A00060E083E00E94D20762E073E085EA99E07E
:1037B0000E94750961E081E00E94D20760E275E035
:1037C00085EA99E00E94750980E997E00E946E02FF
:1037D000181619060CF760E977E0CE0101960E94F1
:1037E000C50ABE016F5F7F4F84EF98E00E947709A2
:1037F000CE0101960E94B0090E94290760E080E096
:103800000E94D20769E173E085EA99E00E94750998
:1038100068EB7BE080E090E00E947A0467EB73E065
:1038200080E997E00E94750981E080937F0680938C
:1038300049060E942907B0CF99E1C92ED12C912CBD
:10384000812C8091AD069091AE06881699067CF584
:103850002196CFAE21972296DFAE2297BE016F5FF1
:103860007F4FC6010E946B08BE016F5F7F4F84EFE0
:1038700098E00E9426084EE2C40ED11C882309F469
:1038800069C081E080937B068DE2FE013196AEE453
:10389000B6E001900D928A95E1F721968FAD2197C0
:1038A00080934C0622969FAD229790934D0680916F
:1038B0007B06882309F452C010924906809149067C
:1038C000811174C060E083E00E94D20762E073E07F
:1038D00085EA99E00E94750961E085E00E94D207BF
:1038E0006FE275E085EA99E00E94750980E997E04A
:1038F0000E946E02181619060CF760E977E0CE01F7
:1039000001960E94C50ABE016F5F7F4F8EEE98E060
:103910000E947709CE0101960E94B0090E942907F2
:1039200060E080E00E94D20766E375E085EA99E0F6
:103930000E94750968EB7BE080E090E00E947A04C9
:1039400067EB73E080E997E00E94750981E080935E
:10395000490629C0EFEF8E1A9E0A73CF60E083E01C
:103960000E94D20760E075E085EA99E00E9475093F
:1039700061E083E00E94D2076BE075E085EA99E0A0
:103980000E94750968EB7BE080E090E00E947A0479
:1039900010927F0681E08093490661E672E084EF31
:1039A00098E00E941C0A0E94290788CF80917B061C
:1039B000882309F4E6CC41E150E0BE016F5F7F4F00
:1039C0008EEE98E00E940308BE016F5F7F4F8EE588
:1039D00096E00E946D266EE476E080914C06909110
:1039E0004D060E94AD1010927F0681E0809349063B
:1039F00060E084E00E94D20769ED74E085EA99E016
:103A00000E94750961E082E00E94D20766E475E0D9
:103A100085EA99E00E94750968EB7BE080E090E020
:103A20000E947A040E94290710927B06AACC8091FA
:103A30007F06811148C060E00E94D20766E772E00D
:103A400085EA99E00E94750961E084E00E94D2074E
:103A500062EE78E085EA99E00E94E9010E945B0647
:103A6000D82E8093AF06682F82EE98E00E94940AC9
:103A700080917D0690917E060196FAE2DF16B1F004
:103A800090937E0680937D0680917D0690917E06C0
:103A9000069769F681E080937F0680937C061092FA
:103AA0007E0610927D060E942907C1CF10927E06E5
:103AB00010927D0661E672E082EE98E00E941C0A98
:103AC0000E942907E1CF89E1C82ED12C912C812CAD
:103AD0008091AD069091AE06881699067CF52196E8
:103AE000CFAE21972296DFAE2297BE016F5F7F4F48
:103AF000C6010E946B08BE016F5F7F4F82EE98E0A7
:103B00000E9426082EE2C20ED11C882309F469C047
:103B100081E080937B068DE2FE013196AEE4B6E053
:103B200001900D928A95E1F721964FAD2197409330
:103B30004C0622968FAD229780934D0680917B068E
:103B4000882309F452C010927C0680917C06811172
:103B500079C060E00E94D20766E872E085EA99E0E9
:103B60000E9475090E945B068093AF06833229F09C
:103B7000682F88EE98E00E94940A80917D0661E0AB
:103B80008C5F0E94D20767E972E085EA99E00E94A3
:103B9000750980917D0690917E06019690937E0630
:103BA00080937D06D090AF06E3E2DE1209C081E08B
:103BB00080937C0610927E0610927D060E94290753
:103BC00080917D0690917E06089709F082C081E081
:103BD00080937C0610927E0610927D060E94290733
:103BE000B4CF9FEF891A990A73CF60E083E00E94F7
:103BF000D20760E075E085EA99E00E94750961E00E
:103C000083E00E94D2076BE075E085EA99E00E94AC
:103C1000750968EB7BE080E090E00E947A041092E6
:103C20007F0681E080937C0661E672E084EF98E095
:103C30000E941C0A61E672E082EE98E00E941C0A73
:103C40000E94290780917B06882309F49ACB49E0DA
:103C500050E0BE016F5F7F4F88EE98E00E9403083E
:103C6000BE016F5F7F4F85E596E00E946D266EE492
:103C700076E080914C0690914D060E94AD10109216
:103C80007F0681E080937C0660E083E00E94D2079B
:103C90006EE872E085EA99E00E94750961E082E0D1
:103CA0000E94D20766E475E085EA99E00E947509F2
:103CB00068EB7BE080E090E00E947A040E94290794
:103CC00010927B0661E672E088EE98E00E941C0A82
:103CD00058CBFAE2DF1239CF10924B0610924A0607
:103CE00061E672E088EE98E00E941C0A77CF60E0FF
:103CF00082E00E94D20762E575E085EA99E00E94C1
:103D0000750980E997E00E946E02181619060CF0FA
:103D1000CAC860E977E0CE0101960E94C50ABE01DB
:103D20006F5F7F4F80E399E00E947709CE01019693
:103D30000E94B0096EE575E080E399E00E942608D4
:103D4000882309F4B0C870921802609217020E948A
:103D5000520AF3C8D12CC12C8091AD069091AE06C9
:103D6000C816D9060CF057C02EE22C9DC0012D9D1F
:103D7000900D1124BE016F5F7F4F49960E946B0822
:103D800063EA73E0CE0101960E946426892B09F450
:103D9000F4C060E080E00E94D207BE016F5E7F4FFA
:103DA00085EA99E00E94750961E080E00E94D207EF
:103DB00065E675E085EA99E00E94750961E08DE0AD
:103DC0000E94D2076EE574E085EA99E00E947509C9
:103DD0006DE072E080E00E94E70761E08FE00E9402
:103DE000D20760E085EA99E00E94E1070E945B0645
:103DF000982E8093AF060E94290741E39412BDC01C
:103E00000E9429078DE2FE013196A0E8B6E00190FC
:103E10000D928A95E1F760E084E00E94D2076EE798
:103E200072E085EA99E00E94750960E085E00E94F1
:103E3000D20760E876E085EA99E00E94750968EBB0
:103E40007BE080E090E00E947A040E94290760E015
:103E500081E00E94D2076EE675E085EA99E00E9453
:103E6000750961E080E00E94D2076CE775E085EAA1
:103E700099E00E9475096091A1067091A20685EAF9
:103E800099E00E94EC0861E086E00E94D2076FE7AB
:103E900075E085EA99E00E9475096091A30670912A
:103EA000A40685EA99E00E94EC0861E08CE00E949B
:103EB000D20762E875E085EA99E00E947509609191
:103EC000A5067091A60685EA99E00E94EC0868EBC9
:103ED0007BE080E090E00E947A040E94290760E085
:103EE00081E00E94D20765E875E085EA99E00E94CA
:103EF000750961E080E00E94D2076CE775E085EA11
:103F000099E00E9475096091A7067091A80685EA5C
:103F100099E00E94EC0861E086E00E94D2076FE71A
:103F200075E085EA99E00E9475096091A906709193
:103F3000AA0685EA99E00E94EC0861E08CE00E9404
:103F4000D20762E875E085EA99E00E947509609100
:103F5000AB067091AC0685EA99E00E94EC0868EB2C
:103F60007BE080E090E00E947A040E942907B092F2
:103F70001802A09217020C9453178091AD069091ED
:103F8000AE060197C816D90611F4D12CC12C8FEFBB
:103F9000C81AD80AE1CE80E997E00E946E0218168E
:103FA00019060CF0E8C060E977E0CE0101960E94A6
:103FB000C50ABE016F5F7F4F80E399E00E947709D9
:103FC000CE0101960E94B00960E379E08DE298E0AD
:103FD0000E94E9016FE572E08DE298E00E9491088D
:103FE0006BEB75E080E399E00E942608882359F185
:103FF0008091F1069091F20601969093F2068093DB
:10400000F1066BEB75E083EF96E00E9475096AE0BC
:1040100083EF96E00E94E20164E975E080ED98E0AC
:104020000E941C0A6FE975E08AEC98E00E941C0A65
:10403000F092F006E092EF0610931602009315023C
:104040000E94290798C066EE75E080E399E00E941F
:104050002608882361F08091ED069091EE06019686
:104060009093EE068093ED0666EE75E0CCCF69EF97
:1040700075E080E399E00E942608882361F0809132
:10408000EB069091EC0601969093EC068093EB067C
:1040900069EF75E0B8CF67EA75E080E399E00E94C8
:1040A0002608882309F4A3C167EA75E083EF96E048
:1040B0000E9475096AE083EF96E00E94E201809118
:1040C000E9069091EA062091E7063091E806820F12
:1040D000931F9093EA068093E9060E94290760E007
:1040E00081E00E94D20765E875E085EA99E00E94C8
:1040F000750961E080E00E94D2076CE775E085EA0F
:1041000099E00E9475096091E9067091EA0685EAD6
:1041100099E00E94EC0861E086E00E94D2076FE718
:1041200075E085EA99E00E9475096091E506709155
:10413000E60685EA99E00E94EC0861E08CE00E94C6
:10414000D20762E875E085EA99E00E9475096091FE
:10415000E3067091E40685EA99E00E94EC0864E8C1
:1041600073E080E090E00E947A040E942907109298
:10417000E8061092E70683EF96E00E946E0218169A
:104180001906E4F563EF76E0CE0101960E94C50AB8
:10419000BE016F5F7F4F80E399E00E947709CE01F7
:1041A00001960E94B00960E379E08DE298E00E94F8
:1041B000E9016FE572E08DE298E00E94910860EB02
:1041C00075E080E399E00E942608882309F439C24B
:1041D0006DEF73E080ED98E00E941C0A6EE074E0E1
:1041E0008AEC98E00E941C0A1092F0061092EF06EA
:1041F000F0921602E09215020E9429070E9414050F
:104200008093AF06813409F0DAC00E94290760E08C
:1042100081E00E94D2076EE675E085EA99E00E948F
:10422000750961E080E00E94D2076CE775E085EADD
:1042300099E00E9475096091F1067091F20685EA95
:1042400099E00E94EC0861E086E00E94D2076FE7E7
:1042500075E085EA99E00E9475096091ED0670911C
:10426000EE0685EA99E00E94EC0861E08CE00E948D
:10427000D20762E875E085EA99E00E9475096091CD
:10428000EB067091EC0685EA99E00E94EC0864E880
:1042900073E080E090E00E947A040E94290760E0C9
:1042A00081E00E94D2076DEC75E085EA99E00E94FA
:1042B000750961E080E00E94D2076CE775E085EA4D
:1042C00099E00E9475096091E7067091E80685EA19
:1042D00099E00E94EC0861E086E00E94D2076FE757
:1042E00075E085EA99E00E9475096091E106709198
:1042F000E20685EA99E00E94EC0861E08CE00E9409
:10430000D20762E875E085EA99E00E94750960913C
:10431000DF067091E00685EA99E00E94EC0864E807
:1043200073E080E090E00E947A040E94290760E038
:1043300081E00E94D20765E875E085EA99E00E9475
:10434000750961E080E00E94D2076CE775E085EABC
:1043500099E00E9475096091E9067091EA0685EA84
:1043600099E00E94EC0861E086E00E94D2076FE7C6
:1043700075E085EA99E00E9475096091E506709103
:10438000E60685EA99E00E94EC0861E08CE00E9474
:10439000D20762E875E085EA99E00E9475096091AC
:1043A000E3067091E40685EA99E00E94EC0864E86F
:1043B00073E080E090E00E947A040E94290760E0A8
:1043C0008091EF060E94D20760ED78E085EA99E0DF
:1043D0000E94E90161E0809115020E94D2076AEC17
:1043E00078E085EA99E00E94E9010C9453176AEAA3
:1043F00075E080E399E00E942608882309F468C0EC
:104400006AEA75E083EF96E00E9475096AE083EF3F
:1044100096E00E94E2018091E5069091E6062091E7
:10442000E1063091E206820F931F9093E606809397
:10443000E5060E94290760E081E00E94D20765E856
:1044400075E085EA99E00E94750961E080E00E94CC
:10445000D2076CE775E085EA99E00E9475096091E2
:10446000E9067091EA0685EA99E00E94EC0861E0AD
:1044700086E00E94D2076FE775E085EA99E00E9426
:1044800075096091E5067091E60685EA99E00E945B
:10449000EC0861E08CE00E94D20762E875E085EAF2
:1044A00099E00E9475096091E3067091E40685EA3F
:1044B00099E00E94EC0864E873E080E090E00E94DC
:1044C0007A040E9429071092E2061092E10653CE68
:1044D0006DEA75E080E399E00E942608882309F4DC
:1044E00068C06DEA75E083EF96E00E9475096AE0A6
:1044F00083EF96E00E94E2018091E3069091E4064A
:104500002091DF063091E006820F931F9093E4061E
:104510008093E3060E94290760E081E00E94D207B1
:1045200065E875E085EA99E00E94750961E080E040
:104530000E94D2076CE775E085EA99E00E94750950
:104540006091E9067091EA0685EA99E00E94EC081C
:1045500061E086E00E94D2076FE775E085EA99E0A6
:104560000E9475096091E5067091E60685EA99E07A
:104570000E94EC0861E08CE00E94D20762E875E0DE
:1045800085EA99E00E9475096091E3067091E4065E
:1045900085EA99E00E94EC0864E873E080E090E02E
:1045A0000E947A040E9429071092E0061092DF060A
:1045B000E2CD6EE575E080E399E00E94260888234D
:1045C00009F4D9CD8091F1069091F2069093D4062A
:1045D0008093D3068091ED069091EE069093D606D7
:1045E0008093D5068091EB069091EC069093D806C7
:1045F0008093D7068091E9069091EA069093DA06B7
:104600008093D9068091E5069091E6069093DC06AA
:104610008093DB068091E3069091E4069093DE069A
:104620008093DD0662EB76E08091B0069091B10652
:104630000E94AD1070921802609217020E94520AF6
:10464000FFCC64E373E080E399E00E9426088823AE
:1046500009F46EC08091E7069091E8060196909368
:10466000E8068093E7060E94290760E080E00E9448
:10467000D20763EB75E085EA99E00E94750961E075
:1046800083E00E94D20763EC75E085EA99E00E941E
:10469000750960E273E080E090E00E947A040E9475
:1046A000290760E081E00E94D2076DEC75E085EAA1
:1046B00099E00E94750961E080E00E94D2076CE7F2
:1046C00075E085EA99E00E9475096091E7067091AE
:1046D000E80685EA99E00E94EC0861E086E00E9425
:1046E000D2076FE775E085EA99E00E94750960914D
:1046F000E1067091E20685EA99E00E94EC0861E02B
:104700008CE00E94D20762E875E085EA99E00E9499
:1047100075096091DF067091E00685EA99E00E94D4
:10472000EC0860E273E080E090E00E947A0464CDDF
:104730006BED75E080E399E00E942608882391F0F4
:104740008091E1069091E20601969093E2068093B3
:10475000E1060E94290760E080E00E94D2076EED2A
:1047600075E089CF6EEE75E080E399E00E9426083F
:10477000882309F443CD8091DF069091E0060196ED
:104780009093E0068093DF060E94290760E081E0B5
:104790000E94D20761EF75E06ECF8AEC98E00E942C
:1047A000B00980ED98E00E94B00986ED98E00E9483
:1047B000B0098CED98E00E94B00982EE98E00E946A
:1047C000B00988EE98E00E94B0098EEE98E00E9451
:1047D000B00984EF98E00E94B0098AEF98E00E9447
:1047E000B00980E099E00E94B00986E099E00E945B
:1047F000B0098CE099E00E94B00982E199E00E9442
:10480000B00988E199E00E94B0098EE199E00E9428
:10481000B00984E299E00E94B0098AE299E00E941E
:10482000B00980E399E00C94B009F999FECF92BDEC
:1048300081BDF89A992780B50895262FF999FECF62
:104840001FBA92BD81BD20BD0FB6F894FA9AF99AAD
:104850000FBE01960895A1E21A2EAA1BBB1BFD01F3
:104860000DC0AA1FBB1FEE1FFF1FA217B307E4074F
:10487000F50720F0A21BB30BE40BF50B661F771FA7
:10488000881F991F1A9469F7609570958095909587
:104890009B01AC01BD01CF010895EE0FFF1F881FE2
:1048A0008BBF0790F691E02D19940F931F93CF9330
:1048B000DF938230910510F482E090E0E091BF092F
:1048C000F091C00930E020E0B0E0A0E0309799F42A
:1048D0002115310509F44AC0281B390B2430310554
:1048E000D8F58A819B816115710589F1FB0193835C
:1048F0008283FE0111C040815181028113814817DA
:104900005907E0F04817590799F4109761F012968B
:104910000C93129713961C933296CF01DF91CF918F
:104920001F910F9108950093BF091093C009F4CF10
:104930002115310551F04217530738F0A901DB0169
:104940009A01BD01DF01F801C1CFEF01F9CF9093CA
:10495000C0098093BF09CDCFFE01E20FF31F819301
:1049600091932250310939832883D7CF2091BD09F3
:104970003091BE09232B41F420913302309134024F
:104980003093BE092093BD0920913102309132024B
:104990002115310541F42DB73EB7409135025091B4
:1049A0003602241B350BE091BD09F091BE09E217D8
:1049B000F307A0F42E1B3F0B2817390778F0AC0142
:1049C0004E5F5F4F2417350748F04E0F5F1F50931F
:1049D000BE094093BD09819391939FCFF0E0E0E041
:1049E0009CCFCF93DF930097E9F0FC0132971382BD
:1049F0001282A091BF09B091C009ED0130E020E022
:104A00001097A1F420813181820F931F2091BD095D
:104A10003091BE092817390709F061C0F093BE092B
:104A2000E093BD09DF91CF910895EA01CE17DF072A
:104A3000E8F54A815B819E0141155105B1F7E90115
:104A4000FB83EA8349915991C40FD51FEC17FD07E9
:104A500061F4808191810296840F951FE901998309
:104A60008883828193819B838A83F0E0E0E01296C1
:104A70008D919C9113970097B9F52D913C911197C9
:104A8000CD010296820F931F2091BD093091BE097E
:104A90002817390739F6309751F51092C00910924E
:104AA000BF09B093BE09A093BD09BCCFD383C28315
:104AB00040815181840F951FC817D90761F44E5F5B
:104AC0005F4F88819981480F591F518340838A81A4
:104AD0009B81938382832115310509F0B0CFF09338
:104AE000C009E093BF099ECFFD01DC01C0CF138256
:104AF0001282D7CF4F925F926F927F928F929F9246
:104B0000AF92BF92CF92DF92EF92FF920F931F93DB
:104B1000CF93DF938C01009799F4CB01DF91CF9174
:104B20001F910F91FF90EF90DF90CF90BF90AF90CB
:104B30009F908F907F906F905F904F900C94552432
:104B4000FC01E60FF71F9C0122503109E217F30721
:104B500008F4AEC0D901CD91DC911197C617D707E3
:104B600020F1C530D10578F0CE010497861797075C
:104B700050F0C61BD70B2297C193D1936D937C93B2
:104B8000CF010E94F124C801DF91CF911F910F91B5
:104B9000FF90EF90DF90CF90BF90AF909F908F905D
:104BA0007F906F905F904F9008955B01AC1ABD0AA3
:104BB0004C018C0E9D1EA091BF09B091C009512CD3
:104BC000412CF12CE12C109731F58091BD09909189
:104BD000BE098815990509F05CC04616570608F00D
:104BE00058C08091310290913202009741F48DB704
:104BF0009EB74091350250913602841B950BE81701
:104C0000F90708F055C0F093BE09E093BD09F9011A
:104C100071836083B8CF8D919C91119712966C909F
:104C2000129713967C901397A815B90559F56C0146
:104C300042E0C40ED11CCA14DB0420F1AC014A19B5
:104C40005B09DA011296159780F0628273825183B4
:104C50004083D9016D937C93E114F10471F0D70185
:104C60001396FC93EE9312978ECF22968C0F9D1F76
:104C7000F90191838083F301EFCFF093C009E093B2
:104C8000BF0981CF4816590608F42C017D01D301D4
:104C90009ACFCB010E9455247C01009749F0AE01C8
:104CA000B8010E945B26C8010E94F12487016BCFE6
:104CB00010E000E068CFFB01DC0102C001900D9222
:104CC00041505040D8F70895FB01DC018D910190CF
:104CD00080190110D9F3990B0895FB01DC010190B3
:104CE0000D920020E1F70895FB01DC014150504096
:104CF00048F001900D920020C9F701C01D9241506B
:104D00005040E0F7089511E0C3E6D1E000E006C0AE
:104D1000802FFE010E944D242196011DC436D1072B
:0A4D200080E00807A9F7F894FFCF20
:104D2A00010101010100040C1F1F0C04000004060C
:104D3A001F1F06040003000100202122231C1D1E40
:104D4A001F3132334134353642373839432A30231A
:104D5A00440000C109800000000000BA02F7013DCA
:104D6A000207036E024C02600200000000510411A7
:104D7A0004E00300000000E107F7018A06E1010DE3
:104D8A000A004C4F47494E00496E696369652053D2
:104D9A006573696F6E00496E677265736520557336
:104DAA00756172696F00496E67726573652050613B
:104DBA007373776F7264002A0043726564656E6369
:104DCA0069616C657300436F727265637461730025
:104DDA0061646D696E00656E7472650056696E6312
:104DEA00756C65206C610061706C69636163696FE1
:104DFA006E007573657200496E636F7272656374D3
:104E0A00617300636F6E65637461646F0041706CF7
:104E1A0069636163696F6E0056696E63756C61647C
:104E2A0061004F6274656E69656E646F00757375B3
:104E3A006172696F20617070005573756172696F74
:104E4A00206F6274656E69646F0070617373776F47
:104E5A0072642061707000696E76616C6964617356
:104E6A0000746F6B656E2061707000546F6B656EB5
:104E7A00206F6274656E69646F00496E677265734C
:104E8A006520656C20746F6B656E00546F6B656E80
:104E9A0020696E76616C69646F004269656E766539
:104EAA006E69646F0041646D696E2D313341005340
:104EBA00696E63726F6E697A616E646F00646174A1
:104ECA006F73004E4F4E450075004572726F720047
:104EDA0030003131313131310044616E69656C2005
:104EEA0044003232323232320045646D7900333353
:104EFA0033333333004B6576696E003434343434DB
:104F0A003400457269636B205200353535353535C5
:104F1A0000526567696E616C646F20440050726F5D
:104F2A006365736172207061717565746500646987
:104F3A0073706F6E69626C650041313937334300B3
:104F4A00414431334441005573756172696F733A54
:104F5A002000477275706F31332D53656363696F33
:104F6A006E4100312E435255442055737561726962
:104F7A006F7300322E5265706F7274657300442E1F
:104F8A00004F7063696F6E20496E76616C69646167
:104F9A0000332E43657272617220536573696F6EB6
:104FAA0000312E437265617200322E4D6F6469665C
:104FBA006963617200332E5665722055737561728A
:104FCA00696F7300342E456C696D696E61720035C4
:104FDA002E53616C697200556E6B6E6F7700557354
:104FEA00756172696F2063726561646F00636F6EC9
:104FFA0020657869746F00312E4E6F6D627265009C
:10500A00322E50617373776F726400422E004E6FB6
:10501A006D6272653A0050617373776F72643A0019
:10502A005573756172696F206E6F00456E636F6E9E
:10503A00747261646F00656C696D696E61646F009A
:10504A00636F6469676F207573756172696F006E4B
:10505A006F6D627265004E6F6D627265206F627469
:10506A00656E69646F0061637475616C697A616405
:10507A006F0043657272616E646F2E2E2E00636537
:10508A007272617200312E20456E74657200502E64
:10509A002050726F63657361646F7300503A004DFC
:1050AA003A00473A00502E20446573706163686184
:1050BA00646F73005061717565746520656E007068
:1050CA00726F6365736F006231006232006233008F
:1050DA006F6B0050617175657465207065717565D7
:1050EA006E6F00656E2070756572746100502E20B7
:1050FA004163756D756C61646F7300706D0050610A
:10510A007175657465206D656469616E6F0070679D
:10511A000050617175657465206772616E6465001F
:00000001FF
